{
  "address": "0xDcC0BDF68c3A0568D7C2C9e88D9c6eB574173846",
  "abi": [
    {
      "inputs": [],
      "stateMutability": "nonpayable",
      "type": "constructor"
    },
    {
      "inputs": [],
      "name": "AccessControlBadConfirmation",
      "type": "error"
    },
    {
      "inputs": [
        {
          "internalType": "address",
          "name": "account",
          "type": "address"
        },
        {
          "internalType": "bytes32",
          "name": "neededRole",
          "type": "bytes32"
        }
      ],
      "name": "AccessControlUnauthorizedAccount",
      "type": "error"
    },
    {
      "inputs": [],
      "name": "ReentrancyGuardReentrantCall",
      "type": "error"
    },
    {
      "anonymous": false,
      "inputs": [
        {
          "indexed": true,
          "internalType": "bytes32",
          "name": "entryId",
          "type": "bytes32"
        },
        {
          "indexed": true,
          "internalType": "bytes32",
          "name": "paymentId",
          "type": "bytes32"
        },
        {
          "indexed": false,
          "internalType": "enum AuditRegistry.Severity",
          "name": "severity",
          "type": "uint8"
        },
        {
          "indexed": false,
          "internalType": "string",
          "name": "description",
          "type": "string"
        }
      ],
      "name": "AlertRaised",
      "type": "event"
    },
    {
      "anonymous": false,
      "inputs": [
        {
          "indexed": true,
          "internalType": "bytes32",
          "name": "entryId",
          "type": "bytes32"
        },
        {
          "indexed": true,
          "internalType": "bytes32",
          "name": "paymentId",
          "type": "bytes32"
        },
        {
          "indexed": false,
          "internalType": "enum AuditRegistry.EventType",
          "name": "eventType",
          "type": "uint8"
        },
        {
          "indexed": true,
          "internalType": "address",
          "name": "actor",
          "type": "address"
        },
        {
          "indexed": false,
          "internalType": "uint256",
          "name": "timestamp",
          "type": "uint256"
        }
      ],
      "name": "AuditLogged",
      "type": "event"
    },
    {
      "anonymous": false,
      "inputs": [
        {
          "indexed": true,
          "internalType": "bytes32",
          "name": "role",
          "type": "bytes32"
        },
        {
          "indexed": true,
          "internalType": "bytes32",
          "name": "previousAdminRole",
          "type": "bytes32"
        },
        {
          "indexed": true,
          "internalType": "bytes32",
          "name": "newAdminRole",
          "type": "bytes32"
        }
      ],
      "name": "RoleAdminChanged",
      "type": "event"
    },
    {
      "anonymous": false,
      "inputs": [
        {
          "indexed": true,
          "internalType": "bytes32",
          "name": "role",
          "type": "bytes32"
        },
        {
          "indexed": true,
          "internalType": "address",
          "name": "account",
          "type": "address"
        },
        {
          "indexed": true,
          "internalType": "address",
          "name": "sender",
          "type": "address"
        }
      ],
      "name": "RoleGranted",
      "type": "event"
    },
    {
      "anonymous": false,
      "inputs": [
        {
          "indexed": true,
          "internalType": "bytes32",
          "name": "role",
          "type": "bytes32"
        },
        {
          "indexed": true,
          "internalType": "address",
          "name": "account",
          "type": "address"
        },
        {
          "indexed": true,
          "internalType": "address",
          "name": "sender",
          "type": "address"
        }
      ],
      "name": "RoleRevoked",
      "type": "event"
    },
    {
      "anonymous": false,
      "inputs": [
        {
          "indexed": true,
          "internalType": "bytes32",
          "name": "paymentId",
          "type": "bytes32"
        },
        {
          "indexed": false,
          "internalType": "bytes32",
          "name": "dataHash",
          "type": "bytes32"
        },
        {
          "indexed": false,
          "internalType": "string",
          "name": "jurisdiction",
          "type": "string"
        }
      ],
      "name": "TravelRuleRecorded",
      "type": "event"
    },
    {
      "inputs": [],
      "name": "AUDITOR_ROLE",
      "outputs": [
        {
          "internalType": "bytes32",
          "name": "",
          "type": "bytes32"
        }
      ],
      "stateMutability": "view",
      "type": "function"
    },
    {
      "inputs": [],
      "name": "DEFAULT_ADMIN_ROLE",
      "outputs": [
        {
          "internalType": "bytes32",
          "name": "",
          "type": "bytes32"
        }
      ],
      "stateMutability": "view",
      "type": "function"
    },
    {
      "inputs": [],
      "name": "LOGGER_ROLE",
      "outputs": [
        {
          "internalType": "bytes32",
          "name": "",
          "type": "bytes32"
        }
      ],
      "stateMutability": "view",
      "type": "function"
    },
    {
      "inputs": [
        {
          "internalType": "address",
          "name": "",
          "type": "address"
        },
        {
          "internalType": "uint256",
          "name": "",
          "type": "uint256"
        }
      ],
      "name": "actorAuditTrail",
      "outputs": [
        {
          "internalType": "bytes32",
          "name": "",
          "type": "bytes32"
        }
      ],
      "stateMutability": "view",
      "type": "function"
    },
    {
      "inputs": [
        {
          "internalType": "uint256",
          "name": "",
          "type": "uint256"
        }
      ],
      "name": "allEntries",
      "outputs": [
        {
          "internalType": "bytes32",
          "name": "",
          "type": "bytes32"
        }
      ],
      "stateMutability": "view",
      "type": "function"
    },
    {
      "inputs": [
        {
          "internalType": "address",
          "name": "logger",
          "type": "address"
        }
      ],
      "name": "authorizeLogger",
      "outputs": [],
      "stateMutability": "nonpayable",
      "type": "function"
    },
    {
      "inputs": [
        {
          "internalType": "address",
          "name": "",
          "type": "address"
        }
      ],
      "name": "authorizedLoggers",
      "outputs": [
        {
          "internalType": "bool",
          "name": "",
          "type": "bool"
        }
      ],
      "stateMutability": "view",
      "type": "function"
    },
    {
      "inputs": [
        {
          "internalType": "bytes32",
          "name": "",
          "type": "bytes32"
        }
      ],
      "name": "entries",
      "outputs": [
        {
          "internalType": "bytes32",
          "name": "entryId",
          "type": "bytes32"
        },
        {
          "internalType": "bytes32",
          "name": "paymentId",
          "type": "bytes32"
        },
        {
          "internalType": "enum AuditRegistry.EventType",
          "name": "eventType",
          "type": "uint8"
        },
        {
          "internalType": "enum AuditRegistry.Severity",
          "name": "severity",
          "type": "uint8"
        },
        {
          "internalType": "address",
          "name": "actor",
          "type": "address"
        },
        {
          "internalType": "address",
          "name": "subject",
          "type": "address"
        },
        {
          "internalType": "bytes32",
          "name": "dataHash",
          "type": "bytes32"
        },
        {
          "internalType": "string",
          "name": "description",
          "type": "string"
        },
        {
          "internalType": "uint256",
          "name": "amount",
          "type": "uint256"
        },
        {
          "internalType": "address",
          "name": "token",
          "type": "address"
        },
        {
          "internalType": "bool",
          "name": "travelRuleApplied",
          "type": "bool"
        },
        {
          "internalType": "bytes32",
          "name": "travelRuleDataHash",
          "type": "bytes32"
        },
        {
          "internalType": "uint256",
          "name": "timestamp",
          "type": "uint256"
        },
        {
          "internalType": "uint256",
          "name": "blockNumber",
          "type": "uint256"
        },
        {
          "internalType": "string",
          "name": "jurisdiction",
          "type": "string"
        }
      ],
      "stateMutability": "view",
      "type": "function"
    },
    {
      "inputs": [
        {
          "internalType": "enum AuditRegistry.Severity",
          "name": "",
          "type": "uint8"
        }
      ],
      "name": "entriesBySeverity",
      "outputs": [
        {
          "internalType": "uint256",
          "name": "",
          "type": "uint256"
        }
      ],
      "stateMutability": "view",
      "type": "function"
    },
    {
      "inputs": [
        {
          "internalType": "enum AuditRegistry.EventType",
          "name": "",
          "type": "uint8"
        }
      ],
      "name": "entriesByType",
      "outputs": [
        {
          "internalType": "uint256",
          "name": "",
          "type": "uint256"
        }
      ],
      "stateMutability": "view",
      "type": "function"
    },
    {
      "inputs": [
        {
          "internalType": "address",
          "name": "actor",
          "type": "address"
        },
        {
          "internalType": "uint256",
          "name": "limit",
          "type": "uint256"
        }
      ],
      "name": "getActorAuditTrail",
      "outputs": [
        {
          "components": [
            {
              "internalType": "bytes32",
              "name": "entryId",
              "type": "bytes32"
            },
            {
              "internalType": "bytes32",
              "name": "paymentId",
              "type": "bytes32"
            },
            {
              "internalType": "enum AuditRegistry.EventType",
              "name": "eventType",
              "type": "uint8"
            },
            {
              "internalType": "enum AuditRegistry.Severity",
              "name": "severity",
              "type": "uint8"
            },
            {
              "internalType": "address",
              "name": "actor",
              "type": "address"
            },
            {
              "internalType": "address",
              "name": "subject",
              "type": "address"
            },
            {
              "internalType": "bytes32",
              "name": "dataHash",
              "type": "bytes32"
            },
            {
              "internalType": "string",
              "name": "description",
              "type": "string"
            },
            {
              "internalType": "uint256",
              "name": "amount",
              "type": "uint256"
            },
            {
              "internalType": "address",
              "name": "token",
              "type": "address"
            },
            {
              "internalType": "bool",
              "name": "travelRuleApplied",
              "type": "bool"
            },
            {
              "internalType": "bytes32",
              "name": "travelRuleDataHash",
              "type": "bytes32"
            },
            {
              "internalType": "uint256",
              "name": "timestamp",
              "type": "uint256"
            },
            {
              "internalType": "uint256",
              "name": "blockNumber",
              "type": "uint256"
            },
            {
              "internalType": "string",
              "name": "jurisdiction",
              "type": "string"
            }
          ],
          "internalType": "struct AuditRegistry.AuditEntry[]",
          "name": "",
          "type": "tuple[]"
        }
      ],
      "stateMutability": "view",
      "type": "function"
    },
    {
      "inputs": [
        {
          "internalType": "bytes32",
          "name": "entryId",
          "type": "bytes32"
        }
      ],
      "name": "getEntry",
      "outputs": [
        {
          "components": [
            {
              "internalType": "bytes32",
              "name": "entryId",
              "type": "bytes32"
            },
            {
              "internalType": "bytes32",
              "name": "paymentId",
              "type": "bytes32"
            },
            {
              "internalType": "enum AuditRegistry.EventType",
              "name": "eventType",
              "type": "uint8"
            },
            {
              "internalType": "enum AuditRegistry.Severity",
              "name": "severity",
              "type": "uint8"
            },
            {
              "internalType": "address",
              "name": "actor",
              "type": "address"
            },
            {
              "internalType": "address",
              "name": "subject",
              "type": "address"
            },
            {
              "internalType": "bytes32",
              "name": "dataHash",
              "type": "bytes32"
            },
            {
              "internalType": "string",
              "name": "description",
              "type": "string"
            },
            {
              "internalType": "uint256",
              "name": "amount",
              "type": "uint256"
            },
            {
              "internalType": "address",
              "name": "token",
              "type": "address"
            },
            {
              "internalType": "bool",
              "name": "travelRuleApplied",
              "type": "bool"
            },
            {
              "internalType": "bytes32",
              "name": "travelRuleDataHash",
              "type": "bytes32"
            },
            {
              "internalType": "uint256",
              "name": "timestamp",
              "type": "uint256"
            },
            {
              "internalType": "uint256",
              "name": "blockNumber",
              "type": "uint256"
            },
            {
              "internalType": "string",
              "name": "jurisdiction",
              "type": "string"
            }
          ],
          "internalType": "struct AuditRegistry.AuditEntry",
          "name": "",
          "type": "tuple"
        }
      ],
      "stateMutability": "view",
      "type": "function"
    },
    {
      "inputs": [
        {
          "internalType": "string",
          "name": "jurisdiction",
          "type": "string"
        },
        {
          "internalType": "uint256",
          "name": "fromTimestamp",
          "type": "uint256"
        },
        {
          "internalType": "uint256",
          "name": "toTimestamp",
          "type": "uint256"
        },
        {
          "internalType": "uint256",
          "name": "limit",
          "type": "uint256"
        }
      ],
      "name": "getJurisdictionEntries",
      "outputs": [
        {
          "components": [
            {
              "internalType": "bytes32",
              "name": "entryId",
              "type": "bytes32"
            },
            {
              "internalType": "bytes32",
              "name": "paymentId",
              "type": "bytes32"
            },
            {
              "internalType": "enum AuditRegistry.EventType",
              "name": "eventType",
              "type": "uint8"
            },
            {
              "internalType": "enum AuditRegistry.Severity",
              "name": "severity",
              "type": "uint8"
            },
            {
              "internalType": "address",
              "name": "actor",
              "type": "address"
            },
            {
              "internalType": "address",
              "name": "subject",
              "type": "address"
            },
            {
              "internalType": "bytes32",
              "name": "dataHash",
              "type": "bytes32"
            },
            {
              "internalType": "string",
              "name": "description",
              "type": "string"
            },
            {
              "internalType": "uint256",
              "name": "amount",
              "type": "uint256"
            },
            {
              "internalType": "address",
              "name": "token",
              "type": "address"
            },
            {
              "internalType": "bool",
              "name": "travelRuleApplied",
              "type": "bool"
            },
            {
              "internalType": "bytes32",
              "name": "travelRuleDataHash",
              "type": "bytes32"
            },
            {
              "internalType": "uint256",
              "name": "timestamp",
              "type": "uint256"
            },
            {
              "internalType": "uint256",
              "name": "blockNumber",
              "type": "uint256"
            },
            {
              "internalType": "string",
              "name": "jurisdiction",
              "type": "string"
            }
          ],
          "internalType": "struct AuditRegistry.AuditEntry[]",
          "name": "",
          "type": "tuple[]"
        }
      ],
      "stateMutability": "view",
      "type": "function"
    },
    {
      "inputs": [
        {
          "internalType": "bytes32",
          "name": "paymentId",
          "type": "bytes32"
        }
      ],
      "name": "getPaymentAuditTrail",
      "outputs": [
        {
          "components": [
            {
              "internalType": "bytes32",
              "name": "entryId",
              "type": "bytes32"
            },
            {
              "internalType": "bytes32",
              "name": "paymentId",
              "type": "bytes32"
            },
            {
              "internalType": "enum AuditRegistry.EventType",
              "name": "eventType",
              "type": "uint8"
            },
            {
              "internalType": "enum AuditRegistry.Severity",
              "name": "severity",
              "type": "uint8"
            },
            {
              "internalType": "address",
              "name": "actor",
              "type": "address"
            },
            {
              "internalType": "address",
              "name": "subject",
              "type": "address"
            },
            {
              "internalType": "bytes32",
              "name": "dataHash",
              "type": "bytes32"
            },
            {
              "internalType": "string",
              "name": "description",
              "type": "string"
            },
            {
              "internalType": "uint256",
              "name": "amount",
              "type": "uint256"
            },
            {
              "internalType": "address",
              "name": "token",
              "type": "address"
            },
            {
              "internalType": "bool",
              "name": "travelRuleApplied",
              "type": "bool"
            },
            {
              "internalType": "bytes32",
              "name": "travelRuleDataHash",
              "type": "bytes32"
            },
            {
              "internalType": "uint256",
              "name": "timestamp",
              "type": "uint256"
            },
            {
              "internalType": "uint256",
              "name": "blockNumber",
              "type": "uint256"
            },
            {
              "internalType": "string",
              "name": "jurisdiction",
              "type": "string"
            }
          ],
          "internalType": "struct AuditRegistry.AuditEntry[]",
          "name": "",
          "type": "tuple[]"
        }
      ],
      "stateMutability": "view",
      "type": "function"
    },
    {
      "inputs": [
        {
          "internalType": "bytes32",
          "name": "paymentId",
          "type": "bytes32"
        }
      ],
      "name": "getPaymentTrailLength",
      "outputs": [
        {
          "internalType": "uint256",
          "name": "",
          "type": "uint256"
        }
      ],
      "stateMutability": "view",
      "type": "function"
    },
    {
      "inputs": [
        {
          "internalType": "uint256",
          "name": "count",
          "type": "uint256"
        }
      ],
      "name": "getRecentEntries",
      "outputs": [
        {
          "components": [
            {
              "internalType": "bytes32",
              "name": "entryId",
              "type": "bytes32"
            },
            {
              "internalType": "bytes32",
              "name": "paymentId",
              "type": "bytes32"
            },
            {
              "internalType": "enum AuditRegistry.EventType",
              "name": "eventType",
              "type": "uint8"
            },
            {
              "internalType": "enum AuditRegistry.Severity",
              "name": "severity",
              "type": "uint8"
            },
            {
              "internalType": "address",
              "name": "actor",
              "type": "address"
            },
            {
              "internalType": "address",
              "name": "subject",
              "type": "address"
            },
            {
              "internalType": "bytes32",
              "name": "dataHash",
              "type": "bytes32"
            },
            {
              "internalType": "string",
              "name": "description",
              "type": "string"
            },
            {
              "internalType": "uint256",
              "name": "amount",
              "type": "uint256"
            },
            {
              "internalType": "address",
              "name": "token",
              "type": "address"
            },
            {
              "internalType": "bool",
              "name": "travelRuleApplied",
              "type": "bool"
            },
            {
              "internalType": "bytes32",
              "name": "travelRuleDataHash",
              "type": "bytes32"
            },
            {
              "internalType": "uint256",
              "name": "timestamp",
              "type": "uint256"
            },
            {
              "internalType": "uint256",
              "name": "blockNumber",
              "type": "uint256"
            },
            {
              "internalType": "string",
              "name": "jurisdiction",
              "type": "string"
            }
          ],
          "internalType": "struct AuditRegistry.AuditEntry[]",
          "name": "",
          "type": "tuple[]"
        }
      ],
      "stateMutability": "view",
      "type": "function"
    },
    {
      "inputs": [
        {
          "internalType": "bytes32",
          "name": "role",
          "type": "bytes32"
        }
      ],
      "name": "getRoleAdmin",
      "outputs": [
        {
          "internalType": "bytes32",
          "name": "",
          "type": "bytes32"
        }
      ],
      "stateMutability": "view",
      "type": "function"
    },
    {
      "inputs": [],
      "name": "getStatistics",
      "outputs": [
        {
          "internalType": "uint256",
          "name": "total",
          "type": "uint256"
        },
        {
          "internalType": "uint256",
          "name": "payments",
          "type": "uint256"
        },
        {
          "internalType": "uint256",
          "name": "compliance",
          "type": "uint256"
        },
        {
          "internalType": "uint256",
          "name": "alerts",
          "type": "uint256"
        }
      ],
      "stateMutability": "view",
      "type": "function"
    },
    {
      "inputs": [
        {
          "internalType": "bytes32",
          "name": "role",
          "type": "bytes32"
        },
        {
          "internalType": "address",
          "name": "account",
          "type": "address"
        }
      ],
      "name": "grantRole",
      "outputs": [],
      "stateMutability": "nonpayable",
      "type": "function"
    },
    {
      "inputs": [
        {
          "internalType": "bytes32",
          "name": "role",
          "type": "bytes32"
        },
        {
          "internalType": "address",
          "name": "account",
          "type": "address"
        }
      ],
      "name": "hasRole",
      "outputs": [
        {
          "internalType": "bool",
          "name": "",
          "type": "bool"
        }
      ],
      "stateMutability": "view",
      "type": "function"
    },
    {
      "inputs": [
        {
          "internalType": "string",
          "name": "",
          "type": "string"
        },
        {
          "internalType": "uint256",
          "name": "",
          "type": "uint256"
        }
      ],
      "name": "jurisdictionTrail",
      "outputs": [
        {
          "internalType": "bytes32",
          "name": "",
          "type": "bytes32"
        }
      ],
      "stateMutability": "view",
      "type": "function"
    },
    {
      "inputs": [
        {
          "internalType": "bytes32",
          "name": "paymentId",
          "type": "bytes32"
        },
        {
          "internalType": "address",
          "name": "entity",
          "type": "address"
        },
        {
          "internalType": "bool",
          "name": "passed",
          "type": "bool"
        },
        {
          "internalType": "string",
          "name": "reason",
          "type": "string"
        },
        {
          "internalType": "string",
          "name": "jurisdiction",
          "type": "string"
        }
      ],
      "name": "logComplianceCheck",
      "outputs": [
        {
          "internalType": "bytes32",
          "name": "",
          "type": "bytes32"
        }
      ],
      "stateMutability": "nonpayable",
      "type": "function"
    },
    {
      "inputs": [
        {
          "internalType": "bytes32",
          "name": "paymentId",
          "type": "bytes32"
        },
        {
          "internalType": "enum AuditRegistry.EventType",
          "name": "eventType",
          "type": "uint8"
        },
        {
          "internalType": "enum AuditRegistry.Severity",
          "name": "severity",
          "type": "uint8"
        },
        {
          "internalType": "address",
          "name": "actor",
          "type": "address"
        },
        {
          "internalType": "address",
          "name": "subject",
          "type": "address"
        },
        {
          "internalType": "bytes32",
          "name": "dataHash",
          "type": "bytes32"
        },
        {
          "internalType": "string",
          "name": "description",
          "type": "string"
        },
        {
          "internalType": "uint256",
          "name": "amount",
          "type": "uint256"
        },
        {
          "internalType": "address",
          "name": "token",
          "type": "address"
        },
        {
          "internalType": "string",
          "name": "jurisdiction",
          "type": "string"
        }
      ],
      "name": "logEntry",
      "outputs": [
        {
          "internalType": "bytes32",
          "name": "entryId",
          "type": "bytes32"
        }
      ],
      "stateMutability": "nonpayable",
      "type": "function"
    },
    {
      "inputs": [
        {
          "internalType": "bytes32",
          "name": "paymentId",
          "type": "bytes32"
        },
        {
          "internalType": "address",
          "name": "sender",
          "type": "address"
        },
        {
          "internalType": "address",
          "name": "recipient",
          "type": "address"
        },
        {
          "internalType": "uint256",
          "name": "amount",
          "type": "uint256"
        },
        {
          "internalType": "address",
          "name": "token",
          "type": "address"
        },
        {
          "internalType": "string",
          "name": "jurisdiction",
          "type": "string"
        }
      ],
      "name": "logPaymentCreated",
      "outputs": [
        {
          "internalType": "bytes32",
          "name": "",
          "type": "bytes32"
        }
      ],
      "stateMutability": "nonpayable",
      "type": "function"
    },
    {
      "inputs": [
        {
          "internalType": "bytes32",
          "name": "paymentId",
          "type": "bytes32"
        },
        {
          "internalType": "address",
          "name": "sender",
          "type": "address"
        },
        {
          "internalType": "address",
          "name": "recipient",
          "type": "address"
        },
        {
          "internalType": "uint256",
          "name": "amount",
          "type": "uint256"
        },
        {
          "internalType": "address",
          "name": "token",
          "type": "address"
        },
        {
          "internalType": "uint256",
          "name": "settlementTime",
          "type": "uint256"
        },
        {
          "internalType": "string",
          "name": "jurisdiction",
          "type": "string"
        }
      ],
      "name": "logPaymentExecuted",
      "outputs": [
        {
          "internalType": "bytes32",
          "name": "",
          "type": "bytes32"
        }
      ],
      "stateMutability": "nonpayable",
      "type": "function"
    },
    {
      "inputs": [
        {
          "internalType": "bytes32",
          "name": "paymentId",
          "type": "bytes32"
        },
        {
          "internalType": "bytes32",
          "name": "travelRuleDataHash",
          "type": "bytes32"
        },
        {
          "internalType": "address",
          "name": "sender",
          "type": "address"
        },
        {
          "internalType": "address",
          "name": "recipient",
          "type": "address"
        },
        {
          "internalType": "uint256",
          "name": "amount",
          "type": "uint256"
        },
        {
          "internalType": "string",
          "name": "jurisdiction",
          "type": "string"
        }
      ],
      "name": "logTravelRule",
      "outputs": [
        {
          "internalType": "bytes32",
          "name": "entryId",
          "type": "bytes32"
        }
      ],
      "stateMutability": "nonpayable",
      "type": "function"
    },
    {
      "inputs": [
        {
          "internalType": "bytes32",
          "name": "",
          "type": "bytes32"
        },
        {
          "internalType": "uint256",
          "name": "",
          "type": "uint256"
        }
      ],
      "name": "paymentAuditTrail",
      "outputs": [
        {
          "internalType": "bytes32",
          "name": "",
          "type": "bytes32"
        }
      ],
      "stateMutability": "view",
      "type": "function"
    },
    {
      "inputs": [
        {
          "internalType": "bytes32",
          "name": "role",
          "type": "bytes32"
        },
        {
          "internalType": "address",
          "name": "callerConfirmation",
          "type": "address"
        }
      ],
      "name": "renounceRole",
      "outputs": [],
      "stateMutability": "nonpayable",
      "type": "function"
    },
    {
      "inputs": [
        {
          "internalType": "address",
          "name": "logger",
          "type": "address"
        }
      ],
      "name": "revokeLogger",
      "outputs": [],
      "stateMutability": "nonpayable",
      "type": "function"
    },
    {
      "inputs": [
        {
          "internalType": "bytes32",
          "name": "role",
          "type": "bytes32"
        },
        {
          "internalType": "address",
          "name": "account",
          "type": "address"
        }
      ],
      "name": "revokeRole",
      "outputs": [],
      "stateMutability": "nonpayable",
      "type": "function"
    },
    {
      "inputs": [
        {
          "internalType": "bytes4",
          "name": "interfaceId",
          "type": "bytes4"
        }
      ],
      "name": "supportsInterface",
      "outputs": [
        {
          "internalType": "bool",
          "name": "",
          "type": "bool"
        }
      ],
      "stateMutability": "view",
      "type": "function"
    },
    {
      "inputs": [],
      "name": "totalEntries",
      "outputs": [
        {
          "internalType": "uint256",
          "name": "",
          "type": "uint256"
        }
      ],
      "stateMutability": "view",
      "type": "function"
    },
    {
      "inputs": [
        {
          "internalType": "enum AuditRegistry.EventType",
          "name": "",
          "type": "uint8"
        },
        {
          "internalType": "uint256",
          "name": "",
          "type": "uint256"
        }
      ],
      "name": "typeAuditTrail",
      "outputs": [
        {
          "internalType": "bytes32",
          "name": "",
          "type": "bytes32"
        }
      ],
      "stateMutability": "view",
      "type": "function"
    }
  ],
  "transactionHash": "0xc009027cf7126bf8bb69f82ca5bfc25357656847392c49215285193420b6897f",
  "args": [],
  "numDeployments": 1,
  "solcInputHash": "c67737e51f0b406cca842b1a124d52ef",
  "bytecode": "0x6080604052346200005b5760018055620000193362000060565b506200002533620000e0565b50620000313362000182565b5033600052600b6020526040600020600160ff19825416179055604051612a579081620002208239f35b600080fd5b6001600160a01b031660008181527fad3228b676f7d3cd4284a5443f17f1962b36e491b30a40b2405849e597ba5fb5602052604081205490919060ff16620000dc57818052816020526040822081835260205260408220600160ff19825416179055339160008051602062002c778339815191528180a4600190565b5090565b6001600160a01b031660008181527f0d2d6a5d08cb5d871289c0a3ca855d9da72909a111c24cce2d5c2b34a20daa5460205260408120549091907f59a1c48e5837ad7a7f3dcedcbe129bf3249ec4fbf651fd4f5e2600ead39fe2f59060ff166200017d57808352826020526040832082845260205260408320600160ff1982541617905560008051602062002c77833981519152339380a4600190565b505090565b6001600160a01b031660008181527fd8cf6215e7466afcb715ec96a93271b97aec07e71364c661cd11599c488bf79a60205260408120549091907f566c814873eed56a69b28c40ab27cc2cb150d74068bae3e884ccd44f8de60f8a9060ff166200017d57808352826020526040832082845260205260408320600160ff1982541617905560008051602062002c77833981519152339380a460019056fe608080604052600436101561001357600080fd5b60003560e01c90816301ffc9a714611e3057508063191d928114611cb75780631c06801e14611839578063248a9ca31461180a57806325fb19881461142a578063267b6922146113115780632801e43a146112d25780632f2ff15d14611293578063315ad8c41461126b57806335e5216a1461123257806336568abe146111eb578063372d6b271461114a578063467e5c741461111e578063469d273014610e7f5780636e1d616e14610e445780637bf0fbde14610e1b5780637e5ada9414610ddd5780637fef036e14610dbf5780638815ff5114610d7557806390252a2914610c9857806391d1485414610c4b5780639a5e4eb414610c02578063a0b29bb814610854578063a217fddf14610838578063aae4fdae146107ae578063ad6ded031461041d578063b16b1e2d146103d4578063bcfa3f3014610388578063c2b0ad4b146102cd578063c687524914610295578063c7ce257e14610264578063d547741f146102235763e084d4331461018a57600080fd5b3461021e5760208060031936011261021e57600435600052600481526040600020908154906101b88261281c565b9260005b8381106101d557604051806101d18782611fff565b0390f35b806101e36102199284612287565b90549060031b1c600052600284526101fe6040600020612880565b610208828861286c565b52610213818761286c565b5061267c565b6101bc565b600080fd5b3461021e57604036600319011261021e5761026260043561024261208d565b9080600052600060205261025d60016040600020015461239a565b612518565b005b3461021e57602036600319011261021e57600435600481101561021e5761028c6020916122f1565b54604051908152f35b3461021e57602036600319011261021e5760043560035481101561021e576102be602091612256565b90549060031b1c604051908152f35b3461021e5760208060031936011261021e57600380549160043583811115610382575082905b6102fc8261281c565b92600080198601958611905b84811061031d57604051806101d18882611fff565b8161036c5780610338610333610367938a6126ac565b612256565b905490851b1c600052600285526103526040600020612880565b61035c828961286c565b52610213818861286c565b610308565b634e487b7160e01b600052601160045260246000fd5b906102f3565b3461021e57602036600319011261021e576102626103a46120b9565b6103ac612360565b6001600160a01b0381166000908152600b60205260409020805460ff191660011790556123c0565b3461021e57602036600319011261021e576102626103f06120b9565b6103f8612360565b6001600160a01b0381166000908152600b60205260409020805460ff191690556124a3565b3461021e5760c036600319011261021e5760043561043961208d565b906104426120a3565b9061044b612077565b6001600160401b039390929060a43585811161021e5761046f903690600401611e83565b95909461047a61230a565b6104af6040519661048a88612125565b600f88526020986e14185e5b595b9d0818dc99585d1959608a1b8a8a015236916122ba565b91600854604051898101918883526000604083015260018060601b03198760601b1660418301524260558301526075820152607581526104ee81612140565b51902096876000526002895260406000208881556001938885830155610520876002840161ffff19815416815561259a565b6003820180546001600160a01b03199081166001600160a01b039a8b16179091556064356006840155600783018054909116918916919091179055815160058201908481116107255761057d8161057784546120cf565b846125d8565b8b8c601f831160011461074657508190600b9560009261073b575b5050600019600383901b1c191690861b1790555b42600982015543600a82015501928051918211610725576105d7826105d186546120cf565b866125d8565b8890601f83116001146106c2579282939183926000946106b7575b50501b916000199060031b1c19161790555b61060d8461261d565b826000526004855261062384604060002061265a565b1690816000526005845261063b83604060002061265a565b600080526006845261065183604060002061265a565b61065c60085461267c565b60085560008052600984526040600020610676815461267c565b905560008052600a8452604060002061068f815461267c565b905582600080516020612a0283398151915260408051600081524288820152a4604051908152f35b015192508a806105f2565b90601f1983169185600052838b6000209360005b8d8883831061070e57505050106106f5575b505050811b019055610604565b015160001960f88460031b161c191690558880806106e8565b8686015188559096019594850194879350016106d6565b634e487b7160e01b600052604160045260246000fd5b015190508d80610598565b879291601f1983168560005282600020926000905b8282106107955750509683600b981061077c575b505050811b0190556105ac565b015160001960f88460031b161c191690558d808061076f565b838a015185558b9690940193928301929081019061075b565b3461021e57604036600319011261021e576004356001600160401b03811161021e573660238201121561021e576107ef9036906024816004013591016122ba565b61080b6020602435928160405193828580945193849201611ee0565b81016007815203019020805482101561021e5760209161082a91612287565b90546040519160031b1c8152f35b3461021e57600036600319011261021e57602060405160008152f35b3461021e5760a036600319011261021e5761086d61208d565b60443590811515820361021e576001600160401b039060643582811161021e5761089b903690600401611e83565b90936084359084821161021e576108d76108bc6108df933690600401611e83565b9790926108c761230a565b15610bfa576000945b36916122ba565b9536916122ba565b9360085460405160208101916004358352600360f91b604083015260018060601b03198660601b16604183015242605583015260758201526075815261092481612140565b5190209384600052600260205260406000209185835560043560018401556109648560028501600660ff1982541617815561095f878261257b565b61259a565b6003830180546001600160a01b03199081166001600160a01b03881617909155600060068501556007840180549091169055805160058401918382116107255781906109b4826105d186546120cf565b602090601f8311600114610b9457600092610b89575b50508160011b916000199060031b1c19161790555b42600983015543600a830155855190811161072557602095610a1182610a08600b8601546120cf565b600b86016125d8565b8690601f8311600114610b16579180600b92610aca969594600092610b0b575b50508160011b916000199060031b1c1916179101555b610a508461261d565b60043560005260048552610a6884604060002061265a565b60018060a01b03831660005260058552610a8684604060002061265a565b600660005260068552610a9d84604060002061265a565b610aa860085461267c565b6008556006600052600985526040600020610ac3815461267c565b90556122f1565b610ad4815461267c565b90556040519060068252428483015260018060a01b03169082600080516020612a02833981519152604060043593a4604051908152f35b015190508980610a31565b90600b8401600052876000209160005b601f1985168110610b72575092600b92600192610aca97969583601f19811610610b59575b505050811b01910155610a47565b015160001960f88460031b161c19169055898080610b4b565b919289600181928685015181550194019201610b26565b0151905089806109ca565b6000858152602081209350601f198516905b818110610be25750908460019594939210610bc9575b505050811b0190556109df565b015160001960f88460031b161c19169055898080610bbc565b92936020600181928786015181550195019301610ba6565b6001946108d0565b3461021e57602036600319011261021e57610c1b6127ae565b5060043560005260026020526101d1610c376040600020612880565b604051918291602083526020830190611f28565b3461021e57604036600319011261021e57610c6461208d565b600435600052600060205260406000209060018060a01b0316600052602052602060ff604060002054166040519015158152f35b3461021e57604036600319011261021e57610cb16120b9565b6001600160a01b0316600090815260056020908152604090912080546024929091833580841115610d6e57925b610ce78461281c565b94600019820191821160005b868110610d0857604051806101d18a82611fff565b81610d595780610d24610d1e610d5493876126ac565b87612287565b90549060031b1c60005260028752610d3f6040600020612880565b610d49828b61286c565b52610213818a61286c565b610cf3565b82634e487b7160e01b60005260116004526000fd5b5082610cde565b3461021e57604036600319011261021e57610d8e6120b9565b6001600160a01b031660009081526005602052604090208054602435919082101561021e5760209161082a91612287565b3461021e57600036600319011261021e576020600854604051908152f35b3461021e57604036600319011261021e57600435601081101561021e57610e0660243591612224565b805482101561021e5760209161082a91612287565b3461021e57600036600319011261021e5760206040516000805160206129c28339815191528152f35b3461021e57600036600319011261021e5760206040517f59a1c48e5837ad7a7f3dcedcbe129bf3249ec4fbf651fd4f5e2600ead39fe2f58152f35b3461021e5760c036600319011261021e57602435600435610e9e6120a3565b610ea6612061565b6001600160401b039390929060a43585811161021e57610eca903690600401611e83565b9190610ed461230a565b6040519660209788810190868252600360f91b60408201528460418201524260618201526061815260a081018181108482111761072557604052519020958660005260028952604060002097878955610f4360019288848c015560028b01600661ffff1982541617815561259a565b6003890180546001600160a01b0319166001600160a01b03909216919091179055608435600689015560078801805460ff60a01b1916600160a01b1790556008880184905542600989015543600a890155600b880191851161072557610fad8561057784546120cf565b6000601f86116001146110a3579761106c939286806005946000805160206129a28339815191529a9b9c600093611098575b501b906000198960031b1c19161790555b01610ffb81546120cf565b601f8111611077575b50603278151c985d995b08149d5b194819185d18481c9958dbdc991959603a1b0190556110308761261d565b856000526004885261104687604060002061265a565b61105160085461267c565b6008556040519384938452604089850152604084019161268b565b0390a2604051908152f35b6110929082600052601f8b600020910160051c8101906125c1565b89611004565b87013592508e610fdf565b601f19861690836000528a6000209160005b8c82821061110a575050926000805160206129a283398151915298999a9261106c96959289600596106110f0575b505087811b019055610ff0565b86013560001960038b901b60f8161c191690558c806110e3565b8784013585559385019392830192016110b5565b3461021e57602036600319011261021e5760043560005260046020526020604060002054604051908152f35b3461021e57600036600319011261021e576008547f6cde3cea4b3a3fb2488b2808bae7556f4a405e50f65e1794383bc026131b13c3547fbb6daa0c283751197dfdc76590680f9005e97d6f23870deb1164ab60b28b9f5f546003600052600a60209081527fa856840544dc26124927add067d799967eac11be13e14d82cc281ea46fa397595460408051958652918501939093528301526060820152608090f35b3461021e57604036600319011261021e5761120461208d565b336001600160a01b038216036112205761026290600435612518565b60405163334bd91960e11b8152600490fd5b3461021e57604036600319011261021e5760243560043560005260046020526040600020805482101561021e5760209161082a91612287565b3461021e57602036600319011261021e57600435601081101561021e5761028c60209161223d565b3461021e57604036600319011261021e576102626004356112b261208d565b908060005260006020526112cd60016040600020015461239a565b61243c565b3461021e57602036600319011261021e576001600160a01b036112f36120b9565b16600052600b602052602060ff604060002054166040519015158152f35b3461021e57602036600319011261021e57600435600052600260205260406000208054600182015491600281015490600160a01b6001900390816003820154166004820154600583016113639061217e565b60068401549460078501549160088601549360098701549583600a89015498600b0161138e9061217e565b9a6040519d8e809e81526020015260408d0160ff8216906113ae91611eb0565b6113c260608e0160ff600884901c16611ed3565b60101c1660808c015260a08b015260c08a01526101e08060e08b015289016113e991611f03565b95610100890152811661012088015260a01c60ff1615156101408701526101608601526101808501526101a08401528281036101c08401526101d191611f03565b3461021e5760e036600319011261021e5761144361208d565b61144b6120a3565b90611454612077565b60c435929091906001600160401b0380851161021e5761147b611502953690600401611e83565b959061148561230a565b61149060a4356126b9565b966108d0604b604051809a7f5061796d656e742065786563757465642e20536574746c656d656e742074696d6020830152620329d160ed1b60408301526114e1815180926020604386019101611ee0565b810167207365636f6e647360c01b604382015203602b81018b52018961215b565b9460085460405160208101916004358352600160f91b604083015260018060601b03198760601b16604183015242605583015260758201526075815261154781612140565b51902094856000526002602052604060002093868555600435600186015561157e8660028701600261ffff1982541617815561259a565b6003850180546001600160a01b039283166001600160a01b0319918216179091556064356006870155600786018054939092169216919091179055805160058401918382116107255781906115d7826105d186546120cf565b602090601f83116001146117a457600092611799575b50508160011b916000199060031b1c19161790555b42600983015543600a83015584519081116107255760209461162b82610a08600b8601546120cf565b8590601f831160011461172b57600b929160009183611720575b50508160011b916000199060031b1c1916179101555b6116648261261d565b6004356000526004835261167c82604060002061265a565b6001600160a01b03166000818152600584526040902061169d90839061265a565b6002600052600683526116b482604060002061265a565b6116bf60085461267c565b60085560026000526009835260406000206116da815461267c565b905560008052600a835260406000206116f3815461267c565b905560405160028152428482015282600080516020612a02833981519152604060043593a4604051908152f35b015190508780611645565b90600b8401600052866000209160005b601f19851681106117825750918391600193600b95601f19811610611769575b505050811b0191015561165b565b015160001960f88460031b161c1916905587808061175b565b91928860018192868501518155019401920161173b565b0151905088806115ed565b6000858152602081209350601f198516905b8181106117f257509084600195949392106117d9575b505050811b019055611602565b015160001960f88460031b161c191690558880806117cc565b929360206001819287860151815501950193016117b6565b3461021e57602036600319011261021e5760043560005260006020526020600160406000200154604051908152f35b3461021e5761014036600319011261021e576010602435101561021e576004604435101561021e57611869612061565b611871612077565b9060c4356001600160401b03811161021e57611891903690600401611e83565b61010435916001600160a01b038316830361021e57610124356001600160401b03811161021e576118c6903690600401611e83565b906118cf61230a565b60085460405190600435602083015260243560f81b604083015260018060601b03198860601b16604183015242605583015260758201526075815261191381612140565b602081519101209485600052600260205260406000209786895560043560018a01556119588860028b0160ff1981541660ff6024351617815561095f6044358261257b565b6003890180546001600160a01b0319166001600160a01b0390921691909117905560a43560048901556001600160401b038511610725576119a9856119a060058b01546120cf565b60058b016125d8565b846000601f8211600114611c4957600091611c3e575b508560011b906000198760031b1c19161760058901555b60e43560068901556007880180546001600160a01b0319166001600160a01b0390921691909117905542600988015543600a8801556001600160401b0382116107255786611a3683611a2d600b60209b01546120cf565b600b84016125d8565b6000601f8411600114611bcc5796869791600b8589989994600091611bc1575b508660011b906000198860031b1c1916179101555b611a748261261d565b60043560005260048952611a8c82604060002061265a565b60018060a01b0316928360005260058952611aab82604060002061265a565b611abf82611aba602435612224565b61265a565b80611b9c575b505050611ad360085461267c565b600855611ae160243561223d565b611aeb815461267c565b9055611af86044356122f1565b611b02815461267c565b9055604051611b1381602435611eb0565b428782015283600080516020612a02833981519152604060043593a460026044351015611b46575b505050604051908152f35b611b917f25dc2490677395f9de14615a9823273397a5db49b97677c00fa9fdf01dbe952991604051918291611b7d83604435611ed3565b60408984015260043596604084019161268b565b0390a3828181611b3b565b88611bb9938260405193849283378101600781520301902061265a565b868381611ac5565b90508501358c611a56565b600b8201600052886000209060005b601f1986168110611c275750918798918897989386601f19811610611c0d575b5050600b600186811b01910155611a6b565b850135600019600388901b60f8161c191690558a80611bfb565b90918a600181928588013581550193019101611bdb565b9050840135896119bf565b90506005890160005260206000209060005b601f1988168110611c9f575086601f19811610611c85575b5050600185811b0160058901556119d6565b850135600019600388901b60f8161c191690558880611c73565b9091602060018192858a013581550193019101611c5b565b3461021e57608036600319011261021e576004356001600160401b03811161021e57611ce7903690600401611e83565b9060243560443590606435928460405195869283378101600781526020958691030190209160009260008154905b81811080611e27575b15611d8557611d2d8184612287565b90549060031b1c6000526002885260096040600020015484868210159182611d7a575b5050611d65575b611d609061267c565b611d15565b94611d72611d609161267c565b959050611d57565b11159050848a611d50565b509450909291611d948361281c565b9160009360005b87811080611e1e575b15611e1057611db38184612287565b90549060031b1c600052600289526040600020600981015488868210159182611e05575b5050611ded575b50611de89061267c565b611d9b565b611de89196610352611dfe92612880565b9590611dde565b11159050888c611dd7565b604051806101d18782611fff565b50818610611da4565b50868610611d1e565b3461021e57602036600319011261021e576004359063ffffffff60e01b821680920361021e57602091637965db0b60e01b8114908115611e72575b5015158152f35b6301ffc9a760e01b14905083611e6b565b9181601f8401121561021e578235916001600160401b03831161021e576020838186019501011161021e57565b906010821015611ebd5752565b634e487b7160e01b600052602160045260246000fd5b906004821015611ebd5752565b60005b838110611ef35750506000910152565b8181015183820152602001611ee3565b90602091611f1c81518092818552858086019101611ee0565b601f01601f1916010190565b90611ffc918051825260208101516020830152611f4d60408201516040840190611eb0565b611f5f60608201516060840190611ed3565b60018060a01b03918260808301511660808201528260a08301511660a082015260c082015160c0820152611fa260e08301516101e08060e0850152830190611f03565b9261010080840151908301526101209081840151169082015261014080830151151590820152610160808301519082015261018080830151908201526101a080830151908201526101c08092015191818403910152611f03565b90565b602080820190808352835180925260408301928160408460051b8301019501936000915b8483106120335750505050505090565b9091929394958480612051600193603f198682030187528a51611f28565b9801930193019194939290612023565b606435906001600160a01b038216820361021e57565b608435906001600160a01b038216820361021e57565b602435906001600160a01b038216820361021e57565b604435906001600160a01b038216820361021e57565b600435906001600160a01b038216820361021e57565b90600182811c921680156120ff575b60208310146120e957565b634e487b7160e01b600052602260045260246000fd5b91607f16916120de565b6101e081019081106001600160401b0382111761072557604052565b604081019081106001600160401b0382111761072557604052565b60a081019081106001600160401b0382111761072557604052565b601f909101601f19168101906001600160401b0382119082101761072557604052565b9060405191826000825492612192846120cf565b90818452600194858116908160001461220157506001146121be575b50506121bc9250038361215b565b565b9093915060005260209081600020936000915b8183106121e95750506121bc935082010138806121ae565b855488840185015294850194879450918301916121d1565b9150506121bc94506020925060ff191682840152151560051b82010138806121ae565b6010811015611ebd576000526006602052604060002090565b6010811015611ebd576000526009602052604060002090565b60035481101561227157600360005260206000200190600090565b634e487b7160e01b600052603260045260246000fd5b80548210156122715760005260206000200190600090565b6001600160401b03811161072557601f01601f191660200190565b9291926122c68261229f565b916122d4604051938461215b565b82948184528183011161021e578281602093846000960137010152565b6004811015611ebd57600052600a602052604060002090565b33600090815260008051602061298283398151915260205260409020546000805160206129c28339815191529060ff16156123425750565b6044906040519063e2517d3f60e01b82523360048301526024820152fd5b3360009081527fad3228b676f7d3cd4284a5443f17f1962b36e491b30a40b2405849e597ba5fb5602052604081205460ff16156123425750565b80600052600060205260406000203360005260205260ff60406000205416156123425750565b6001600160a01b0316600081815260008051602061298283398151915260205260408120549091906000805160206129c28339815191529060ff1661243757808352826020526040832082845260205260408320600160ff19825416179055600080516020612962833981519152339380a4600190565b505090565b9060009180835282602052604083209160018060a01b03169182845260205260ff6040842054161560001461243757808352826020526040832082845260205260408320600160ff19825416179055600080516020612962833981519152339380a4600190565b6001600160a01b0316600081815260008051602061298283398151915260205260408120549091906000805160206129c28339815191529060ff16156124375780835282602052604083208284526020526040832060ff1981541690556000805160206129e2833981519152339380a4600190565b9060009180835282602052604083209160018060a01b03169182845260205260ff6040842054166000146124375780835282602052604083208284526020526040832060ff1981541690556000805160206129e2833981519152339380a4600190565b906004811015611ebd5761ff0082549160081b169061ff001916179055565b805462010000600160b01b03191660109290921b62010000600160b01b0316919091179055565b8181106125cc575050565b600081556001016125c1565b9190601f81116125e757505050565b6121bc926000526020600020906020601f840160051c83019310612613575b601f0160051c01906125c1565b9091508190612606565b600354600160401b8110156107255761263f8160016126569301600355612256565b819391549060031b91821b91600019901b19161790565b9055565b805490600160401b821015610725578161263f91600161265694018155612287565b600019811461036c5760010190565b908060209392818452848401376000828201840152601f01601f1916010190565b9190820391821161036c57565b80156127795780816000925b6127655750806126d48361229f565b926126e2604051948561215b565b808452601f196126f18261229f565b01366020860137915b61270357505090565b60001982019180831161036c5782600a908184049382850292858404148515171561036c5761273560ff9384926126ac565b1660300191821161036c57855111156122715760f81b6001600160f81b03191660001a908401601f0153806126fa565b91612771600a9161267c565b9204806126c5565b5060405161278681612125565b60018152600360fc1b602082015290565b6001600160401b0381116107255760051b60200190565b604051906127bb82612109565b60606101c083600080825280602083015280604083015280848301528060808301528060a08301528060c08301528360e083015280610100830152806101208301528061014083015280610160830152806101808301526101a08201520152565b9061282682612797565b612833604051918261215b565b8281528092612844601f1991612797565b019060005b82811061285557505050565b6020906128606127ae565b82828501015201612849565b80518210156122715760209160051b010190565b9060405161288d81612109565b80928054825260018101546020830152600281015460ff81166010811015611ebd57604084015260ff8160081c16906004821015611ebd576101c09260ff600b9261295c94606088015260018060a01b03809160101c1660808801528060038401541660a0880152600483015460c088015261290b6005840161217e565b60e08801526006830154610100880152600783015490811661012088015260a01c16151561014086015260088101546101608601526009810154610180860152600a8101546101a08601520161217e565b91015256fe2f8788117e7eff1d82e926ec794901d17c78024a50270940304540a733656f0dd8cf6215e7466afcb715ec96a93271b97aec07e71364c661cd11599c488bf79ab57e50bbf07b74d278762adbef7f27787b84b1ab7d6b6faabc9563afbe969a22566c814873eed56a69b28c40ab27cc2cb150d74068bae3e884ccd44f8de60f8af6391f5c32d9c69d2a47ea670b442974b53935d1edc7fd64eb21e047a839171b4272bd012bf38ee40734003d73abac15b4c1525a8b926dd64024b78e62ea6976a264697066735822122087e9f86c7dcc52e78209f564b88bf13da974b0b0a6dd3d4c17dc7b1f2f37919c64736f6c634300081400332f8788117e7eff1d82e926ec794901d17c78024a50270940304540a733656f0d",
  "devdoc": {
    "details": "Creates tamper-proof records for regulatory compliance and reporting  KEY FEATURES: - Immutable event logging - Regulatory-grade audit trails - Travel Rule compliance records - Multi-jurisdictional reporting - Batch querying for compliance reports",
    "errors": {
      "AccessControlBadConfirmation()": [
        {
          "details": "The caller of a function is not the expected one. NOTE: Don't confuse with {AccessControlUnauthorizedAccount}."
        }
      ],
      "AccessControlUnauthorizedAccount(address,bytes32)": [
        {
          "details": "The `account` is missing a role."
        }
      ],
      "ReentrancyGuardReentrantCall()": [
        {
          "details": "Unauthorized reentrant call."
        }
      ]
    },
    "events": {
      "RoleAdminChanged(bytes32,bytes32,bytes32)": {
        "details": "Emitted when `newAdminRole` is set as ``role``'s admin role, replacing `previousAdminRole` `DEFAULT_ADMIN_ROLE` is the starting admin for all roles, despite {RoleAdminChanged} not being emitted signaling this."
      },
      "RoleGranted(bytes32,address,address)": {
        "details": "Emitted when `account` is granted `role`. `sender` is the account that originated the contract call, an admin role bearer except when using {AccessControl-_setupRole}."
      },
      "RoleRevoked(bytes32,address,address)": {
        "details": "Emitted when `account` is revoked `role`. `sender` is the account that originated the contract call:   - if using `revokeRole`, it is the admin role bearer   - if using `renounceRole`, it is the role bearer (i.e. `account`)"
      }
    },
    "kind": "dev",
    "methods": {
      "getRoleAdmin(bytes32)": {
        "details": "Returns the admin role that controls `role`. See {grantRole} and {revokeRole}. To change a role's admin, use {_setRoleAdmin}."
      },
      "grantRole(bytes32,address)": {
        "details": "Grants `role` to `account`. If `account` had not been already granted `role`, emits a {RoleGranted} event. Requirements: - the caller must have ``role``'s admin role. May emit a {RoleGranted} event."
      },
      "hasRole(bytes32,address)": {
        "details": "Returns `true` if `account` has been granted `role`."
      },
      "renounceRole(bytes32,address)": {
        "details": "Revokes `role` from the calling account. Roles are often managed via {grantRole} and {revokeRole}: this function's purpose is to provide a mechanism for accounts to lose their privileges if they are compromised (such as when a trusted device is misplaced). If the calling account had been revoked `role`, emits a {RoleRevoked} event. Requirements: - the caller must be `callerConfirmation`. May emit a {RoleRevoked} event."
      },
      "revokeRole(bytes32,address)": {
        "details": "Revokes `role` from `account`. If `account` had been granted `role`, emits a {RoleRevoked} event. Requirements: - the caller must have ``role``'s admin role. May emit a {RoleRevoked} event."
      },
      "supportsInterface(bytes4)": {
        "details": "See {IERC165-supportsInterface}."
      }
    },
    "title": "AuditRegistry",
    "version": 1
  },
  "userdoc": {
    "kind": "user",
    "methods": {
      "getActorAuditTrail(address,uint256)": {
        "notice": "Get audit entries for an actor"
      },
      "getEntry(bytes32)": {
        "notice": "Get entry by ID"
      },
      "getJurisdictionEntries(string,uint256,uint256,uint256)": {
        "notice": "Get entries by jurisdiction for regulatory reports"
      },
      "getPaymentAuditTrail(bytes32)": {
        "notice": "Get full audit trail for a payment"
      },
      "getRecentEntries(uint256)": {
        "notice": "Get recent entries"
      },
      "logComplianceCheck(bytes32,address,bool,string,string)": {
        "notice": "Log compliance check"
      },
      "logEntry(bytes32,uint8,uint8,address,address,bytes32,string,uint256,address,string)": {
        "notice": "Log an audit entry"
      },
      "logPaymentCreated(bytes32,address,address,uint256,address,string)": {
        "notice": "Log payment creation"
      },
      "logPaymentExecuted(bytes32,address,address,uint256,address,uint256,string)": {
        "notice": "Log payment execution"
      },
      "logTravelRule(bytes32,bytes32,address,address,uint256,string)": {
        "notice": "Log Travel Rule compliance data"
      }
    },
    "notice": "Immutable regulatory audit trail for institutional payments",
    "version": 1
  },
  "storageLayout": {
    "storage": [
      {
        "astId": 26,
        "contract": "contracts/AuditRegistry.sol:AuditRegistry",
        "label": "_roles",
        "offset": 0,
        "slot": "0",
        "type": "t_mapping(t_bytes32,t_struct(RoleData)21_storage)"
      },
      {
        "astId": 2019,
        "contract": "contracts/AuditRegistry.sol:AuditRegistry",
        "label": "_status",
        "offset": 0,
        "slot": "1",
        "type": "t_uint256"
      },
      {
        "astId": 2206,
        "contract": "contracts/AuditRegistry.sol:AuditRegistry",
        "label": "entries",
        "offset": 0,
        "slot": "2",
        "type": "t_mapping(t_bytes32,t_struct(AuditEntry)2187_storage)"
      },
      {
        "astId": 2209,
        "contract": "contracts/AuditRegistry.sol:AuditRegistry",
        "label": "allEntries",
        "offset": 0,
        "slot": "3",
        "type": "t_array(t_bytes32)dyn_storage"
      },
      {
        "astId": 2214,
        "contract": "contracts/AuditRegistry.sol:AuditRegistry",
        "label": "paymentAuditTrail",
        "offset": 0,
        "slot": "4",
        "type": "t_mapping(t_bytes32,t_array(t_bytes32)dyn_storage)"
      },
      {
        "astId": 2219,
        "contract": "contracts/AuditRegistry.sol:AuditRegistry",
        "label": "actorAuditTrail",
        "offset": 0,
        "slot": "5",
        "type": "t_mapping(t_address,t_array(t_bytes32)dyn_storage)"
      },
      {
        "astId": 2225,
        "contract": "contracts/AuditRegistry.sol:AuditRegistry",
        "label": "typeAuditTrail",
        "offset": 0,
        "slot": "6",
        "type": "t_mapping(t_enum(EventType)2149,t_array(t_bytes32)dyn_storage)"
      },
      {
        "astId": 2230,
        "contract": "contracts/AuditRegistry.sol:AuditRegistry",
        "label": "jurisdictionTrail",
        "offset": 0,
        "slot": "7",
        "type": "t_mapping(t_string_memory_ptr,t_array(t_bytes32)dyn_storage)"
      },
      {
        "astId": 2232,
        "contract": "contracts/AuditRegistry.sol:AuditRegistry",
        "label": "totalEntries",
        "offset": 0,
        "slot": "8",
        "type": "t_uint256"
      },
      {
        "astId": 2237,
        "contract": "contracts/AuditRegistry.sol:AuditRegistry",
        "label": "entriesByType",
        "offset": 0,
        "slot": "9",
        "type": "t_mapping(t_enum(EventType)2149,t_uint256)"
      },
      {
        "astId": 2242,
        "contract": "contracts/AuditRegistry.sol:AuditRegistry",
        "label": "entriesBySeverity",
        "offset": 0,
        "slot": "10",
        "type": "t_mapping(t_enum(Severity)2154,t_uint256)"
      },
      {
        "astId": 2246,
        "contract": "contracts/AuditRegistry.sol:AuditRegistry",
        "label": "authorizedLoggers",
        "offset": 0,
        "slot": "11",
        "type": "t_mapping(t_address,t_bool)"
      }
    ],
    "types": {
      "t_address": {
        "encoding": "inplace",
        "label": "address",
        "numberOfBytes": "20"
      },
      "t_array(t_bytes32)dyn_storage": {
        "base": "t_bytes32",
        "encoding": "dynamic_array",
        "label": "bytes32[]",
        "numberOfBytes": "32"
      },
      "t_bool": {
        "encoding": "inplace",
        "label": "bool",
        "numberOfBytes": "1"
      },
      "t_bytes32": {
        "encoding": "inplace",
        "label": "bytes32",
        "numberOfBytes": "32"
      },
      "t_enum(EventType)2149": {
        "encoding": "inplace",
        "label": "enum AuditRegistry.EventType",
        "numberOfBytes": "1"
      },
      "t_enum(Severity)2154": {
        "encoding": "inplace",
        "label": "enum AuditRegistry.Severity",
        "numberOfBytes": "1"
      },
      "t_mapping(t_address,t_array(t_bytes32)dyn_storage)": {
        "encoding": "mapping",
        "key": "t_address",
        "label": "mapping(address => bytes32[])",
        "numberOfBytes": "32",
        "value": "t_array(t_bytes32)dyn_storage"
      },
      "t_mapping(t_address,t_bool)": {
        "encoding": "mapping",
        "key": "t_address",
        "label": "mapping(address => bool)",
        "numberOfBytes": "32",
        "value": "t_bool"
      },
      "t_mapping(t_bytes32,t_array(t_bytes32)dyn_storage)": {
        "encoding": "mapping",
        "key": "t_bytes32",
        "label": "mapping(bytes32 => bytes32[])",
        "numberOfBytes": "32",
        "value": "t_array(t_bytes32)dyn_storage"
      },
      "t_mapping(t_bytes32,t_struct(AuditEntry)2187_storage)": {
        "encoding": "mapping",
        "key": "t_bytes32",
        "label": "mapping(bytes32 => struct AuditRegistry.AuditEntry)",
        "numberOfBytes": "32",
        "value": "t_struct(AuditEntry)2187_storage"
      },
      "t_mapping(t_bytes32,t_struct(RoleData)21_storage)": {
        "encoding": "mapping",
        "key": "t_bytes32",
        "label": "mapping(bytes32 => struct AccessControl.RoleData)",
        "numberOfBytes": "32",
        "value": "t_struct(RoleData)21_storage"
      },
      "t_mapping(t_enum(EventType)2149,t_array(t_bytes32)dyn_storage)": {
        "encoding": "mapping",
        "key": "t_enum(EventType)2149",
        "label": "mapping(enum AuditRegistry.EventType => bytes32[])",
        "numberOfBytes": "32",
        "value": "t_array(t_bytes32)dyn_storage"
      },
      "t_mapping(t_enum(EventType)2149,t_uint256)": {
        "encoding": "mapping",
        "key": "t_enum(EventType)2149",
        "label": "mapping(enum AuditRegistry.EventType => uint256)",
        "numberOfBytes": "32",
        "value": "t_uint256"
      },
      "t_mapping(t_enum(Severity)2154,t_uint256)": {
        "encoding": "mapping",
        "key": "t_enum(Severity)2154",
        "label": "mapping(enum AuditRegistry.Severity => uint256)",
        "numberOfBytes": "32",
        "value": "t_uint256"
      },
      "t_mapping(t_string_memory_ptr,t_array(t_bytes32)dyn_storage)": {
        "encoding": "mapping",
        "key": "t_string_memory_ptr",
        "label": "mapping(string => bytes32[])",
        "numberOfBytes": "32",
        "value": "t_array(t_bytes32)dyn_storage"
      },
      "t_string_memory_ptr": {
        "encoding": "bytes",
        "label": "string",
        "numberOfBytes": "32"
      },
      "t_string_storage": {
        "encoding": "bytes",
        "label": "string",
        "numberOfBytes": "32"
      },
      "t_struct(AuditEntry)2187_storage": {
        "encoding": "inplace",
        "label": "struct AuditRegistry.AuditEntry",
        "members": [
          {
            "astId": 2156,
            "contract": "contracts/AuditRegistry.sol:AuditRegistry",
            "label": "entryId",
            "offset": 0,
            "slot": "0",
            "type": "t_bytes32"
          },
          {
            "astId": 2158,
            "contract": "contracts/AuditRegistry.sol:AuditRegistry",
            "label": "paymentId",
            "offset": 0,
            "slot": "1",
            "type": "t_bytes32"
          },
          {
            "astId": 2161,
            "contract": "contracts/AuditRegistry.sol:AuditRegistry",
            "label": "eventType",
            "offset": 0,
            "slot": "2",
            "type": "t_enum(EventType)2149"
          },
          {
            "astId": 2164,
            "contract": "contracts/AuditRegistry.sol:AuditRegistry",
            "label": "severity",
            "offset": 1,
            "slot": "2",
            "type": "t_enum(Severity)2154"
          },
          {
            "astId": 2166,
            "contract": "contracts/AuditRegistry.sol:AuditRegistry",
            "label": "actor",
            "offset": 2,
            "slot": "2",
            "type": "t_address"
          },
          {
            "astId": 2168,
            "contract": "contracts/AuditRegistry.sol:AuditRegistry",
            "label": "subject",
            "offset": 0,
            "slot": "3",
            "type": "t_address"
          },
          {
            "astId": 2170,
            "contract": "contracts/AuditRegistry.sol:AuditRegistry",
            "label": "dataHash",
            "offset": 0,
            "slot": "4",
            "type": "t_bytes32"
          },
          {
            "astId": 2172,
            "contract": "contracts/AuditRegistry.sol:AuditRegistry",
            "label": "description",
            "offset": 0,
            "slot": "5",
            "type": "t_string_storage"
          },
          {
            "astId": 2174,
            "contract": "contracts/AuditRegistry.sol:AuditRegistry",
            "label": "amount",
            "offset": 0,
            "slot": "6",
            "type": "t_uint256"
          },
          {
            "astId": 2176,
            "contract": "contracts/AuditRegistry.sol:AuditRegistry",
            "label": "token",
            "offset": 0,
            "slot": "7",
            "type": "t_address"
          },
          {
            "astId": 2178,
            "contract": "contracts/AuditRegistry.sol:AuditRegistry",
            "label": "travelRuleApplied",
            "offset": 20,
            "slot": "7",
            "type": "t_bool"
          },
          {
            "astId": 2180,
            "contract": "contracts/AuditRegistry.sol:AuditRegistry",
            "label": "travelRuleDataHash",
            "offset": 0,
            "slot": "8",
            "type": "t_bytes32"
          },
          {
            "astId": 2182,
            "contract": "contracts/AuditRegistry.sol:AuditRegistry",
            "label": "timestamp",
            "offset": 0,
            "slot": "9",
            "type": "t_uint256"
          },
          {
            "astId": 2184,
            "contract": "contracts/AuditRegistry.sol:AuditRegistry",
            "label": "blockNumber",
            "offset": 0,
            "slot": "10",
            "type": "t_uint256"
          },
          {
            "astId": 2186,
            "contract": "contracts/AuditRegistry.sol:AuditRegistry",
            "label": "jurisdiction",
            "offset": 0,
            "slot": "11",
            "type": "t_string_storage"
          }
        ],
        "numberOfBytes": "384"
      },
      "t_struct(RoleData)21_storage": {
        "encoding": "inplace",
        "label": "struct AccessControl.RoleData",
        "members": [
          {
            "astId": 18,
            "contract": "contracts/AuditRegistry.sol:AuditRegistry",
            "label": "hasRole",
            "offset": 0,
            "slot": "0",
            "type": "t_mapping(t_address,t_bool)"
          },
          {
            "astId": 20,
            "contract": "contracts/AuditRegistry.sol:AuditRegistry",
            "label": "adminRole",
            "offset": 0,
            "slot": "1",
            "type": "t_bytes32"
          }
        ],
        "numberOfBytes": "64"
      },
      "t_uint256": {
        "encoding": "inplace",
        "label": "uint256",
        "numberOfBytes": "32"
      }
    }
  }
}