{
  "address": "0x4c4eB655210531D87C28c07641e44e86cEbbA7A5",
  "abi": [
    {
      "inputs": [
        {
          "internalType": "string",
          "name": "name",
          "type": "string"
        },
        {
          "internalType": "string",
          "name": "symbol",
          "type": "string"
        },
        {
          "internalType": "uint8",
          "name": "decimals_",
          "type": "uint8"
        }
      ],
      "stateMutability": "nonpayable",
      "type": "constructor"
    },
    {
      "inputs": [
        {
          "internalType": "address",
          "name": "spender",
          "type": "address"
        },
        {
          "internalType": "uint256",
          "name": "allowance",
          "type": "uint256"
        },
        {
          "internalType": "uint256",
          "name": "needed",
          "type": "uint256"
        }
      ],
      "name": "ERC20InsufficientAllowance",
      "type": "error"
    },
    {
      "inputs": [
        {
          "internalType": "address",
          "name": "sender",
          "type": "address"
        },
        {
          "internalType": "uint256",
          "name": "balance",
          "type": "uint256"
        },
        {
          "internalType": "uint256",
          "name": "needed",
          "type": "uint256"
        }
      ],
      "name": "ERC20InsufficientBalance",
      "type": "error"
    },
    {
      "inputs": [
        {
          "internalType": "address",
          "name": "approver",
          "type": "address"
        }
      ],
      "name": "ERC20InvalidApprover",
      "type": "error"
    },
    {
      "inputs": [
        {
          "internalType": "address",
          "name": "receiver",
          "type": "address"
        }
      ],
      "name": "ERC20InvalidReceiver",
      "type": "error"
    },
    {
      "inputs": [
        {
          "internalType": "address",
          "name": "sender",
          "type": "address"
        }
      ],
      "name": "ERC20InvalidSender",
      "type": "error"
    },
    {
      "inputs": [
        {
          "internalType": "address",
          "name": "spender",
          "type": "address"
        }
      ],
      "name": "ERC20InvalidSpender",
      "type": "error"
    },
    {
      "inputs": [
        {
          "internalType": "address",
          "name": "owner",
          "type": "address"
        }
      ],
      "name": "OwnableInvalidOwner",
      "type": "error"
    },
    {
      "inputs": [
        {
          "internalType": "address",
          "name": "account",
          "type": "address"
        }
      ],
      "name": "OwnableUnauthorizedAccount",
      "type": "error"
    },
    {
      "anonymous": false,
      "inputs": [
        {
          "indexed": true,
          "internalType": "address",
          "name": "owner",
          "type": "address"
        },
        {
          "indexed": true,
          "internalType": "address",
          "name": "spender",
          "type": "address"
        },
        {
          "indexed": false,
          "internalType": "uint256",
          "name": "value",
          "type": "uint256"
        }
      ],
      "name": "Approval",
      "type": "event"
    },
    {
      "anonymous": false,
      "inputs": [
        {
          "indexed": true,
          "internalType": "address",
          "name": "previousOwner",
          "type": "address"
        },
        {
          "indexed": true,
          "internalType": "address",
          "name": "newOwner",
          "type": "address"
        }
      ],
      "name": "OwnershipTransferred",
      "type": "event"
    },
    {
      "anonymous": false,
      "inputs": [
        {
          "indexed": true,
          "internalType": "address",
          "name": "from",
          "type": "address"
        },
        {
          "indexed": true,
          "internalType": "address",
          "name": "to",
          "type": "address"
        },
        {
          "indexed": false,
          "internalType": "uint256",
          "name": "value",
          "type": "uint256"
        }
      ],
      "name": "Transfer",
      "type": "event"
    },
    {
      "inputs": [
        {
          "internalType": "address",
          "name": "owner",
          "type": "address"
        },
        {
          "internalType": "address",
          "name": "spender",
          "type": "address"
        }
      ],
      "name": "allowance",
      "outputs": [
        {
          "internalType": "uint256",
          "name": "",
          "type": "uint256"
        }
      ],
      "stateMutability": "view",
      "type": "function"
    },
    {
      "inputs": [
        {
          "internalType": "address",
          "name": "spender",
          "type": "address"
        },
        {
          "internalType": "uint256",
          "name": "value",
          "type": "uint256"
        }
      ],
      "name": "approve",
      "outputs": [
        {
          "internalType": "bool",
          "name": "",
          "type": "bool"
        }
      ],
      "stateMutability": "nonpayable",
      "type": "function"
    },
    {
      "inputs": [
        {
          "internalType": "address",
          "name": "account",
          "type": "address"
        }
      ],
      "name": "balanceOf",
      "outputs": [
        {
          "internalType": "uint256",
          "name": "",
          "type": "uint256"
        }
      ],
      "stateMutability": "view",
      "type": "function"
    },
    {
      "inputs": [
        {
          "internalType": "address",
          "name": "from",
          "type": "address"
        },
        {
          "internalType": "uint256",
          "name": "amount",
          "type": "uint256"
        }
      ],
      "name": "burn",
      "outputs": [],
      "stateMutability": "nonpayable",
      "type": "function"
    },
    {
      "inputs": [],
      "name": "decimals",
      "outputs": [
        {
          "internalType": "uint8",
          "name": "",
          "type": "uint8"
        }
      ],
      "stateMutability": "view",
      "type": "function"
    },
    {
      "inputs": [
        {
          "internalType": "uint256",
          "name": "amount",
          "type": "uint256"
        }
      ],
      "name": "faucet",
      "outputs": [],
      "stateMutability": "nonpayable",
      "type": "function"
    },
    {
      "inputs": [
        {
          "internalType": "address",
          "name": "to",
          "type": "address"
        },
        {
          "internalType": "uint256",
          "name": "amount",
          "type": "uint256"
        }
      ],
      "name": "mint",
      "outputs": [],
      "stateMutability": "nonpayable",
      "type": "function"
    },
    {
      "inputs": [],
      "name": "name",
      "outputs": [
        {
          "internalType": "string",
          "name": "",
          "type": "string"
        }
      ],
      "stateMutability": "view",
      "type": "function"
    },
    {
      "inputs": [],
      "name": "owner",
      "outputs": [
        {
          "internalType": "address",
          "name": "",
          "type": "address"
        }
      ],
      "stateMutability": "view",
      "type": "function"
    },
    {
      "inputs": [],
      "name": "renounceOwnership",
      "outputs": [],
      "stateMutability": "nonpayable",
      "type": "function"
    },
    {
      "inputs": [],
      "name": "symbol",
      "outputs": [
        {
          "internalType": "string",
          "name": "",
          "type": "string"
        }
      ],
      "stateMutability": "view",
      "type": "function"
    },
    {
      "inputs": [],
      "name": "totalSupply",
      "outputs": [
        {
          "internalType": "uint256",
          "name": "",
          "type": "uint256"
        }
      ],
      "stateMutability": "view",
      "type": "function"
    },
    {
      "inputs": [
        {
          "internalType": "address",
          "name": "to",
          "type": "address"
        },
        {
          "internalType": "uint256",
          "name": "value",
          "type": "uint256"
        }
      ],
      "name": "transfer",
      "outputs": [
        {
          "internalType": "bool",
          "name": "",
          "type": "bool"
        }
      ],
      "stateMutability": "nonpayable",
      "type": "function"
    },
    {
      "inputs": [
        {
          "internalType": "address",
          "name": "from",
          "type": "address"
        },
        {
          "internalType": "address",
          "name": "to",
          "type": "address"
        },
        {
          "internalType": "uint256",
          "name": "value",
          "type": "uint256"
        }
      ],
      "name": "transferFrom",
      "outputs": [
        {
          "internalType": "bool",
          "name": "",
          "type": "bool"
        }
      ],
      "stateMutability": "nonpayable",
      "type": "function"
    },
    {
      "inputs": [
        {
          "internalType": "address",
          "name": "newOwner",
          "type": "address"
        }
      ],
      "name": "transferOwnership",
      "outputs": [],
      "stateMutability": "nonpayable",
      "type": "function"
    }
  ],
  "transactionHash": "0x945223403084b04fd0983c90ba786c48c9a4fea607119019ae7a5c8bfe3e79f3",
  "args": [
    "Tether USD",
    "USDT",
    6
  ],
  "numDeployments": 1,
  "solcInputHash": "c67737e51f0b406cca842b1a124d52ef",
  "bytecode": "0x608060405234620003a85762000e2e803803806200001d81620003ad565b9283398101606082820312620003a85781516001600160401b0390818111620003a857826200004e918501620003d3565b9060209283850151828111620003a8576040916200006e918701620003d3565b9401519360ff85168503620003a8578251828111620002a8576003918254916001958684811c941680156200039d575b8885101462000387578190601f9485811162000331575b508890858311600114620002ca57600092620002be575b505060001982861b1c191690861b1783555b8051938411620002a85760049586548681811c911680156200029d575b8282101462000288578381116200023d575b5080928511600114620001cf5750938394918492600095620001c3575b50501b92600019911b1c19161781555b3315620001ab575060055460405191336001600160a01b0383167f8be0079c531659141344cd1fd0a4f28419497f9722a3daafe3b4186f6b6457e0600080a36001600160a81b03199091163360ff60a01b19161760a09190911b60ff60a01b16176005556109e89081620004468239f35b602490600060405191631e4fbdf760e01b8352820152fd5b0151935038806200012a565b92919084601f1981168860005285600020956000905b8983831062000222575050501062000207575b50505050811b0181556200013a565b01519060f884600019921b161c1916905538808080620001f8565b858701518955909701969485019488935090810190620001e5565b87600052816000208480880160051c8201928489106200027e575b0160051c019087905b828110620002715750506200010d565b6000815501879062000261565b9250819262000258565b602288634e487b7160e01b6000525260246000fd5b90607f1690620000fb565b634e487b7160e01b600052604160045260246000fd5b015190503880620000cc565b90889350601f19831691876000528a6000209260005b8c8282106200031a575050841162000301575b505050811b018355620000de565b015160001983881b60f8161c19169055388080620002f3565b8385015186558c97909501949384019301620002e0565b90915085600052886000208580850160051c8201928b86106200037d575b918a91869594930160051c01915b8281106200036d575050620000b5565b600081558594508a91016200035d565b925081926200034f565b634e487b7160e01b600052602260045260246000fd5b93607f16936200009e565b600080fd5b6040519190601f01601f191682016001600160401b03811183821017620002a857604052565b919080601f84011215620003a85782516001600160401b038111620002a85760209062000409601f8201601f19168301620003ad565b92818452828287010111620003a85760005b8181106200043157508260009394955001015290565b85810183015184820184015282016200041b56fe6080604081815260048036101561001557600080fd5b600092833560e01c90816306fdde03146106bb57508063095ea7b31461061257806318160ddd146105f357806323b872dd1461050e578063313ce567146104e957806340c10f19146104bc578063579158971461042557806370a08231146103ee578063715018a6146103a05780638da5cb5b1461037757806395d89b41146102755780639dc29fac146101c0578063a9059cbb1461018f578063dd62ed3e146101425763f2fde38b146100c857600080fd5b3461013e57602036600319011261013e576100e16107db565b906100ea61080c565b6001600160a01b03918216928315610128575050600580546001600160a01b031981168417909155166000805160206109738339815191528380a380f35b51631e4fbdf760e01b8152908101849052602490fd5b8280fd5b50503461018b578060031936011261018b57806020926101606107db565b6101686107f6565b6001600160a01b0391821683526001865283832091168252845220549051908152f35b5080fd5b50503461018b578060031936011261018b576020906101b96101af6107db565b6024359033610838565b5160018152f35b5082903461018b578260031936011261018b576101db6107db565b90602435906101e861080c565b6001600160a01b03831692831561025e5783855284602052858520549183831061023f575050818495600080516020610993833981519152936020938688528785520381872055816002540360025551908152a380f35b61025a8484895194859463391434e360e21b865285016108ef565b0390fd5b8551634b637e8f60e11b8152808301869052602490fd5b5091903461018b578160031936011261018b57805190828454600181811c9080831692831561036d575b602093848410811461035a5783885290811561033e5750600114610306575b505050829003601f01601f19168201926001600160401b038411838510176102f357508291826102ef925282610792565b0390f35b634e487b7160e01b815260418552602490fd5b919250868652828620918387935b83851061032a57505050508301013880806102be565b805488860183015293019284908201610314565b60ff1916878501525050151560051b84010190503880806102be565b634e487b7160e01b895260228a52602489fd5b91607f169161029f565b50503461018b578160031936011261018b5760055490516001600160a01b039091168152602090f35b83346103eb57806003193601126103eb576103b961080c565b600580546001600160a01b0319811690915581906001600160a01b03166000805160206109738339815191528280a380f35b80fd5b50503461018b57602036600319011261018b5760209181906001600160a01b036104166107db565b16815280845220549051908152f35b503461013e57602036600319011261013e5780359160ff60055460a01c16604d81116104a957600a0a620f424090808202918204036104a9578311610472578361046f843361090d565b80f35b906020606492519162461bcd60e51b8352820152601160248201527013585e080c53481c195c8819985d58d95d607a1b6044820152fd5b634e487b7160e01b855260118352602485fd5b50503461018b573660031901126103eb5761046f6104d86107db565b6104e061080c565b6024359061090d565b50503461018b578160031936011261018b5760209060ff60055460a01c169051908152f35b5082346103eb5760603660031901126103eb576105296107db565b6105316107f6565b916044359360018060a01b03831680835260016020528683203384526020528683205491600019830361056d575b6020886101b9898989610838565b8683106105d55781156105be5733156105a7575082526001602090815286832033845281529186902090859003905582906101b98761055f565b8751634a1406b160e11b8152908101849052602490fd5b875163e602df0560e01b8152908101849052602490fd5b905061025a868851938493637dc7a0d960e11b8552339085016108ef565b50503461018b578160031936011261018b576020906002549051908152f35b503461013e578160031936011261013e5761062b6107db565b6024359033156106a4576001600160a01b031691821561068d57508083602095338152600187528181208582528752205582519081527f8c5be1e5ebec7d5bd14f71427d1e84f3dd0314c0f7b2291e5b200ac8c7c3b925843392a35160018152f35b8351634a1406b160e11b8152908101859052602490fd5b835163e602df0560e01b8152808401869052602490fd5b849150833461013e578260031936011261013e5782600354600181811c90808316928315610788575b602093848410811461035a5783885290811561076c575060011461073357505050829003601f01601f19168201926001600160401b038411838510176102f357508291826102ef925282610792565b91925060038652828620918387935b83851061075857505050508301018580806102be565b805488860183015293019284908201610742565b60ff1916878501525050151560051b84010190508580806102be565b91607f16916106e4565b6020808252825181830181905290939260005b8281106107c757505060409293506000838284010152601f8019910116010190565b8181018601518482016040015285016107a5565b600435906001600160a01b03821682036107f157565b600080fd5b602435906001600160a01b03821682036107f157565b6005546001600160a01b0316330361082057565b60405163118cdaa760e01b8152336004820152602490fd5b916001600160a01b038084169283156108d657169283156108bd57600090838252816020526040822054908382106108a057509160408282600080516020610993833981519152958760209652828652038282205586815220818154019055604051908152a3565b61025a8460405193849363391434e360e21b8552600485016108ef565b60405163ec442f0560e01b815260006004820152602490fd5b604051634b637e8f60e11b815260006004820152602490fd5b604091949392606082019560018060a01b0316825260208201520152565b6001600160a01b03169081156108bd576002549080820180921161095c5760206000805160206109938339815191529160009360025584845283825260408420818154019055604051908152a3565b634e487b7160e01b600052601160045260246000fdfe8be0079c531659141344cd1fd0a4f28419497f9722a3daafe3b4186f6b6457e0ddf252ad1be2c89b69c2b068fc378daa952ba7f163c4a11628f55a4df523b3efa26469706673582212201ccc1d1a9fdee124b7474ce10cb6724cc3c0775b99b7722e0c7b5ed9909b36fc64736f6c63430008140033",
  "devdoc": {
    "errors": {
      "ERC20InsufficientAllowance(address,uint256,uint256)": [
        {
          "details": "Indicates a failure with the `spender`s `allowance`. Used in transfers.",
          "params": {
            "allowance": "Amount of tokens a `spender` is allowed to operate with.",
            "needed": "Minimum amount required to perform a transfer.",
            "spender": "Address that may be allowed to operate on tokens without being their owner."
          }
        }
      ],
      "ERC20InsufficientBalance(address,uint256,uint256)": [
        {
          "details": "Indicates an error related to the current `balance` of a `sender`. Used in transfers.",
          "params": {
            "balance": "Current balance for the interacting account.",
            "needed": "Minimum amount required to perform a transfer.",
            "sender": "Address whose tokens are being transferred."
          }
        }
      ],
      "ERC20InvalidApprover(address)": [
        {
          "details": "Indicates a failure with the `approver` of a token to be approved. Used in approvals.",
          "params": {
            "approver": "Address initiating an approval operation."
          }
        }
      ],
      "ERC20InvalidReceiver(address)": [
        {
          "details": "Indicates a failure with the token `receiver`. Used in transfers.",
          "params": {
            "receiver": "Address to which tokens are being transferred."
          }
        }
      ],
      "ERC20InvalidSender(address)": [
        {
          "details": "Indicates a failure with the token `sender`. Used in transfers.",
          "params": {
            "sender": "Address whose tokens are being transferred."
          }
        }
      ],
      "ERC20InvalidSpender(address)": [
        {
          "details": "Indicates a failure with the `spender` to be approved. Used in approvals.",
          "params": {
            "spender": "Address that may be allowed to operate on tokens without being their owner."
          }
        }
      ],
      "OwnableInvalidOwner(address)": [
        {
          "details": "The owner is not a valid owner account. (eg. `address(0)`)"
        }
      ],
      "OwnableUnauthorizedAccount(address)": [
        {
          "details": "The caller account is not authorized to perform an operation."
        }
      ]
    },
    "events": {
      "Approval(address,address,uint256)": {
        "details": "Emitted when the allowance of a `spender` for an `owner` is set by a call to {approve}. `value` is the new allowance."
      },
      "Transfer(address,address,uint256)": {
        "details": "Emitted when `value` tokens are moved from one account (`from`) to another (`to`). Note that `value` may be zero."
      }
    },
    "kind": "dev",
    "methods": {
      "allowance(address,address)": {
        "details": "See {IERC20-allowance}."
      },
      "approve(address,uint256)": {
        "details": "See {IERC20-approve}. NOTE: If `value` is the maximum `uint256`, the allowance is not updated on `transferFrom`. This is semantically equivalent to an infinite approval. Requirements: - `spender` cannot be the zero address."
      },
      "balanceOf(address)": {
        "details": "See {IERC20-balanceOf}."
      },
      "decimals()": {
        "details": "Returns the number of decimals used to get its user representation. For example, if `decimals` equals `2`, a balance of `505` tokens should be displayed to a user as `5.05` (`505 / 10 ** 2`). Tokens usually opt for a value of 18, imitating the relationship between Ether and Wei. This is the default value returned by this function, unless it's overridden. NOTE: This information is only used for _display_ purposes: it in no way affects any of the arithmetic of the contract, including {IERC20-balanceOf} and {IERC20-transfer}."
      },
      "name()": {
        "details": "Returns the name of the token."
      },
      "owner()": {
        "details": "Returns the address of the current owner."
      },
      "renounceOwnership()": {
        "details": "Leaves the contract without owner. It will not be possible to call `onlyOwner` functions. Can only be called by the current owner. NOTE: Renouncing ownership will leave the contract without an owner, thereby disabling any functionality that is only available to the owner."
      },
      "symbol()": {
        "details": "Returns the symbol of the token, usually a shorter version of the name."
      },
      "totalSupply()": {
        "details": "See {IERC20-totalSupply}."
      },
      "transfer(address,uint256)": {
        "details": "See {IERC20-transfer}. Requirements: - `to` cannot be the zero address. - the caller must have a balance of at least `value`."
      },
      "transferFrom(address,address,uint256)": {
        "details": "See {IERC20-transferFrom}. Emits an {Approval} event indicating the updated allowance. This is not required by the EIP. See the note at the beginning of {ERC20}. NOTE: Does not update the allowance if the current allowance is the maximum `uint256`. Requirements: - `from` and `to` cannot be the zero address. - `from` must have a balance of at least `value`. - the caller must have allowance for ``from``'s tokens of at least `value`."
      },
      "transferOwnership(address)": {
        "details": "Transfers ownership of the contract to a new account (`newOwner`). Can only be called by the current owner."
      }
    },
    "title": "MockERC20",
    "version": 1
  },
  "userdoc": {
    "kind": "user",
    "methods": {},
    "notice": "Mock ERC20 token for testing PayFlow Protocol",
    "version": 1
  },
  "storageLayout": {
    "storage": [
      {
        "astId": 686,
        "contract": "contracts/mocks/MockERC20.sol:MockERC20",
        "label": "_balances",
        "offset": 0,
        "slot": "0",
        "type": "t_mapping(t_address,t_uint256)"
      },
      {
        "astId": 692,
        "contract": "contracts/mocks/MockERC20.sol:MockERC20",
        "label": "_allowances",
        "offset": 0,
        "slot": "1",
        "type": "t_mapping(t_address,t_mapping(t_address,t_uint256))"
      },
      {
        "astId": 694,
        "contract": "contracts/mocks/MockERC20.sol:MockERC20",
        "label": "_totalSupply",
        "offset": 0,
        "slot": "2",
        "type": "t_uint256"
      },
      {
        "astId": 696,
        "contract": "contracts/mocks/MockERC20.sol:MockERC20",
        "label": "_name",
        "offset": 0,
        "slot": "3",
        "type": "t_string_storage"
      },
      {
        "astId": 698,
        "contract": "contracts/mocks/MockERC20.sol:MockERC20",
        "label": "_symbol",
        "offset": 0,
        "slot": "4",
        "type": "t_string_storage"
      },
      {
        "astId": 387,
        "contract": "contracts/mocks/MockERC20.sol:MockERC20",
        "label": "_owner",
        "offset": 0,
        "slot": "5",
        "type": "t_address"
      },
      {
        "astId": 8986,
        "contract": "contracts/mocks/MockERC20.sol:MockERC20",
        "label": "_decimals",
        "offset": 20,
        "slot": "5",
        "type": "t_uint8"
      }
    ],
    "types": {
      "t_address": {
        "encoding": "inplace",
        "label": "address",
        "numberOfBytes": "20"
      },
      "t_mapping(t_address,t_mapping(t_address,t_uint256))": {
        "encoding": "mapping",
        "key": "t_address",
        "label": "mapping(address => mapping(address => uint256))",
        "numberOfBytes": "32",
        "value": "t_mapping(t_address,t_uint256)"
      },
      "t_mapping(t_address,t_uint256)": {
        "encoding": "mapping",
        "key": "t_address",
        "label": "mapping(address => uint256)",
        "numberOfBytes": "32",
        "value": "t_uint256"
      },
      "t_string_storage": {
        "encoding": "bytes",
        "label": "string",
        "numberOfBytes": "32"
      },
      "t_uint256": {
        "encoding": "inplace",
        "label": "uint256",
        "numberOfBytes": "32"
      },
      "t_uint8": {
        "encoding": "inplace",
        "label": "uint8",
        "numberOfBytes": "1"
      }
    }
  }
}