{
  "address": "0x4c9489812a9D971b431B9d99049a42B437347dBC",
  "abi": [
    {
      "inputs": [],
      "stateMutability": "nonpayable",
      "type": "constructor"
    },
    {
      "inputs": [],
      "name": "AccessControlBadConfirmation",
      "type": "error"
    },
    {
      "inputs": [
        {
          "internalType": "address",
          "name": "account",
          "type": "address"
        },
        {
          "internalType": "bytes32",
          "name": "neededRole",
          "type": "bytes32"
        }
      ],
      "name": "AccessControlUnauthorizedAccount",
      "type": "error"
    },
    {
      "inputs": [
        {
          "internalType": "address",
          "name": "target",
          "type": "address"
        }
      ],
      "name": "AddressEmptyCode",
      "type": "error"
    },
    {
      "inputs": [
        {
          "internalType": "address",
          "name": "account",
          "type": "address"
        }
      ],
      "name": "AddressInsufficientBalance",
      "type": "error"
    },
    {
      "inputs": [],
      "name": "EnforcedPause",
      "type": "error"
    },
    {
      "inputs": [],
      "name": "ExpectedPause",
      "type": "error"
    },
    {
      "inputs": [],
      "name": "FailedInnerCall",
      "type": "error"
    },
    {
      "inputs": [],
      "name": "ReentrancyGuardReentrantCall",
      "type": "error"
    },
    {
      "inputs": [
        {
          "internalType": "address",
          "name": "token",
          "type": "address"
        }
      ],
      "name": "SafeERC20FailedOperation",
      "type": "error"
    },
    {
      "anonymous": false,
      "inputs": [
        {
          "indexed": true,
          "internalType": "bytes32",
          "name": "paymentId",
          "type": "bytes32"
        },
        {
          "indexed": true,
          "internalType": "address",
          "name": "party",
          "type": "address"
        },
        {
          "indexed": false,
          "internalType": "enum PayFlowCore.ComplianceTier",
          "name": "tier",
          "type": "uint8"
        },
        {
          "indexed": false,
          "internalType": "bool",
          "name": "sanctionsCleared",
          "type": "bool"
        }
      ],
      "name": "ComplianceVerified",
      "type": "event"
    },
    {
      "anonymous": false,
      "inputs": [
        {
          "indexed": true,
          "internalType": "bytes32",
          "name": "paymentId",
          "type": "bytes32"
        },
        {
          "indexed": false,
          "internalType": "address",
          "name": "sourceToken",
          "type": "address"
        },
        {
          "indexed": false,
          "internalType": "address",
          "name": "targetToken",
          "type": "address"
        },
        {
          "indexed": false,
          "internalType": "uint256",
          "name": "sourceAmount",
          "type": "uint256"
        },
        {
          "indexed": false,
          "internalType": "uint256",
          "name": "targetAmount",
          "type": "uint256"
        },
        {
          "indexed": false,
          "internalType": "uint256",
          "name": "fxRate",
          "type": "uint256"
        }
      ],
      "name": "CrossBorderSettlement",
      "type": "event"
    },
    {
      "anonymous": false,
      "inputs": [
        {
          "indexed": false,
          "internalType": "address",
          "name": "account",
          "type": "address"
        }
      ],
      "name": "Paused",
      "type": "event"
    },
    {
      "anonymous": false,
      "inputs": [
        {
          "indexed": true,
          "internalType": "bytes32",
          "name": "paymentId",
          "type": "bytes32"
        },
        {
          "indexed": true,
          "internalType": "address",
          "name": "approver",
          "type": "address"
        },
        {
          "indexed": false,
          "internalType": "uint256",
          "name": "approvalCount",
          "type": "uint256"
        },
        {
          "indexed": false,
          "internalType": "uint256",
          "name": "requiredApprovals",
          "type": "uint256"
        }
      ],
      "name": "PaymentApproved",
      "type": "event"
    },
    {
      "anonymous": false,
      "inputs": [
        {
          "indexed": true,
          "internalType": "bytes32",
          "name": "paymentId",
          "type": "bytes32"
        },
        {
          "indexed": true,
          "internalType": "address",
          "name": "cancelledBy",
          "type": "address"
        }
      ],
      "name": "PaymentCancelled",
      "type": "event"
    },
    {
      "anonymous": false,
      "inputs": [
        {
          "indexed": true,
          "internalType": "bytes32",
          "name": "paymentId",
          "type": "bytes32"
        },
        {
          "indexed": true,
          "internalType": "address",
          "name": "sender",
          "type": "address"
        },
        {
          "indexed": true,
          "internalType": "address",
          "name": "recipient",
          "type": "address"
        },
        {
          "indexed": false,
          "internalType": "address",
          "name": "token",
          "type": "address"
        },
        {
          "indexed": false,
          "internalType": "uint256",
          "name": "amount",
          "type": "uint256"
        },
        {
          "indexed": false,
          "internalType": "bytes32",
          "name": "referenceId",
          "type": "bytes32"
        }
      ],
      "name": "PaymentCreated",
      "type": "event"
    },
    {
      "anonymous": false,
      "inputs": [
        {
          "indexed": true,
          "internalType": "bytes32",
          "name": "paymentId",
          "type": "bytes32"
        },
        {
          "indexed": true,
          "internalType": "address",
          "name": "sender",
          "type": "address"
        },
        {
          "indexed": true,
          "internalType": "address",
          "name": "recipient",
          "type": "address"
        },
        {
          "indexed": false,
          "internalType": "uint256",
          "name": "amount",
          "type": "uint256"
        },
        {
          "indexed": false,
          "internalType": "uint256",
          "name": "settlementTime",
          "type": "uint256"
        }
      ],
      "name": "PaymentExecuted",
      "type": "event"
    },
    {
      "anonymous": false,
      "inputs": [
        {
          "indexed": true,
          "internalType": "bytes32",
          "name": "paymentId",
          "type": "bytes32"
        },
        {
          "indexed": false,
          "internalType": "string",
          "name": "reason",
          "type": "string"
        }
      ],
      "name": "PaymentFailed",
      "type": "event"
    },
    {
      "anonymous": false,
      "inputs": [
        {
          "indexed": true,
          "internalType": "bytes32",
          "name": "role",
          "type": "bytes32"
        },
        {
          "indexed": true,
          "internalType": "bytes32",
          "name": "previousAdminRole",
          "type": "bytes32"
        },
        {
          "indexed": true,
          "internalType": "bytes32",
          "name": "newAdminRole",
          "type": "bytes32"
        }
      ],
      "name": "RoleAdminChanged",
      "type": "event"
    },
    {
      "anonymous": false,
      "inputs": [
        {
          "indexed": true,
          "internalType": "bytes32",
          "name": "role",
          "type": "bytes32"
        },
        {
          "indexed": true,
          "internalType": "address",
          "name": "account",
          "type": "address"
        },
        {
          "indexed": true,
          "internalType": "address",
          "name": "sender",
          "type": "address"
        }
      ],
      "name": "RoleGranted",
      "type": "event"
    },
    {
      "anonymous": false,
      "inputs": [
        {
          "indexed": true,
          "internalType": "bytes32",
          "name": "role",
          "type": "bytes32"
        },
        {
          "indexed": true,
          "internalType": "address",
          "name": "account",
          "type": "address"
        },
        {
          "indexed": true,
          "internalType": "address",
          "name": "sender",
          "type": "address"
        }
      ],
      "name": "RoleRevoked",
      "type": "event"
    },
    {
      "anonymous": false,
      "inputs": [
        {
          "indexed": false,
          "internalType": "address",
          "name": "account",
          "type": "address"
        }
      ],
      "name": "Unpaused",
      "type": "event"
    },
    {
      "inputs": [],
      "name": "COMPLIANCE_ROLE",
      "outputs": [
        {
          "internalType": "bytes32",
          "name": "",
          "type": "bytes32"
        }
      ],
      "stateMutability": "view",
      "type": "function"
    },
    {
      "inputs": [],
      "name": "DEFAULT_ADMIN_ROLE",
      "outputs": [
        {
          "internalType": "bytes32",
          "name": "",
          "type": "bytes32"
        }
      ],
      "stateMutability": "view",
      "type": "function"
    },
    {
      "inputs": [],
      "name": "OPERATOR_ROLE",
      "outputs": [
        {
          "internalType": "bytes32",
          "name": "",
          "type": "bytes32"
        }
      ],
      "stateMutability": "view",
      "type": "function"
    },
    {
      "inputs": [],
      "name": "TREASURY_ROLE",
      "outputs": [
        {
          "internalType": "bytes32",
          "name": "",
          "type": "bytes32"
        }
      ],
      "stateMutability": "view",
      "type": "function"
    },
    {
      "inputs": [
        {
          "internalType": "address",
          "name": "token",
          "type": "address"
        }
      ],
      "name": "addSupportedToken",
      "outputs": [],
      "stateMutability": "nonpayable",
      "type": "function"
    },
    {
      "inputs": [
        {
          "internalType": "bytes32",
          "name": "paymentId",
          "type": "bytes32"
        }
      ],
      "name": "approvePayment",
      "outputs": [],
      "stateMutability": "nonpayable",
      "type": "function"
    },
    {
      "inputs": [],
      "name": "auditRegistry",
      "outputs": [
        {
          "internalType": "address",
          "name": "",
          "type": "address"
        }
      ],
      "stateMutability": "view",
      "type": "function"
    },
    {
      "inputs": [],
      "name": "averageSettlementTime",
      "outputs": [
        {
          "internalType": "uint256",
          "name": "",
          "type": "uint256"
        }
      ],
      "stateMutability": "view",
      "type": "function"
    },
    {
      "inputs": [
        {
          "internalType": "bytes32",
          "name": "paymentId",
          "type": "bytes32"
        }
      ],
      "name": "cancelPayment",
      "outputs": [],
      "stateMutability": "nonpayable",
      "type": "function"
    },
    {
      "inputs": [],
      "name": "complianceEngine",
      "outputs": [
        {
          "internalType": "address",
          "name": "",
          "type": "address"
        }
      ],
      "stateMutability": "view",
      "type": "function"
    },
    {
      "inputs": [
        {
          "internalType": "address",
          "name": "recipient",
          "type": "address"
        },
        {
          "internalType": "address",
          "name": "sourceToken",
          "type": "address"
        },
        {
          "internalType": "uint256",
          "name": "sourceAmount",
          "type": "uint256"
        },
        {
          "internalType": "address",
          "name": "targetToken",
          "type": "address"
        },
        {
          "internalType": "uint256",
          "name": "minTargetAmount",
          "type": "uint256"
        },
        {
          "components": [
            {
              "internalType": "enum PayFlowCore.ComplianceTier",
              "name": "requiredSenderTier",
              "type": "uint8"
            },
            {
              "internalType": "enum PayFlowCore.ComplianceTier",
              "name": "requiredRecipientTier",
              "type": "uint8"
            },
            {
              "internalType": "bool",
              "name": "requireSanctionsCheck",
              "type": "bool"
            },
            {
              "internalType": "uint256",
              "name": "validFrom",
              "type": "uint256"
            },
            {
              "internalType": "uint256",
              "name": "validUntil",
              "type": "uint256"
            },
            {
              "internalType": "bool",
              "name": "businessHoursOnly",
              "type": "bool"
            },
            {
              "internalType": "uint256",
              "name": "maxSlippage",
              "type": "uint256"
            },
            {
              "internalType": "uint256",
              "name": "requiredApprovals",
              "type": "uint256"
            },
            {
              "internalType": "address[]",
              "name": "approvers",
              "type": "address[]"
            },
            {
              "internalType": "bool",
              "name": "useEscrow",
              "type": "bool"
            },
            {
              "internalType": "uint256",
              "name": "escrowReleaseTime",
              "type": "uint256"
            },
            {
              "internalType": "bytes32",
              "name": "escrowConditionHash",
              "type": "bytes32"
            }
          ],
          "internalType": "struct PayFlowCore.PaymentConditions",
          "name": "conditions",
          "type": "tuple"
        },
        {
          "internalType": "bytes32",
          "name": "referenceId",
          "type": "bytes32"
        },
        {
          "internalType": "string",
          "name": "memo",
          "type": "string"
        }
      ],
      "name": "createCrossBorderPayment",
      "outputs": [
        {
          "internalType": "bytes32",
          "name": "paymentId",
          "type": "bytes32"
        }
      ],
      "stateMutability": "nonpayable",
      "type": "function"
    },
    {
      "inputs": [
        {
          "internalType": "address",
          "name": "recipient",
          "type": "address"
        },
        {
          "internalType": "address",
          "name": "token",
          "type": "address"
        },
        {
          "internalType": "uint256",
          "name": "amount",
          "type": "uint256"
        },
        {
          "components": [
            {
              "internalType": "enum PayFlowCore.ComplianceTier",
              "name": "requiredSenderTier",
              "type": "uint8"
            },
            {
              "internalType": "enum PayFlowCore.ComplianceTier",
              "name": "requiredRecipientTier",
              "type": "uint8"
            },
            {
              "internalType": "bool",
              "name": "requireSanctionsCheck",
              "type": "bool"
            },
            {
              "internalType": "uint256",
              "name": "validFrom",
              "type": "uint256"
            },
            {
              "internalType": "uint256",
              "name": "validUntil",
              "type": "uint256"
            },
            {
              "internalType": "bool",
              "name": "businessHoursOnly",
              "type": "bool"
            },
            {
              "internalType": "uint256",
              "name": "maxSlippage",
              "type": "uint256"
            },
            {
              "internalType": "uint256",
              "name": "requiredApprovals",
              "type": "uint256"
            },
            {
              "internalType": "address[]",
              "name": "approvers",
              "type": "address[]"
            },
            {
              "internalType": "bool",
              "name": "useEscrow",
              "type": "bool"
            },
            {
              "internalType": "uint256",
              "name": "escrowReleaseTime",
              "type": "uint256"
            },
            {
              "internalType": "bytes32",
              "name": "escrowConditionHash",
              "type": "bytes32"
            }
          ],
          "internalType": "struct PayFlowCore.PaymentConditions",
          "name": "conditions",
          "type": "tuple"
        },
        {
          "internalType": "bytes32",
          "name": "referenceId",
          "type": "bytes32"
        },
        {
          "internalType": "string",
          "name": "memo",
          "type": "string"
        }
      ],
      "name": "createPayment",
      "outputs": [
        {
          "internalType": "bytes32",
          "name": "paymentId",
          "type": "bytes32"
        }
      ],
      "stateMutability": "nonpayable",
      "type": "function"
    },
    {
      "inputs": [],
      "name": "escrowVault",
      "outputs": [
        {
          "internalType": "address",
          "name": "",
          "type": "address"
        }
      ],
      "stateMutability": "view",
      "type": "function"
    },
    {
      "inputs": [
        {
          "internalType": "bytes32",
          "name": "paymentId",
          "type": "bytes32"
        }
      ],
      "name": "executePayment",
      "outputs": [],
      "stateMutability": "nonpayable",
      "type": "function"
    },
    {
      "inputs": [],
      "name": "feeRecipient",
      "outputs": [
        {
          "internalType": "address",
          "name": "",
          "type": "address"
        }
      ],
      "stateMutability": "view",
      "type": "function"
    },
    {
      "inputs": [
        {
          "internalType": "bytes32",
          "name": "paymentId",
          "type": "bytes32"
        }
      ],
      "name": "getPayment",
      "outputs": [
        {
          "components": [
            {
              "internalType": "bytes32",
              "name": "paymentId",
              "type": "bytes32"
            },
            {
              "internalType": "address",
              "name": "sender",
              "type": "address"
            },
            {
              "internalType": "address",
              "name": "recipient",
              "type": "address"
            },
            {
              "internalType": "address",
              "name": "token",
              "type": "address"
            },
            {
              "internalType": "uint256",
              "name": "amount",
              "type": "uint256"
            },
            {
              "internalType": "address",
              "name": "targetToken",
              "type": "address"
            },
            {
              "internalType": "uint256",
              "name": "targetAmount",
              "type": "uint256"
            },
            {
              "internalType": "enum PayFlowCore.PaymentStatus",
              "name": "status",
              "type": "uint8"
            },
            {
              "internalType": "uint256",
              "name": "createdAt",
              "type": "uint256"
            },
            {
              "internalType": "uint256",
              "name": "executedAt",
              "type": "uint256"
            },
            {
              "internalType": "uint256",
              "name": "approvalCount",
              "type": "uint256"
            },
            {
              "internalType": "uint256",
              "name": "requiredApprovals",
              "type": "uint256"
            },
            {
              "internalType": "bytes32",
              "name": "referenceId",
              "type": "bytes32"
            }
          ],
          "internalType": "struct PayFlowCore.PaymentView",
          "name": "",
          "type": "tuple"
        }
      ],
      "stateMutability": "view",
      "type": "function"
    },
    {
      "inputs": [],
      "name": "getPaymentCount",
      "outputs": [
        {
          "internalType": "uint256",
          "name": "",
          "type": "uint256"
        }
      ],
      "stateMutability": "view",
      "type": "function"
    },
    {
      "inputs": [],
      "name": "getProtocolStats",
      "outputs": [
        {
          "internalType": "uint256",
          "name": "created",
          "type": "uint256"
        },
        {
          "internalType": "uint256",
          "name": "executed",
          "type": "uint256"
        },
        {
          "internalType": "uint256",
          "name": "volume",
          "type": "uint256"
        },
        {
          "internalType": "uint256",
          "name": "avgSettlement",
          "type": "uint256"
        }
      ],
      "stateMutability": "view",
      "type": "function"
    },
    {
      "inputs": [
        {
          "internalType": "bytes32",
          "name": "role",
          "type": "bytes32"
        }
      ],
      "name": "getRoleAdmin",
      "outputs": [
        {
          "internalType": "bytes32",
          "name": "",
          "type": "bytes32"
        }
      ],
      "stateMutability": "view",
      "type": "function"
    },
    {
      "inputs": [
        {
          "internalType": "address",
          "name": "user",
          "type": "address"
        }
      ],
      "name": "getUserPayments",
      "outputs": [
        {
          "internalType": "bytes32[]",
          "name": "sent",
          "type": "bytes32[]"
        },
        {
          "internalType": "bytes32[]",
          "name": "received",
          "type": "bytes32[]"
        }
      ],
      "stateMutability": "view",
      "type": "function"
    },
    {
      "inputs": [
        {
          "internalType": "bytes32",
          "name": "role",
          "type": "bytes32"
        },
        {
          "internalType": "address",
          "name": "account",
          "type": "address"
        }
      ],
      "name": "grantRole",
      "outputs": [],
      "stateMutability": "nonpayable",
      "type": "function"
    },
    {
      "inputs": [
        {
          "internalType": "bytes32",
          "name": "role",
          "type": "bytes32"
        },
        {
          "internalType": "address",
          "name": "account",
          "type": "address"
        }
      ],
      "name": "hasRole",
      "outputs": [
        {
          "internalType": "bool",
          "name": "",
          "type": "bool"
        }
      ],
      "stateMutability": "view",
      "type": "function"
    },
    {
      "inputs": [],
      "name": "maxPaymentAmount",
      "outputs": [
        {
          "internalType": "uint256",
          "name": "",
          "type": "uint256"
        }
      ],
      "stateMutability": "view",
      "type": "function"
    },
    {
      "inputs": [],
      "name": "oracleAggregator",
      "outputs": [
        {
          "internalType": "address",
          "name": "",
          "type": "address"
        }
      ],
      "stateMutability": "view",
      "type": "function"
    },
    {
      "inputs": [],
      "name": "pause",
      "outputs": [],
      "stateMutability": "nonpayable",
      "type": "function"
    },
    {
      "inputs": [],
      "name": "paused",
      "outputs": [
        {
          "internalType": "bool",
          "name": "",
          "type": "bool"
        }
      ],
      "stateMutability": "view",
      "type": "function"
    },
    {
      "inputs": [
        {
          "internalType": "uint256",
          "name": "",
          "type": "uint256"
        }
      ],
      "name": "paymentIds",
      "outputs": [
        {
          "internalType": "bytes32",
          "name": "",
          "type": "bytes32"
        }
      ],
      "stateMutability": "view",
      "type": "function"
    },
    {
      "inputs": [],
      "name": "protocolFeeBps",
      "outputs": [
        {
          "internalType": "uint256",
          "name": "",
          "type": "uint256"
        }
      ],
      "stateMutability": "view",
      "type": "function"
    },
    {
      "inputs": [
        {
          "internalType": "bytes32",
          "name": "role",
          "type": "bytes32"
        },
        {
          "internalType": "address",
          "name": "callerConfirmation",
          "type": "address"
        }
      ],
      "name": "renounceRole",
      "outputs": [],
      "stateMutability": "nonpayable",
      "type": "function"
    },
    {
      "inputs": [
        {
          "internalType": "bytes32",
          "name": "role",
          "type": "bytes32"
        },
        {
          "internalType": "address",
          "name": "account",
          "type": "address"
        }
      ],
      "name": "revokeRole",
      "outputs": [],
      "stateMutability": "nonpayable",
      "type": "function"
    },
    {
      "inputs": [
        {
          "internalType": "address",
          "name": "_recipient",
          "type": "address"
        }
      ],
      "name": "setFeeRecipient",
      "outputs": [],
      "stateMutability": "nonpayable",
      "type": "function"
    },
    {
      "inputs": [
        {
          "internalType": "address",
          "name": "_compliance",
          "type": "address"
        },
        {
          "internalType": "address",
          "name": "_oracle",
          "type": "address"
        },
        {
          "internalType": "address",
          "name": "_escrow",
          "type": "address"
        },
        {
          "internalType": "address",
          "name": "_audit",
          "type": "address"
        }
      ],
      "name": "setModules",
      "outputs": [],
      "stateMutability": "nonpayable",
      "type": "function"
    },
    {
      "inputs": [
        {
          "internalType": "uint256",
          "name": "_feeBps",
          "type": "uint256"
        }
      ],
      "name": "setProtocolFee",
      "outputs": [],
      "stateMutability": "nonpayable",
      "type": "function"
    },
    {
      "inputs": [
        {
          "internalType": "address",
          "name": "",
          "type": "address"
        }
      ],
      "name": "supportedTokens",
      "outputs": [
        {
          "internalType": "bool",
          "name": "",
          "type": "bool"
        }
      ],
      "stateMutability": "view",
      "type": "function"
    },
    {
      "inputs": [
        {
          "internalType": "bytes4",
          "name": "interfaceId",
          "type": "bytes4"
        }
      ],
      "name": "supportsInterface",
      "outputs": [
        {
          "internalType": "bool",
          "name": "",
          "type": "bool"
        }
      ],
      "stateMutability": "view",
      "type": "function"
    },
    {
      "inputs": [
        {
          "internalType": "uint256",
          "name": "",
          "type": "uint256"
        }
      ],
      "name": "tokenList",
      "outputs": [
        {
          "internalType": "address",
          "name": "",
          "type": "address"
        }
      ],
      "stateMutability": "view",
      "type": "function"
    },
    {
      "inputs": [],
      "name": "totalPaymentsCreated",
      "outputs": [
        {
          "internalType": "uint256",
          "name": "",
          "type": "uint256"
        }
      ],
      "stateMutability": "view",
      "type": "function"
    },
    {
      "inputs": [],
      "name": "totalPaymentsExecuted",
      "outputs": [
        {
          "internalType": "uint256",
          "name": "",
          "type": "uint256"
        }
      ],
      "stateMutability": "view",
      "type": "function"
    },
    {
      "inputs": [],
      "name": "totalVolumeProcessed",
      "outputs": [
        {
          "internalType": "uint256",
          "name": "",
          "type": "uint256"
        }
      ],
      "stateMutability": "view",
      "type": "function"
    },
    {
      "inputs": [],
      "name": "unpause",
      "outputs": [],
      "stateMutability": "nonpayable",
      "type": "function"
    },
    {
      "inputs": [
        {
          "internalType": "address",
          "name": "",
          "type": "address"
        },
        {
          "internalType": "uint256",
          "name": "",
          "type": "uint256"
        }
      ],
      "name": "userPaymentsReceived",
      "outputs": [
        {
          "internalType": "bytes32",
          "name": "",
          "type": "bytes32"
        }
      ],
      "stateMutability": "view",
      "type": "function"
    },
    {
      "inputs": [
        {
          "internalType": "address",
          "name": "",
          "type": "address"
        },
        {
          "internalType": "uint256",
          "name": "",
          "type": "uint256"
        }
      ],
      "name": "userPaymentsSent",
      "outputs": [
        {
          "internalType": "bytes32",
          "name": "",
          "type": "bytes32"
        }
      ],
      "stateMutability": "view",
      "type": "function"
    }
  ],
  "transactionHash": "0xb9e5c8f86032de54fa86c9e62b1ac9c1ad5acc4a72610429846d6defc2f54cb3",
  "args": [],
  "numDeployments": 1,
  "solcInputHash": "c67737e51f0b406cca842b1a124d52ef",
  "bytecode": "0x60806040523462000079576001805560ff1960025416600255600a600d55655af3107a4000600f5562000032336200007e565b506200003e33620000fe565b506200004a33620001a0565b5062000056336200023d565b50600e80546001600160a01b03191633179055604051612a449081620002db8239f35b600080fd5b6001600160a01b031660008181527fad3228b676f7d3cd4284a5443f17f1962b36e491b30a40b2405849e597ba5fb5602052604081205490919060ff16620000fa57818052816020526040822081835260205260408220600160ff19825416179055339160008051602062002d1f8339815191528180a4600190565b5090565b6001600160a01b031660008181527fee57cd81e84075558e8fcc182a1f4393f91fc97f963a136e66b7f949a62f319f60205260408120549091907f97667070c54ef182b0f5858b034beac1b6f3089aa2d3188bb1e8929f4fa9b9299060ff166200019b57808352826020526040832082845260205260408320600160ff1982541617905560008051602062002d1f833981519152339380a4600190565b505090565b6001600160a01b031660008181527f335573aa7cafba10a32e2694464d1e7e5294d917876d04d506249fbf84d791af60205260408120549091907f442a94f1a1fac79af32856af2a64f63648cfa2ef3b98610a5bb7cbec4cee69859060ff166200019b57808352826020526040832082845260205260408320600160ff1982541617905560008051602062002d1f833981519152339380a4600190565b6001600160a01b031660008181527f9e5c930214a7bc8a78d251e617445bcdba028aed2ede5828cc6cd6c8261656f560205260408120549091907fe1dcbdb91df27212a29bc27177c840cf2f819ecf2187432e1fac86c2dd5dfca99060ff166200019b57808352826020526040832082845260205260408320600160ff1982541617905560008051602062002d1f833981519152339380a460019056fe608080604052600436101561001357600080fd5b60003560e01c90816301ffc9a714611cc657508063039df1f914611651578063062d3bd71461161657806316472a6c146115f8578063248a9ca3146115c95780632718c14f146115ab5780632f2ff15d1461156c57806335659fb81461154e57806336568abe146115075780633f4ba83a1461149d578063418bb260146113b25780634553c7c91461120f57806346904840146111e65780634e7ae2b5146111c85780635c975abb146111a557806368c4ac26146111665780636d69fcaf1461107857806371cb49c01461104f578063771aceef14611018578063787dce3d14610fbb5780637dd6eb3414610f9d5780638456cb5914610f435780638a2ae60b14610f1a5780638b0ddc9414610ed05780638dffe3f414610ea757806391d1485414610e5a5780639379668714610e3c5780639ba6737c14610dfd5780639d7dadeb14610d865780639ead722214610d3d578063a217fddf14610d21578063a2da160b14610780578063af32a03f14610762578063b079fbff14610691578063b4fa9ae514610639578063c46e967814610505578063c8f4eb6b146104dc578063d11a57ec146104b3578063d547741f14610472578063e66eefc814610266578063e74b981b1461021b5763f5b541a6146101ed57600080fd5b3461021657600036600319011261021657602060405160008051602061296f8339815191528152f35b600080fd5b3461021657602036600319011261021657610234611d19565b61023c611e3c565b6001600160a01b0316610250811515611fb0565b600e80546001600160a01b031916919091179055005b3461021657602036600319011261021657600061018060405161028881612036565b8281528260208201528260408201528260608201528260808201528260a08201528260c08201528260e08201528261010082015282610120820152826101408201528261016082015201526004356000526003602052610358604060002080549060018060a01b0360018201541660018060a01b0360028301541660018060a01b03600384015416600484015460018060a01b0360058601541660068601549060ff6007880154169260088801549460098901549660148a0154986016600f8c01549b01549b6040519d8e612036565b8d5260208d015260408c015260608b015260808a015260a089015260c0880152600781101561045c5760e08701526101008601526101208501526101408401526101608301526101808201526040518151815260018060a01b03602083015116602082015260018060a01b03604083015116604082015260018060a01b0360608301511660608201526080820151608082015260018060a01b0360a08301511660a082015260c082015160c082015260e0820151600781101561045c576101a0926101809160e08401526101008101516101008401526101208101516101208401526101408101516101408401526101608101516101608401520151610180820152f35b634e487b7160e01b600052602160045260246000fd5b34610216576040366003190112610216576104b1600435610491611d2f565b908060005260006020526104ac600160406000200154611e86565b611f3b565b005b346102165760003660031901126102165760206040516000805160206129cf8339815191528152f35b34610216576000366003190112610216576009546040516001600160a01b039091168152602090f35b3461021657602036600319011261021657600435610521612358565b806000526003602052604060002061053b8282541461237b565b60018101546001600160a01b039081169133830361060357600781019260ff845416600781101561045c5780159081156105f8575b50156105c357600461058b9360038401541692015491612729565b805460ff1916600517905533907f82afa048a7369739bfa90f12412a1226ef35206d456ca86d08450d82fc60f55a600080a360018055005b60405162461bcd60e51b815260206004820152600d60248201526c10d85b9b9bdd0818d85b98d95b609a1b6044820152606490fd5b600191501486610570565b60405162461bcd60e51b815260206004820152600e60248201526d2737ba103a34329039b2b73232b960911b6044820152606490fd5b3461021657604036600319011261021657610652611d19565b6001600160a01b03166000908152600560205260409020805460243591908210156102165760209161068391611d88565b90546040519160031b1c8152f35b34610216576080366003190112610216576106aa611d19565b6106b2611d2f565b6001600160a01b039060443582811690819003610216576106d1611d45565b3360009081527fad3228b676f7d3cd4284a5443f17f1962b36e491b30a40b2405849e597ba5fb5602052604090205490929060ff16156107435783908160018060a01b031996168660095416176009551684600a541617600a5583600b541617600b551690600c541617600c55600080f35b60405163e2517d3f60e01b815233600482015260006024820152604490fd5b34610216576000366003190112610216576020600454604051908152f35b3461021657600319610100368201126102165761079b611d19565b906107a4611d2f565b916107ad611d45565b916001600160401b0360a43511610216576101809060a435360301126102165760e4356001600160401b038111610216576107ec903690600401611d5b565b93906107f6612358565b6107fe61233a565b6001600160a01b03936108148486161515611fb0565b6108216044351515611ff0565b848316600052600760205260ff6040600020541615610cdf57848116600052600760205260ff6040600020541615610c9d5760105460405160208101913360601b835260018060601b0319808860601b166034840152808760601b1660488401528460601b16605c830152604435607083015242609083015260b082015260b0815260e0810181811060018060401b03821117610c4b57604052519020948560005260036020526040600020918683556001830160018060a01b03199033828254161790556002840183881682825416179055600384018387168282541617905560443560048501558260058501921690825416179055608435600683015560078201600160ff19825416179055426008830155600a820160a435600401803591600583101561021657805492602460a435013560058110156102165761ff006109e49560ff62ff0000610979604460a43501612075565b151560101b1694169062ffffff1916179160081b1617179055606460a4350135600b850155608460a4350135600c8501556109c36109ba60a4803501612075565b600d8601611eac565b60a43560c4810135600e86015560e4810135600f8601556101040190612082565b906001600160401b038211610c4b57600160401b8211610c4b576010840154826010860155808310610c7c575b5060108401600052602060002060005b838110610c615750505050610a47610a3e61012460a43501612075565b60118401611eac565b60a43561014481013560128401556101640135601383015560c43560168301556001600160401b038711610c4b57601782015491600183811c93168015610c41575b6020841014610c2b5760209783601f899511610bed575b506000601f8211600114610b6b57908060179260008051602061294f8339815191529697600092610b60575b50508160011b916000199060031b1c1916179101555b610af260443530338488166121a3565b610afb8361211a565b3360005260058752610b11836040600020612150565b80851660005260068752610b29836040600020612150565b610b3460105461210b565b60105560405194169380610b51339560c435906044359084612185565b0390a460018055604051908152f35b013590508b80610acc565b9460178301600052896000209560005b601f1984168110610bd357509160008051602061294f833981519152959660019260179483601f19811610610bb9575b505050811b01910155610ae2565b0135600019600384901b60f8161c191690558b8080610bab565b8183013588556001909701968a9650908b01908b01610b7b565b610c1b90601784016000528a600020601f840160051c8101918c8510610c21575b601f0160051c01906120e0565b89610aa0565b9091508190610c0e565b634e487b7160e01b600052602260045260246000fd5b92607f1692610a89565b634e487b7160e01b600052604160045260246000fd5b6001906020610c6f856120f7565b9401938184015501610a21565b610c97906010860160005283602060002091820191016120e0565b89610a11565b60405162461bcd60e51b815260206004820152601a60248201527915185c99d95d081d1bdad95b881b9bdd081cdd5c1c1bdc9d195960321b6044820152606490fd5b60405162461bcd60e51b815260206004820152601a60248201527914dbdd5c98d9481d1bdad95b881b9bdd081cdd5c1c1bdc9d195960321b6044820152606490fd5b3461021657600036600319011261021657602060405160008152f35b346102165760203660031901126102165760043560085481101561021657600860005260008051602061298f83398151915201546040516001600160a01b039091168152602090f35b34610216576020366003190112610216576001600160a01b03610da7611d19565b166000526005602052610deb60406000206006602052610df9610dd7610dd16040600020936128ff565b926128ff565b604051938493604085526040850190611da0565b908382036020850152611da0565b0390f35b34610216576020366003190112610216576004356004548110156102165760046000526000805160206129af8339815191520154604051908152602090f35b34610216576000366003190112610216576020601054604051908152f35b3461021657604036600319011261021657610e73611d2f565b600435600052600060205260406000209060018060a01b0316600052602052602060ff604060002054166040519015158152f35b3461021657600036600319011261021657600a546040516001600160a01b039091168152602090f35b3461021657604036600319011261021657610ee9611d19565b6001600160a01b03166000908152600660205260409020805460243591908210156102165760209161068391611d88565b3461021657600036600319011261021657600b546040516001600160a01b039091168152602090f35b3461021657600036600319011261021657610f5c611dd4565b610f6461233a565b600160ff1960025416176002557f62e78cea01bee320cd4e420270b5ea74000d11b0c9f74754ebdbfc544b05a2586020604051338152a1005b34610216576000366003190112610216576020600f54604051908152f35b3461021657602036600319011261021657600435610fd7611e3c565b60648111610fe457600d55005b60405162461bcd60e51b815260206004820152600c60248201526b08ccaca40e8dede40d0d2ced60a31b6044820152606490fd5b3461021657600036600319011261021657608060105460115460125460135491604051938452602084015260408301526060820152f35b3461021657600036600319011261021657600c546040516001600160a01b039091168152602090f35b3461021657602036600319011261021657611091611d19565b611099611dd4565b6001600160a01b031660008181526007602052604090205460ff1661112d576000818152600760205260409020805460ff19166001179055600854600160401b811015610c4b57600181018060085581101561111757600860005260008051602061298f8339815191520180546001600160a01b0319169091179055005b634e487b7160e01b600052603260045260246000fd5b60405162461bcd60e51b8152602060048201526011602482015270105b1c9958591e481cdd5c1c1bdc9d1959607a1b6044820152606490fd5b34610216576020366003190112610216576001600160a01b03611187611d19565b166000526007602052602060ff604060002054166040519015158152f35b3461021657600036600319011261021657602060ff600254166040519015158152f35b34610216576000366003190112610216576020601354604051908152f35b3461021657600036600319011261021657600e546040516001600160a01b039091168152602090f35b34610216576020806003193601126102165760043561122c612358565b806000526003825260406000206112458282541461237b565b60ff600782015416600781101561045c5760010361137657601581013360005280845260ff6040600020541661133e5761127f33836128a5565b1561130757926112ed92933360005281526040600020600160ff1982541617905560148201906112af825461210b565b809255600f83015490604051928352820152837fe47b26531b7739f229230a4f59b200e8c85f8054416c84213fb1f58055ef624d60403393a3612836565b6112f8575b60018055005b611301906123d5565b806112f2565b60405162461bcd60e51b815260048101859052600f60248201526e2737ba1030b71030b8383937bb32b960891b6044820152606490fd5b60405162461bcd60e51b815260048101859052601060248201526f105b1c9958591e48185c1c1c9bdd995960821b6044820152606490fd5b60405162461bcd60e51b8152600481018490526014602482015273139bdd081c195b991a5b99c8185c1c1c9bdd985b60621b6044820152606490fd5b34610216576020366003190112610216576004356113ce612358565b80600052600360205260406000206113e88282541461237b565b60ff600782015416600781101561045c5760018114908115611492575b501561145c5761141490612836565b15611422576112f2906123d5565b60405162461bcd60e51b815260206004820152601260248201527110dbdb991a5d1a5bdb9cc81b9bdd081b595d60721b6044820152606490fd5b60405162461bcd60e51b815260206004820152600e60248201526d43616e6e6f74206578656375746560901b6044820152606490fd5b600291501483611405565b34610216576000366003190112610216576114b6611dd4565b60025460ff8116156114f55760ff19166002557f5db9ee0a495bf2e6ff9c91a7834c1ba4fdd244a5e8aa4e537bd38aeae4b073aa6020604051338152a1005b604051638dfc202b60e01b8152600490fd5b3461021657604036600319011261021657611520611d2f565b336001600160a01b0382160361153c576104b190600435611f3b565b60405163334bd91960e11b8152600490fd5b34610216576000366003190112610216576020600d54604051908152f35b34610216576040366003190112610216576104b160043561158b611d2f565b908060005260006020526115a6600160406000200154611e86565b611ebd565b34610216576000366003190112610216576020601254604051908152f35b346102165760203660031901126102165760043560005260006020526020600160406000200154604051908152f35b34610216576000366003190112610216576020601154604051908152f35b346102165760003660031901126102165760206040517f442a94f1a1fac79af32856af2a64f63648cfa2ef3b98610a5bb7cbec4cee69858152f35b346102165760031960c0368201126102165761166b611d19565b90611674611d2f565b906001600160401b03606435116102165761018090606435360301126102165760a4356001600160401b038111610216576116b3903690600401611d5b565b90926116bd612358565b6116c561233a565b6116d96001600160a01b0382161515611fb0565b6001600160a01b0381163314611c8b576116f66044351515611ff0565b600f5460443511611c50576001600160a01b03831660009081526007602052604090205460ff1615611c155760105460405160208101913360601b835260018060601b0319808560601b1660348401528660601b166048830152604435605c83015242607c830152609c820152609c815260c0810181811060018060401b03821117610c4b57604052519020918260005260036020526040600020948386556001860160018060a01b03199033828254161790556002870160018060a01b038516828254161790556003870160018060a01b038716828254161790556044356004880155600587019060018060a01b0387169082541617905560ff196007870154166007870155426008870155600560643560040135101561021657600a86015460056024606435013510156102165762ff0000611838604460643501612075565b151560101b169060ff60643560040135169062ffffff19161761ff006024606435013560081b161717600a870155606480350135600b87015560846064350135600c87015561189761188e60a460643501612075565b600d8801611eac565b60643560c4810135600e88015560e4810135600f8801556118c090610104810190600401612082565b906001600160401b038211610c4b57600160401b8211610c4b5760108801548260108a0155808310611bf4575b5060108801600052602060002060005b838110611bd9575050505061192361191a61012460643501612075565b60118801611eac565b60643561014481013560128801556101640135601387015560843560168701556001600160401b038211610c4b57601786015490600182811c92168015611bcf575b6020831014610c2b5781601f849311611b9a575b50600090601f8311600114611b2957600092611b1e575b50508160011b916000199060031b1c19161760178501555b60005b6119c061010460643501606435600401612082565b9050811015611a4b576119de61010460643501606435600401612082565b821015611117576119f3908260051b016120f7565b60108601549190600160401b831015610c4b57611a1f836001611a46950160108a015560108901611d88565b81546001600160a01b0393841660039290921b91821b9390911b191691909117905561210b565b6119ab565b506020939192611a6860443530336001600160a01b0385166121a3565b611a718461211a565b3360005260058552611a87846040600020612150565b60018060a01b03821660005260068552611aa5846040600020612150565b611ab060105461210b565b6010558360008051602061294f8339815191526040519360018060a01b03169380611ae43395608435906044359084612185565b0390a4611af081612778565b15611b0b5750611aff816123d5565b60018055604051908152f35b600701805460ff19166001179055611aff565b013590508680611990565b909250601787016000526020600020906000935b601f1984168510611b82576001945083601f19811610611b68575b505050811b0160178501556119a8565b0135600019600384901b60f8161c19169055868080611b58565b81810135835560209485019460019093019201611b3d565b611bc990601789016000526020600020601f850160051c81019160208610610c2157601f0160051c01906120e0565b87611979565b91607f1691611965565b6001906020611be7856120f7565b94019381840155016118fd565b611c0f9060108a0160005283602060002091820191016120e0565b886118ed565b60405162461bcd60e51b8152602060048201526013602482015272151bdad95b881b9bdd081cdd5c1c1bdc9d1959606a1b6044820152606490fd5b60405162461bcd60e51b8152602060048201526013602482015272115e18d959591cc81b585e081c185e5b595b9d606a1b6044820152606490fd5b60405162461bcd60e51b815260206004820152601360248201527221b0b73737ba103830bc903cb7bab939b2b63360691b6044820152606490fd5b34610216576020366003190112610216576004359063ffffffff60e01b821680920361021657602091637965db0b60e01b8114908115611d08575b5015158152f35b6301ffc9a760e01b14905083611d01565b600435906001600160a01b038216820361021657565b602435906001600160a01b038216820361021657565b606435906001600160a01b038216820361021657565b9181601f84011215610216578235916001600160401b038311610216576020838186019501011161021657565b80548210156111175760005260206000200190600090565b90815180825260208080930193019160005b828110611dc0575050505090565b835185529381019392810192600101611db2565b3360009081527fee57cd81e84075558e8fcc182a1f4393f91fc97f963a136e66b7f949a62f319f602052604090205460008051602061296f8339815191529060ff1615611e1e5750565b6044906040519063e2517d3f60e01b82523360048301526024820152fd5b3360009081527f9e5c930214a7bc8a78d251e617445bcdba028aed2ede5828cc6cd6c8261656f560205260409020546000805160206129cf8339815191529060ff1615611e1e5750565b80600052600060205260406000203360005260205260ff6040600020541615611e1e5750565b9060ff801983541691151516179055565b9060009180835282602052604083209160018060a01b03169182845260205260ff60408420541615600014611f3657808352826020526040832082845260205260408320600160ff198254161790557f2f8788117e7eff1d82e926ec794901d17c78024a50270940304540a733656f0d339380a4600190565b505090565b9060009180835282602052604083209160018060a01b03169182845260205260ff604084205416600014611f365780835282602052604083208284526020526040832060ff1981541690557ff6391f5c32d9c69d2a47ea670b442974b53935d1edc7fd64eb21e047a839171b339380a4600190565b15611fb757565b60405162461bcd60e51b8152602060048201526011602482015270125b9d985b1a59081c9958da5c1a595b9d607a1b6044820152606490fd5b15611ff757565b60405162461bcd60e51b8152602060048201526017602482015276416d6f756e74206d75737420626520706f73697469766560481b6044820152606490fd5b6101a081019081106001600160401b03821117610c4b57604052565b601f909101601f19168101906001600160401b03821190821017610c4b57604052565b3580151581036102165790565b903590601e198136030182121561021657018035906001600160401b03821161021657602001918160051b3603831361021657565b818102929181159184041417156120ca57565b634e487b7160e01b600052601160045260246000fd5b8181106120eb575050565b600081556001016120e0565b356001600160a01b03811681036102165790565b60001981146120ca5760010190565b600454600160401b811015610c4b5760018101806004558110156111175760046000526000805160206129af8339815191520155565b8054600160401b811015610c4b5761216d91600182018155611d88565b819291549060031b91821b91600019901b1916179055565b604091949392606082019560018060a01b0316825260208201520152565b6040516323b872dd60e01b60208201526001600160a01b03928316602482015292909116604483015260648083019390935291815260a08101918183106001600160401b03841117610c4b576121fb926040526121fd565b565b60018060a01b031690600080826020829451910182865af13d156122cb573d906001600160401b0382116122b7579061225891604051916122486020601f19601f8401160184612052565b82523d84602084013e5b846122d7565b908151918215159283612288575b5050506122705750565b60249060405190635274afe760e01b82526004820152fd5b8192935090602091810103126122b35760200151908115918215036122b05750388080612266565b80fd5b5080fd5b634e487b7160e01b83526041600452602483fd5b61225890606090612252565b906122fe57508051156122ec57805190602001fd5b604051630a12f52160e11b8152600490fd5b81511580612331575b61230f575090565b604051639996b31560e01b81526001600160a01b039091166004820152602490fd5b50803b15612307565b60ff6002541661234657565b60405163d93c066560e01b8152600490fd5b600260015414612369576002600155565b604051633ee5aeb560e01b8152600490fd5b1561238257565b60405162461bcd60e51b815260206004820152601160248201527014185e5b595b9d081b9bdd08199bdd5b99607a1b6044820152606490fd5b919082039182116120ca57565b919082018092116120ca57565b90600091808352602090600382526040908185209160049586840190815491600d54806126eb575b5060058601805460038801546001600160a01b039392918416919084168083036125dd575b5083869160ff60118c0154166000146125c6576124479350541684600b541690612729565b60078701600360ff1982541617905542600988015561246a6008880154426123bb565b9261247660115461210b565b8060115561248783546012546123c8565b6012556013546000198201908282116125b2576124a86124ad9288926120b7565b6123c8565b811561259f570460135582600c5416806124f3575b505050859697985060028160016000805160206129ef833981519152979801541697015416968351928352820152a4565b8360018a015416928460028b015416905490823b1561259b578d8480948c9460a4948d51998a97889663ddf6c1cf60e01b88528701526024860152604485015260648401528960848401525af1801561258f57612551575b806124c2565b6001600160401b03821161257c5750845296975087966000805160206129ef8339815191523861254b565b634e487b7160e01b815260418b52602490fd5b508551903d90823e3d90fd5b8380fd5b634e487b7160e01b835260128d52602483fd5b50634e487b7160e01b835260118d52602483fd5b50916125d89260028b01541690612729565b612447565b90919293949587516370a0823160e01b81528d30908201528b81602481885afa9081156126e15790829189916126ac575b5010612670579480949392897fc36538af5199ad6ede266b5240624cb1c47a0eef7a0fcd044494855cea83fa3460a08b958f9b9a809c8d988a8c549282519586528501528301526060820152670de0b6b3a76400006080820152a29150612422565b875162461bcd60e51b8152808e018c90526016602482015275496e73756666696369656e74206c697175696469747960501b6044820152606490fd5b8092508d8092503d83116126da575b6126c58183612052565b810103126126d6578190513861260e565b8780fd5b503d6126bb565b89513d8a823e3d90fd5b6127066127106126fe61272393876120b7565b0480956123bb565b6003880154600e549195916001600160a01b039081169116612729565b386123fd565b60405163a9059cbb60e01b60208201526001600160a01b03909216602483015260448083019390935291815260808101916001600160401b03831182841017610c4b576121fb926040526121fd565b600a8101549060ff8216600581101561045c5715918261281d575b8261280e575b5081612801575b816127f4575b816127e4575b816127d7575b816127c7575b506127c257600090565b600190565b60ff9150601101541615386127b8565b600f8101541591506127b2565b600d81015460ff161591506127ac565b600c8101541591506127a6565b600b8101541591506127a0565b60101c60ff1615915038612799565b915060ff8260081c16600581101561045c571591612793565b600b810154801515908161289b575b5061288b57600c8101548015159081612891575b5061288b57600f810154801515918261287d575b505061287857600190565b600090565b60140154109050388061286d565b50600090565b9050421138612859565b9050421038612845565b9060005b6010830180548210156128f657816128c091611d88565b905460039190911b1c6001600160a01b03908116908316146128ee576128e760109161210b565b90506128a9565b505050600190565b50505050600090565b9060405191828154918282526020928383019160005283600020936000905b828210612934575050506121fb92500383612052565b85548452600195860195889550938101939091019061291e56fe0b3924253c3926ca27a409346f154a7f773e2ecd3953e292876f4e10fd81716897667070c54ef182b0f5858b034beac1b6f3089aa2d3188bb1e8929f4fa9b929f3f7a9fe364faab93b216da50a3214154f22a0a2b415b23a84c8169e8b636ee38a35acfbc15ff81a39ae7d344fd709f28e8600b4aa8c65c6b64bfe7fe36bd19be1dcbdb91df27212a29bc27177c840cf2f819ecf2187432e1fac86c2dd5dfca9d3536d21b755f6334d41e9159415320926eed776b6016f63717241abc915ad03a26469706673582212208b049392c7dd51cc99c252b471c6b8e34034df3c82f26b0f49c901cc0770dda464736f6c634300081400332f8788117e7eff1d82e926ec794901d17c78024a50270940304540a733656f0d",
  "devdoc": {
    "details": "Handles payment creation, condition verification, and execution",
    "errors": {
      "AccessControlBadConfirmation()": [
        {
          "details": "The caller of a function is not the expected one. NOTE: Don't confuse with {AccessControlUnauthorizedAccount}."
        }
      ],
      "AccessControlUnauthorizedAccount(address,bytes32)": [
        {
          "details": "The `account` is missing a role."
        }
      ],
      "AddressEmptyCode(address)": [
        {
          "details": "There's no code at `target` (it is not a contract)."
        }
      ],
      "AddressInsufficientBalance(address)": [
        {
          "details": "The ETH balance of the account is not enough to perform the operation."
        }
      ],
      "EnforcedPause()": [
        {
          "details": "The operation failed because the contract is paused."
        }
      ],
      "ExpectedPause()": [
        {
          "details": "The operation failed because the contract is not paused."
        }
      ],
      "FailedInnerCall()": [
        {
          "details": "A call to an address target failed. The target may have reverted."
        }
      ],
      "ReentrancyGuardReentrantCall()": [
        {
          "details": "Unauthorized reentrant call."
        }
      ],
      "SafeERC20FailedOperation(address)": [
        {
          "details": "An operation with an ERC20 token failed."
        }
      ]
    },
    "events": {
      "Paused(address)": {
        "details": "Emitted when the pause is triggered by `account`."
      },
      "RoleAdminChanged(bytes32,bytes32,bytes32)": {
        "details": "Emitted when `newAdminRole` is set as ``role``'s admin role, replacing `previousAdminRole` `DEFAULT_ADMIN_ROLE` is the starting admin for all roles, despite {RoleAdminChanged} not being emitted signaling this."
      },
      "RoleGranted(bytes32,address,address)": {
        "details": "Emitted when `account` is granted `role`. `sender` is the account that originated the contract call, an admin role bearer except when using {AccessControl-_setupRole}."
      },
      "RoleRevoked(bytes32,address,address)": {
        "details": "Emitted when `account` is revoked `role`. `sender` is the account that originated the contract call:   - if using `revokeRole`, it is the admin role bearer   - if using `renounceRole`, it is the role bearer (i.e. `account`)"
      },
      "Unpaused(address)": {
        "details": "Emitted when the pause is lifted by `account`."
      }
    },
    "kind": "dev",
    "methods": {
      "createPayment(address,address,uint256,(uint8,uint8,bool,uint256,uint256,bool,uint256,uint256,address[],bool,uint256,bytes32),bytes32,string)": {
        "params": {
          "amount": "The amount to send",
          "conditions": "The programmable conditions for this payment",
          "memo": "Human-readable memo",
          "recipient": "The payment recipient",
          "referenceId": "External reference ID for tracking",
          "token": "The token to send"
        },
        "returns": {
          "paymentId": "The unique payment identifier"
        }
      },
      "getRoleAdmin(bytes32)": {
        "details": "Returns the admin role that controls `role`. See {grantRole} and {revokeRole}. To change a role's admin, use {_setRoleAdmin}."
      },
      "grantRole(bytes32,address)": {
        "details": "Grants `role` to `account`. If `account` had not been already granted `role`, emits a {RoleGranted} event. Requirements: - the caller must have ``role``'s admin role. May emit a {RoleGranted} event."
      },
      "hasRole(bytes32,address)": {
        "details": "Returns `true` if `account` has been granted `role`."
      },
      "paused()": {
        "details": "Returns true if the contract is paused, and false otherwise."
      },
      "renounceRole(bytes32,address)": {
        "details": "Revokes `role` from the calling account. Roles are often managed via {grantRole} and {revokeRole}: this function's purpose is to provide a mechanism for accounts to lose their privileges if they are compromised (such as when a trusted device is misplaced). If the calling account had been revoked `role`, emits a {RoleRevoked} event. Requirements: - the caller must be `callerConfirmation`. May emit a {RoleRevoked} event."
      },
      "revokeRole(bytes32,address)": {
        "details": "Revokes `role` from `account`. If `account` had been granted `role`, emits a {RoleRevoked} event. Requirements: - the caller must have ``role``'s admin role. May emit a {RoleRevoked} event."
      },
      "supportsInterface(bytes4)": {
        "details": "See {IERC165-supportsInterface}."
      }
    },
    "title": "PayFlowCore",
    "version": 1
  },
  "userdoc": {
    "kind": "user",
    "methods": {
      "approvePayment(bytes32)": {
        "notice": "Approve a payment (for multi-sig payments)"
      },
      "cancelPayment(bytes32)": {
        "notice": "Cancel a pending payment"
      },
      "createCrossBorderPayment(address,address,uint256,address,uint256,(uint8,uint8,bool,uint256,uint256,bool,uint256,uint256,address[],bool,uint256,bytes32),bytes32,string)": {
        "notice": "Create a cross-border payment with FX conversion"
      },
      "createPayment(address,address,uint256,(uint8,uint8,bool,uint256,uint256,bool,uint256,uint256,address[],bool,uint256,bytes32),bytes32,string)": {
        "notice": "Create a new programmable payment"
      },
      "executePayment(bytes32)": {
        "notice": "Execute a payment that has met all conditions"
      }
    },
    "notice": "The central routing engine for programmable institutional payments",
    "version": 1
  },
  "storageLayout": {
    "storage": [
      {
        "astId": 26,
        "contract": "contracts/PayFlowCore.sol:PayFlowCore",
        "label": "_roles",
        "offset": 0,
        "slot": "0",
        "type": "t_mapping(t_bytes32,t_struct(RoleData)21_storage)"
      },
      {
        "astId": 2019,
        "contract": "contracts/PayFlowCore.sol:PayFlowCore",
        "label": "_status",
        "offset": 0,
        "slot": "1",
        "type": "t_uint256"
      },
      {
        "astId": 1900,
        "contract": "contracts/PayFlowCore.sol:PayFlowCore",
        "label": "_paused",
        "offset": 0,
        "slot": "2",
        "type": "t_bool"
      },
      {
        "astId": 6337,
        "contract": "contracts/PayFlowCore.sol:PayFlowCore",
        "label": "payments",
        "offset": 0,
        "slot": "3",
        "type": "t_mapping(t_bytes32,t_struct(Payment)6304_storage)"
      },
      {
        "astId": 6340,
        "contract": "contracts/PayFlowCore.sol:PayFlowCore",
        "label": "paymentIds",
        "offset": 0,
        "slot": "4",
        "type": "t_array(t_bytes32)dyn_storage"
      },
      {
        "astId": 6345,
        "contract": "contracts/PayFlowCore.sol:PayFlowCore",
        "label": "userPaymentsSent",
        "offset": 0,
        "slot": "5",
        "type": "t_mapping(t_address,t_array(t_bytes32)dyn_storage)"
      },
      {
        "astId": 6350,
        "contract": "contracts/PayFlowCore.sol:PayFlowCore",
        "label": "userPaymentsReceived",
        "offset": 0,
        "slot": "6",
        "type": "t_mapping(t_address,t_array(t_bytes32)dyn_storage)"
      },
      {
        "astId": 6354,
        "contract": "contracts/PayFlowCore.sol:PayFlowCore",
        "label": "supportedTokens",
        "offset": 0,
        "slot": "7",
        "type": "t_mapping(t_address,t_bool)"
      },
      {
        "astId": 6357,
        "contract": "contracts/PayFlowCore.sol:PayFlowCore",
        "label": "tokenList",
        "offset": 0,
        "slot": "8",
        "type": "t_array(t_address)dyn_storage"
      },
      {
        "astId": 6359,
        "contract": "contracts/PayFlowCore.sol:PayFlowCore",
        "label": "complianceEngine",
        "offset": 0,
        "slot": "9",
        "type": "t_address"
      },
      {
        "astId": 6361,
        "contract": "contracts/PayFlowCore.sol:PayFlowCore",
        "label": "oracleAggregator",
        "offset": 0,
        "slot": "10",
        "type": "t_address"
      },
      {
        "astId": 6363,
        "contract": "contracts/PayFlowCore.sol:PayFlowCore",
        "label": "escrowVault",
        "offset": 0,
        "slot": "11",
        "type": "t_address"
      },
      {
        "astId": 6365,
        "contract": "contracts/PayFlowCore.sol:PayFlowCore",
        "label": "auditRegistry",
        "offset": 0,
        "slot": "12",
        "type": "t_address"
      },
      {
        "astId": 6368,
        "contract": "contracts/PayFlowCore.sol:PayFlowCore",
        "label": "protocolFeeBps",
        "offset": 0,
        "slot": "13",
        "type": "t_uint256"
      },
      {
        "astId": 6370,
        "contract": "contracts/PayFlowCore.sol:PayFlowCore",
        "label": "feeRecipient",
        "offset": 0,
        "slot": "14",
        "type": "t_address"
      },
      {
        "astId": 6375,
        "contract": "contracts/PayFlowCore.sol:PayFlowCore",
        "label": "maxPaymentAmount",
        "offset": 0,
        "slot": "15",
        "type": "t_uint256"
      },
      {
        "astId": 6377,
        "contract": "contracts/PayFlowCore.sol:PayFlowCore",
        "label": "totalPaymentsCreated",
        "offset": 0,
        "slot": "16",
        "type": "t_uint256"
      },
      {
        "astId": 6379,
        "contract": "contracts/PayFlowCore.sol:PayFlowCore",
        "label": "totalPaymentsExecuted",
        "offset": 0,
        "slot": "17",
        "type": "t_uint256"
      },
      {
        "astId": 6381,
        "contract": "contracts/PayFlowCore.sol:PayFlowCore",
        "label": "totalVolumeProcessed",
        "offset": 0,
        "slot": "18",
        "type": "t_uint256"
      },
      {
        "astId": 6383,
        "contract": "contracts/PayFlowCore.sol:PayFlowCore",
        "label": "averageSettlementTime",
        "offset": 0,
        "slot": "19",
        "type": "t_uint256"
      }
    ],
    "types": {
      "t_address": {
        "encoding": "inplace",
        "label": "address",
        "numberOfBytes": "20"
      },
      "t_array(t_address)dyn_storage": {
        "base": "t_address",
        "encoding": "dynamic_array",
        "label": "address[]",
        "numberOfBytes": "32"
      },
      "t_array(t_bytes32)dyn_storage": {
        "base": "t_bytes32",
        "encoding": "dynamic_array",
        "label": "bytes32[]",
        "numberOfBytes": "32"
      },
      "t_bool": {
        "encoding": "inplace",
        "label": "bool",
        "numberOfBytes": "1"
      },
      "t_bytes32": {
        "encoding": "inplace",
        "label": "bytes32",
        "numberOfBytes": "32"
      },
      "t_enum(ComplianceTier)6241": {
        "encoding": "inplace",
        "label": "enum PayFlowCore.ComplianceTier",
        "numberOfBytes": "1"
      },
      "t_enum(PaymentStatus)6235": {
        "encoding": "inplace",
        "label": "enum PayFlowCore.PaymentStatus",
        "numberOfBytes": "1"
      },
      "t_mapping(t_address,t_array(t_bytes32)dyn_storage)": {
        "encoding": "mapping",
        "key": "t_address",
        "label": "mapping(address => bytes32[])",
        "numberOfBytes": "32",
        "value": "t_array(t_bytes32)dyn_storage"
      },
      "t_mapping(t_address,t_bool)": {
        "encoding": "mapping",
        "key": "t_address",
        "label": "mapping(address => bool)",
        "numberOfBytes": "32",
        "value": "t_bool"
      },
      "t_mapping(t_bytes32,t_struct(Payment)6304_storage)": {
        "encoding": "mapping",
        "key": "t_bytes32",
        "label": "mapping(bytes32 => struct PayFlowCore.Payment)",
        "numberOfBytes": "32",
        "value": "t_struct(Payment)6304_storage"
      },
      "t_mapping(t_bytes32,t_struct(RoleData)21_storage)": {
        "encoding": "mapping",
        "key": "t_bytes32",
        "label": "mapping(bytes32 => struct AccessControl.RoleData)",
        "numberOfBytes": "32",
        "value": "t_struct(RoleData)21_storage"
      },
      "t_string_storage": {
        "encoding": "bytes",
        "label": "string",
        "numberOfBytes": "32"
      },
      "t_struct(Payment)6304_storage": {
        "encoding": "inplace",
        "label": "struct PayFlowCore.Payment",
        "members": [
          {
            "astId": 6271,
            "contract": "contracts/PayFlowCore.sol:PayFlowCore",
            "label": "paymentId",
            "offset": 0,
            "slot": "0",
            "type": "t_bytes32"
          },
          {
            "astId": 6273,
            "contract": "contracts/PayFlowCore.sol:PayFlowCore",
            "label": "sender",
            "offset": 0,
            "slot": "1",
            "type": "t_address"
          },
          {
            "astId": 6275,
            "contract": "contracts/PayFlowCore.sol:PayFlowCore",
            "label": "recipient",
            "offset": 0,
            "slot": "2",
            "type": "t_address"
          },
          {
            "astId": 6277,
            "contract": "contracts/PayFlowCore.sol:PayFlowCore",
            "label": "token",
            "offset": 0,
            "slot": "3",
            "type": "t_address"
          },
          {
            "astId": 6279,
            "contract": "contracts/PayFlowCore.sol:PayFlowCore",
            "label": "amount",
            "offset": 0,
            "slot": "4",
            "type": "t_uint256"
          },
          {
            "astId": 6281,
            "contract": "contracts/PayFlowCore.sol:PayFlowCore",
            "label": "targetToken",
            "offset": 0,
            "slot": "5",
            "type": "t_address"
          },
          {
            "astId": 6283,
            "contract": "contracts/PayFlowCore.sol:PayFlowCore",
            "label": "targetAmount",
            "offset": 0,
            "slot": "6",
            "type": "t_uint256"
          },
          {
            "astId": 6286,
            "contract": "contracts/PayFlowCore.sol:PayFlowCore",
            "label": "status",
            "offset": 0,
            "slot": "7",
            "type": "t_enum(PaymentStatus)6235"
          },
          {
            "astId": 6288,
            "contract": "contracts/PayFlowCore.sol:PayFlowCore",
            "label": "createdAt",
            "offset": 0,
            "slot": "8",
            "type": "t_uint256"
          },
          {
            "astId": 6290,
            "contract": "contracts/PayFlowCore.sol:PayFlowCore",
            "label": "executedAt",
            "offset": 0,
            "slot": "9",
            "type": "t_uint256"
          },
          {
            "astId": 6293,
            "contract": "contracts/PayFlowCore.sol:PayFlowCore",
            "label": "conditions",
            "offset": 0,
            "slot": "10",
            "type": "t_struct(PaymentConditions)6269_storage"
          },
          {
            "astId": 6295,
            "contract": "contracts/PayFlowCore.sol:PayFlowCore",
            "label": "approvalCount",
            "offset": 0,
            "slot": "20",
            "type": "t_uint256"
          },
          {
            "astId": 6299,
            "contract": "contracts/PayFlowCore.sol:PayFlowCore",
            "label": "hasApproved",
            "offset": 0,
            "slot": "21",
            "type": "t_mapping(t_address,t_bool)"
          },
          {
            "astId": 6301,
            "contract": "contracts/PayFlowCore.sol:PayFlowCore",
            "label": "referenceId",
            "offset": 0,
            "slot": "22",
            "type": "t_bytes32"
          },
          {
            "astId": 6303,
            "contract": "contracts/PayFlowCore.sol:PayFlowCore",
            "label": "memo",
            "offset": 0,
            "slot": "23",
            "type": "t_string_storage"
          }
        ],
        "numberOfBytes": "768"
      },
      "t_struct(PaymentConditions)6269_storage": {
        "encoding": "inplace",
        "label": "struct PayFlowCore.PaymentConditions",
        "members": [
          {
            "astId": 6244,
            "contract": "contracts/PayFlowCore.sol:PayFlowCore",
            "label": "requiredSenderTier",
            "offset": 0,
            "slot": "0",
            "type": "t_enum(ComplianceTier)6241"
          },
          {
            "astId": 6247,
            "contract": "contracts/PayFlowCore.sol:PayFlowCore",
            "label": "requiredRecipientTier",
            "offset": 1,
            "slot": "0",
            "type": "t_enum(ComplianceTier)6241"
          },
          {
            "astId": 6249,
            "contract": "contracts/PayFlowCore.sol:PayFlowCore",
            "label": "requireSanctionsCheck",
            "offset": 2,
            "slot": "0",
            "type": "t_bool"
          },
          {
            "astId": 6251,
            "contract": "contracts/PayFlowCore.sol:PayFlowCore",
            "label": "validFrom",
            "offset": 0,
            "slot": "1",
            "type": "t_uint256"
          },
          {
            "astId": 6253,
            "contract": "contracts/PayFlowCore.sol:PayFlowCore",
            "label": "validUntil",
            "offset": 0,
            "slot": "2",
            "type": "t_uint256"
          },
          {
            "astId": 6255,
            "contract": "contracts/PayFlowCore.sol:PayFlowCore",
            "label": "businessHoursOnly",
            "offset": 0,
            "slot": "3",
            "type": "t_bool"
          },
          {
            "astId": 6257,
            "contract": "contracts/PayFlowCore.sol:PayFlowCore",
            "label": "maxSlippage",
            "offset": 0,
            "slot": "4",
            "type": "t_uint256"
          },
          {
            "astId": 6259,
            "contract": "contracts/PayFlowCore.sol:PayFlowCore",
            "label": "requiredApprovals",
            "offset": 0,
            "slot": "5",
            "type": "t_uint256"
          },
          {
            "astId": 6262,
            "contract": "contracts/PayFlowCore.sol:PayFlowCore",
            "label": "approvers",
            "offset": 0,
            "slot": "6",
            "type": "t_array(t_address)dyn_storage"
          },
          {
            "astId": 6264,
            "contract": "contracts/PayFlowCore.sol:PayFlowCore",
            "label": "useEscrow",
            "offset": 0,
            "slot": "7",
            "type": "t_bool"
          },
          {
            "astId": 6266,
            "contract": "contracts/PayFlowCore.sol:PayFlowCore",
            "label": "escrowReleaseTime",
            "offset": 0,
            "slot": "8",
            "type": "t_uint256"
          },
          {
            "astId": 6268,
            "contract": "contracts/PayFlowCore.sol:PayFlowCore",
            "label": "escrowConditionHash",
            "offset": 0,
            "slot": "9",
            "type": "t_bytes32"
          }
        ],
        "numberOfBytes": "320"
      },
      "t_struct(RoleData)21_storage": {
        "encoding": "inplace",
        "label": "struct AccessControl.RoleData",
        "members": [
          {
            "astId": 18,
            "contract": "contracts/PayFlowCore.sol:PayFlowCore",
            "label": "hasRole",
            "offset": 0,
            "slot": "0",
            "type": "t_mapping(t_address,t_bool)"
          },
          {
            "astId": 20,
            "contract": "contracts/PayFlowCore.sol:PayFlowCore",
            "label": "adminRole",
            "offset": 0,
            "slot": "1",
            "type": "t_bytes32"
          }
        ],
        "numberOfBytes": "64"
      },
      "t_uint256": {
        "encoding": "inplace",
        "label": "uint256",
        "numberOfBytes": "32"
      }
    }
  }
}