{
  "address": "0x24DB2e1B585f90Adb27b71a36734aBe00A206CEf",
  "abi": [
    {
      "inputs": [],
      "stateMutability": "nonpayable",
      "type": "constructor"
    },
    {
      "inputs": [],
      "name": "AccessControlBadConfirmation",
      "type": "error"
    },
    {
      "inputs": [
        {
          "internalType": "address",
          "name": "account",
          "type": "address"
        },
        {
          "internalType": "bytes32",
          "name": "neededRole",
          "type": "bytes32"
        }
      ],
      "name": "AccessControlUnauthorizedAccount",
      "type": "error"
    },
    {
      "inputs": [
        {
          "internalType": "address",
          "name": "target",
          "type": "address"
        }
      ],
      "name": "AddressEmptyCode",
      "type": "error"
    },
    {
      "inputs": [
        {
          "internalType": "address",
          "name": "account",
          "type": "address"
        }
      ],
      "name": "AddressInsufficientBalance",
      "type": "error"
    },
    {
      "inputs": [],
      "name": "FailedInnerCall",
      "type": "error"
    },
    {
      "inputs": [],
      "name": "ReentrancyGuardReentrantCall",
      "type": "error"
    },
    {
      "inputs": [
        {
          "internalType": "address",
          "name": "token",
          "type": "address"
        }
      ],
      "name": "SafeERC20FailedOperation",
      "type": "error"
    },
    {
      "anonymous": false,
      "inputs": [
        {
          "indexed": true,
          "internalType": "bytes32",
          "name": "escrowId",
          "type": "bytes32"
        },
        {
          "indexed": true,
          "internalType": "address",
          "name": "resolvedBy",
          "type": "address"
        },
        {
          "indexed": false,
          "internalType": "address",
          "name": "recipient",
          "type": "address"
        },
        {
          "indexed": false,
          "internalType": "uint256",
          "name": "amount",
          "type": "uint256"
        }
      ],
      "name": "DisputeResolved",
      "type": "event"
    },
    {
      "anonymous": false,
      "inputs": [
        {
          "indexed": true,
          "internalType": "bytes32",
          "name": "escrowId",
          "type": "bytes32"
        },
        {
          "indexed": true,
          "internalType": "address",
          "name": "approver",
          "type": "address"
        }
      ],
      "name": "EscrowApproved",
      "type": "event"
    },
    {
      "anonymous": false,
      "inputs": [
        {
          "indexed": true,
          "internalType": "bytes32",
          "name": "escrowId",
          "type": "bytes32"
        },
        {
          "indexed": true,
          "internalType": "bytes32",
          "name": "paymentId",
          "type": "bytes32"
        },
        {
          "indexed": false,
          "internalType": "address",
          "name": "depositor",
          "type": "address"
        },
        {
          "indexed": false,
          "internalType": "address",
          "name": "beneficiary",
          "type": "address"
        },
        {
          "indexed": false,
          "internalType": "uint256",
          "name": "amount",
          "type": "uint256"
        }
      ],
      "name": "EscrowCreated",
      "type": "event"
    },
    {
      "anonymous": false,
      "inputs": [
        {
          "indexed": true,
          "internalType": "bytes32",
          "name": "escrowId",
          "type": "bytes32"
        },
        {
          "indexed": true,
          "internalType": "address",
          "name": "disputedBy",
          "type": "address"
        },
        {
          "indexed": false,
          "internalType": "string",
          "name": "reason",
          "type": "string"
        }
      ],
      "name": "EscrowDisputed",
      "type": "event"
    },
    {
      "anonymous": false,
      "inputs": [
        {
          "indexed": true,
          "internalType": "bytes32",
          "name": "escrowId",
          "type": "bytes32"
        },
        {
          "indexed": true,
          "internalType": "address",
          "name": "depositor",
          "type": "address"
        },
        {
          "indexed": false,
          "internalType": "uint256",
          "name": "amount",
          "type": "uint256"
        }
      ],
      "name": "EscrowRefunded",
      "type": "event"
    },
    {
      "anonymous": false,
      "inputs": [
        {
          "indexed": true,
          "internalType": "bytes32",
          "name": "escrowId",
          "type": "bytes32"
        },
        {
          "indexed": true,
          "internalType": "address",
          "name": "beneficiary",
          "type": "address"
        },
        {
          "indexed": false,
          "internalType": "uint256",
          "name": "amount",
          "type": "uint256"
        }
      ],
      "name": "EscrowReleased",
      "type": "event"
    },
    {
      "anonymous": false,
      "inputs": [
        {
          "indexed": true,
          "internalType": "bytes32",
          "name": "role",
          "type": "bytes32"
        },
        {
          "indexed": true,
          "internalType": "bytes32",
          "name": "previousAdminRole",
          "type": "bytes32"
        },
        {
          "indexed": true,
          "internalType": "bytes32",
          "name": "newAdminRole",
          "type": "bytes32"
        }
      ],
      "name": "RoleAdminChanged",
      "type": "event"
    },
    {
      "anonymous": false,
      "inputs": [
        {
          "indexed": true,
          "internalType": "bytes32",
          "name": "role",
          "type": "bytes32"
        },
        {
          "indexed": true,
          "internalType": "address",
          "name": "account",
          "type": "address"
        },
        {
          "indexed": true,
          "internalType": "address",
          "name": "sender",
          "type": "address"
        }
      ],
      "name": "RoleGranted",
      "type": "event"
    },
    {
      "anonymous": false,
      "inputs": [
        {
          "indexed": true,
          "internalType": "bytes32",
          "name": "role",
          "type": "bytes32"
        },
        {
          "indexed": true,
          "internalType": "address",
          "name": "account",
          "type": "address"
        },
        {
          "indexed": true,
          "internalType": "address",
          "name": "sender",
          "type": "address"
        }
      ],
      "name": "RoleRevoked",
      "type": "event"
    },
    {
      "inputs": [],
      "name": "ARBITER_ROLE",
      "outputs": [
        {
          "internalType": "bytes32",
          "name": "",
          "type": "bytes32"
        }
      ],
      "stateMutability": "view",
      "type": "function"
    },
    {
      "inputs": [],
      "name": "DEFAULT_ADMIN_ROLE",
      "outputs": [
        {
          "internalType": "bytes32",
          "name": "",
          "type": "bytes32"
        }
      ],
      "stateMutability": "view",
      "type": "function"
    },
    {
      "inputs": [],
      "name": "OPERATOR_ROLE",
      "outputs": [
        {
          "internalType": "bytes32",
          "name": "",
          "type": "bytes32"
        }
      ],
      "stateMutability": "view",
      "type": "function"
    },
    {
      "inputs": [
        {
          "internalType": "bytes32",
          "name": "escrowId",
          "type": "bytes32"
        }
      ],
      "name": "approveRelease",
      "outputs": [],
      "stateMutability": "nonpayable",
      "type": "function"
    },
    {
      "inputs": [
        {
          "internalType": "bytes32",
          "name": "paymentId",
          "type": "bytes32"
        },
        {
          "internalType": "address",
          "name": "beneficiary",
          "type": "address"
        },
        {
          "internalType": "address",
          "name": "token",
          "type": "address"
        },
        {
          "internalType": "uint256",
          "name": "amount",
          "type": "uint256"
        },
        {
          "internalType": "uint256",
          "name": "disputeDeadline",
          "type": "uint256"
        },
        {
          "internalType": "string",
          "name": "description",
          "type": "string"
        }
      ],
      "name": "createApprovalEscrow",
      "outputs": [
        {
          "internalType": "bytes32",
          "name": "escrowId",
          "type": "bytes32"
        }
      ],
      "stateMutability": "nonpayable",
      "type": "function"
    },
    {
      "inputs": [
        {
          "internalType": "bytes32",
          "name": "paymentId",
          "type": "bytes32"
        },
        {
          "internalType": "address",
          "name": "beneficiary",
          "type": "address"
        },
        {
          "internalType": "address",
          "name": "token",
          "type": "address"
        },
        {
          "internalType": "uint256",
          "name": "amount",
          "type": "uint256"
        },
        {
          "internalType": "uint256",
          "name": "releaseTime",
          "type": "uint256"
        },
        {
          "internalType": "uint256",
          "name": "disputeWindow",
          "type": "uint256"
        },
        {
          "internalType": "string",
          "name": "description",
          "type": "string"
        }
      ],
      "name": "createTimeBasedEscrow",
      "outputs": [
        {
          "internalType": "bytes32",
          "name": "escrowId",
          "type": "bytes32"
        }
      ],
      "stateMutability": "nonpayable",
      "type": "function"
    },
    {
      "inputs": [],
      "name": "escrowFeeBps",
      "outputs": [
        {
          "internalType": "uint256",
          "name": "",
          "type": "uint256"
        }
      ],
      "stateMutability": "view",
      "type": "function"
    },
    {
      "inputs": [
        {
          "internalType": "uint256",
          "name": "",
          "type": "uint256"
        }
      ],
      "name": "escrowIds",
      "outputs": [
        {
          "internalType": "bytes32",
          "name": "",
          "type": "bytes32"
        }
      ],
      "stateMutability": "view",
      "type": "function"
    },
    {
      "inputs": [],
      "name": "feeRecipient",
      "outputs": [
        {
          "internalType": "address",
          "name": "",
          "type": "address"
        }
      ],
      "stateMutability": "view",
      "type": "function"
    },
    {
      "inputs": [
        {
          "internalType": "bytes32",
          "name": "escrowId",
          "type": "bytes32"
        }
      ],
      "name": "getEscrow",
      "outputs": [
        {
          "components": [
            {
              "internalType": "bytes32",
              "name": "escrowId",
              "type": "bytes32"
            },
            {
              "internalType": "bytes32",
              "name": "paymentId",
              "type": "bytes32"
            },
            {
              "internalType": "address",
              "name": "depositor",
              "type": "address"
            },
            {
              "internalType": "address",
              "name": "beneficiary",
              "type": "address"
            },
            {
              "internalType": "address",
              "name": "token",
              "type": "address"
            },
            {
              "internalType": "uint256",
              "name": "amount",
              "type": "uint256"
            },
            {
              "internalType": "enum SmartEscrow.EscrowStatus",
              "name": "status",
              "type": "uint8"
            },
            {
              "internalType": "enum SmartEscrow.ReleaseCondition",
              "name": "conditionType",
              "type": "uint8"
            },
            {
              "internalType": "uint256",
              "name": "releaseTime",
              "type": "uint256"
            },
            {
              "internalType": "bool",
              "name": "depositorApproved",
              "type": "bool"
            },
            {
              "internalType": "bool",
              "name": "beneficiaryApproved",
              "type": "bool"
            },
            {
              "internalType": "uint256",
              "name": "createdAt",
              "type": "uint256"
            }
          ],
          "internalType": "struct SmartEscrow.EscrowView",
          "name": "",
          "type": "tuple"
        }
      ],
      "stateMutability": "view",
      "type": "function"
    },
    {
      "inputs": [],
      "name": "getProtocolStats",
      "outputs": [
        {
          "internalType": "uint256",
          "name": "created",
          "type": "uint256"
        },
        {
          "internalType": "uint256",
          "name": "locked",
          "type": "uint256"
        },
        {
          "internalType": "uint256",
          "name": "released",
          "type": "uint256"
        }
      ],
      "stateMutability": "view",
      "type": "function"
    },
    {
      "inputs": [
        {
          "internalType": "bytes32",
          "name": "role",
          "type": "bytes32"
        }
      ],
      "name": "getRoleAdmin",
      "outputs": [
        {
          "internalType": "bytes32",
          "name": "",
          "type": "bytes32"
        }
      ],
      "stateMutability": "view",
      "type": "function"
    },
    {
      "inputs": [
        {
          "internalType": "bytes32",
          "name": "role",
          "type": "bytes32"
        },
        {
          "internalType": "address",
          "name": "account",
          "type": "address"
        }
      ],
      "name": "grantRole",
      "outputs": [],
      "stateMutability": "nonpayable",
      "type": "function"
    },
    {
      "inputs": [
        {
          "internalType": "bytes32",
          "name": "role",
          "type": "bytes32"
        },
        {
          "internalType": "address",
          "name": "account",
          "type": "address"
        }
      ],
      "name": "hasRole",
      "outputs": [
        {
          "internalType": "bool",
          "name": "",
          "type": "bool"
        }
      ],
      "stateMutability": "view",
      "type": "function"
    },
    {
      "inputs": [],
      "name": "payFlowCore",
      "outputs": [
        {
          "internalType": "address",
          "name": "",
          "type": "address"
        }
      ],
      "stateMutability": "view",
      "type": "function"
    },
    {
      "inputs": [
        {
          "internalType": "bytes32",
          "name": "escrowId",
          "type": "bytes32"
        },
        {
          "internalType": "string",
          "name": "reason",
          "type": "string"
        }
      ],
      "name": "raiseDispute",
      "outputs": [],
      "stateMutability": "nonpayable",
      "type": "function"
    },
    {
      "inputs": [
        {
          "internalType": "bytes32",
          "name": "escrowId",
          "type": "bytes32"
        }
      ],
      "name": "releaseEscrow",
      "outputs": [],
      "stateMutability": "nonpayable",
      "type": "function"
    },
    {
      "inputs": [
        {
          "internalType": "bytes32",
          "name": "role",
          "type": "bytes32"
        },
        {
          "internalType": "address",
          "name": "callerConfirmation",
          "type": "address"
        }
      ],
      "name": "renounceRole",
      "outputs": [],
      "stateMutability": "nonpayable",
      "type": "function"
    },
    {
      "inputs": [
        {
          "internalType": "bytes32",
          "name": "escrowId",
          "type": "bytes32"
        }
      ],
      "name": "requestRefund",
      "outputs": [],
      "stateMutability": "nonpayable",
      "type": "function"
    },
    {
      "inputs": [
        {
          "internalType": "bytes32",
          "name": "escrowId",
          "type": "bytes32"
        },
        {
          "internalType": "address",
          "name": "recipient",
          "type": "address"
        },
        {
          "internalType": "uint256",
          "name": "amount",
          "type": "uint256"
        }
      ],
      "name": "resolveDispute",
      "outputs": [],
      "stateMutability": "nonpayable",
      "type": "function"
    },
    {
      "inputs": [
        {
          "internalType": "bytes32",
          "name": "role",
          "type": "bytes32"
        },
        {
          "internalType": "address",
          "name": "account",
          "type": "address"
        }
      ],
      "name": "revokeRole",
      "outputs": [],
      "stateMutability": "nonpayable",
      "type": "function"
    },
    {
      "inputs": [
        {
          "internalType": "uint256",
          "name": "_feeBps",
          "type": "uint256"
        }
      ],
      "name": "setEscrowFee",
      "outputs": [],
      "stateMutability": "nonpayable",
      "type": "function"
    },
    {
      "inputs": [
        {
          "internalType": "address",
          "name": "_recipient",
          "type": "address"
        }
      ],
      "name": "setFeeRecipient",
      "outputs": [],
      "stateMutability": "nonpayable",
      "type": "function"
    },
    {
      "inputs": [
        {
          "internalType": "bytes32",
          "name": "escrowId",
          "type": "bytes32"
        }
      ],
      "name": "setOracleConditionMet",
      "outputs": [],
      "stateMutability": "nonpayable",
      "type": "function"
    },
    {
      "inputs": [
        {
          "internalType": "address",
          "name": "_core",
          "type": "address"
        }
      ],
      "name": "setPayFlowCore",
      "outputs": [],
      "stateMutability": "nonpayable",
      "type": "function"
    },
    {
      "inputs": [
        {
          "internalType": "bytes4",
          "name": "interfaceId",
          "type": "bytes4"
        }
      ],
      "name": "supportsInterface",
      "outputs": [
        {
          "internalType": "bool",
          "name": "",
          "type": "bool"
        }
      ],
      "stateMutability": "view",
      "type": "function"
    },
    {
      "inputs": [],
      "name": "totalEscrowsCreated",
      "outputs": [
        {
          "internalType": "uint256",
          "name": "",
          "type": "uint256"
        }
      ],
      "stateMutability": "view",
      "type": "function"
    },
    {
      "inputs": [],
      "name": "totalReleased",
      "outputs": [
        {
          "internalType": "uint256",
          "name": "",
          "type": "uint256"
        }
      ],
      "stateMutability": "view",
      "type": "function"
    },
    {
      "inputs": [],
      "name": "totalValueLocked",
      "outputs": [
        {
          "internalType": "uint256",
          "name": "",
          "type": "uint256"
        }
      ],
      "stateMutability": "view",
      "type": "function"
    },
    {
      "inputs": [
        {
          "internalType": "address",
          "name": "",
          "type": "address"
        },
        {
          "internalType": "uint256",
          "name": "",
          "type": "uint256"
        }
      ],
      "name": "userEscrowsAsBeneficiary",
      "outputs": [
        {
          "internalType": "bytes32",
          "name": "",
          "type": "bytes32"
        }
      ],
      "stateMutability": "view",
      "type": "function"
    },
    {
      "inputs": [
        {
          "internalType": "address",
          "name": "",
          "type": "address"
        },
        {
          "internalType": "uint256",
          "name": "",
          "type": "uint256"
        }
      ],
      "name": "userEscrowsAsDepositor",
      "outputs": [
        {
          "internalType": "bytes32",
          "name": "",
          "type": "bytes32"
        }
      ],
      "stateMutability": "view",
      "type": "function"
    }
  ],
  "transactionHash": "0x74b9c3ce5a0a6d7d70bbe8d63a011ea2ca3a39b2f93467712941244ac51d55b7",
  "args": [],
  "numDeployments": 1,
  "solcInputHash": "c67737e51f0b406cca842b1a124d52ef",
  "bytecode": "0x60806040523462000059576001805560056006556200001e336200005e565b506200002a33620000de565b50620000363362000180565b50600780546001600160a01b0319163317905560405161203090816200021e8239f35b600080fd5b6001600160a01b031660008181527fad3228b676f7d3cd4284a5443f17f1962b36e491b30a40b2405849e597ba5fb5602052604081205490919060ff16620000da57818052816020526040822081835260205260408220600160ff1982541617905533916000805160206200224e8339815191528180a4600190565b5090565b6001600160a01b031660008181527fee57cd81e84075558e8fcc182a1f4393f91fc97f963a136e66b7f949a62f319f60205260408120549091907f97667070c54ef182b0f5858b034beac1b6f3089aa2d3188bb1e8929f4fa9b9299060ff166200017b57808352826020526040832082845260205260408320600160ff198254161790556000805160206200224e833981519152339380a4600190565b505090565b6001600160a01b031660008181527f89777fffb7045c97177d1161cd08d871365cb73d0b18f242761255a7718434cf60205260408120549091907fbb08418a67729a078f87bbc8d02a770929bb68f5bfdf134ae2ead6ed38e2f4ae9060ff166200017b57808352826020526040832082845260205260408320600160ff198254161790556000805160206200224e833981519152339380a460019056fe608080604052600436101561001357600080fd5b60003560e01c90816301ffc9a7146118055750806314081e39146117ac57806315376632146116e0578063248a9ca3146116b15780632f2ff15d1461167257806336568abe1461162b57806336f67274146114c8578063469048401461149f5780634d104adf14611476578063551076361461142c578063578375b1146113d45780635f4ae1e914611013578063730fb03214610fea578063771aceef14610fbb578063775274a114610e4b578063786f129514610e0c5780637fa13d1214610dee578063882cc8b314610dd05780639177998b1461095157806391d1485414610904578063a0770e67146108c1578063a217fddf146108a5578063be7b8a7714610738578063bf89fc6114610692578063d547741f14610651578063e25f623d14610405578063e33b7de3146103e7578063e74b981b146103a4578063ec18154e14610386578063f023b811146101a25763f5b541a61461017457600080fd5b3461019d57600036600319011261019d576020604051600080516020611fbb8339815191528152f35b600080fd5b3461019d57602036600319011261019d5760006101606040516101c481611b13565b8281528260208201528260408201528260608201528260808201528260a08201528260c08201528260e082015282610100820152826101208201528261014082015201526004356000526002602052610180604060002080549060ff60018201549160018060a01b036002820154168260018060a01b0360038401541660018060a01b036005850154166006850154906008860154926009870154956011600b890154980154996040519b6102788d611b13565b8c5260208c015260408b015260608a0152608089015260a088015281811661029f816118f5565b60c088015260081c166102b1816118f5565b60e0860152610100850152818116151561012085015260081c16151561014083015261016082015261016060405191805183526020810151602084015260018060a01b03604082015116604084015260018060a01b03606082015116606084015260018060a01b03608082015116608084015260a081015160a084015260c081015161033c816118f5565b60c084015260e081015161034f816118f5565b60e0840152610100810151610100840152610120810151151561012084015261014081015115156101408401520151610160820152f35b3461019d57600036600319011261019d576020600a54604051908152f35b3461019d57602036600319011261019d576103bd61186e565b6103c5611915565b600780546001600160a01b0319166001600160a01b0392909216919091179055005b3461019d57600036600319011261019d576020600b54604051908152f35b3461019d57606036600319011261019d57600435610421611858565b90604435600080516020611f9b8339815191528060005260209060008252604060002033600052825260ff604060002054161561063357508260005260028152604060002061047284825414611da8565b6008810190600360ff835416610487816118f5565b036105ff576002810180546001600160a01b0388811693918116841480156105f0575b156105b75760068201958654881161058157509261052d959287959261051c957f91654c3192b2addfcd6b387551723a49e39352c8d5f6d4e5132003dc699fdbad9961056b575b6104fc888754611b6d565b9283610532575b5050505050600160ff1982541617905554600a54611b6d565b600a55604051918291339683611c14565b0390a3005b81600591610558968260038701541680911460001461056257505416925b015416611c2f565b8880808080610503565b91505092610550565b61057c888d83600586015416611c2f565b6104f1565b6064906040519062461bcd60e51b82526004820152600f60248201526e082dadeeadce840e8dede40d0d2ced608b1b6044820152fd5b60405162461bcd60e51b8152600481018790526011602482015270125b9d985b1a59081c9958da5c1a595b9d607a1b6044820152606490fd5b508060038301541684146104aa565b60405162461bcd60e51b815260048101849052600c60248201526b139bdd08191a5cdc1d5d195960a21b6044820152606490fd5b6044906040519063e2517d3f60e01b82523360048301526024820152fd5b3461019d57604036600319011261019d57610690600435610670611858565b9080600052600060205261068b60016040600020015461194f565b6119f3565b005b3461019d57602036600319011261019d576004356106ae611af0565b8060005260026020526106ea60406000206106cb83825414611da8565b6106e560ff6008830154166106df816118f5565b15611de7565b611ef7565b156106fe576106f890611e5f565b60018055005b60405162461bcd60e51b815260206004820152601260248201527110dbdb991a5d1a5bdb9cc81b9bdd081b595d60721b6044820152606490fd5b3461019d57604036600319011261019d576004356024356001600160401b03811161019d5761076b9036906004016118c8565b919081600052600260205260406000209061078883835414611da8565b6008820180549261079f60ff85166106df816118f5565b6002810154336001600160a01b0391821614908115610895575b501561086257600a015442116108255760037f85df63e82b1c4b692591e851fd05ac7c87d4dd28557d780c47c462a11f64e0c89360ff191617905583604051916020835281602084015260408301376000604085830101526040813395601f80199101168101030190a3005b60405162461bcd60e51b8152602060048201526015602482015274111a5cdc1d5d19481dda5b991bddc818db1bdcd959605a1b6044820152606490fd5b60405162461bcd60e51b815260206004820152600b60248201526a4e6f74206120706172747960a81b6044820152606490fd5b90506003820154163314876107b9565b3461019d57600036600319011261019d57602060405160008152f35b3461019d57602036600319011261019d576108da61186e565b6108e2611915565b600880546001600160a01b0319166001600160a01b0392909216919091179055005b3461019d57604036600319011261019d5761091d611858565b600435600052600060205260406000209060018060a01b0316600052602052602060ff604060002054166040519015158152f35b3461019d5760e036600319011261019d5761096a611858565b610972611884565b9060c4356001600160401b03811161019d576109929036906004016118c8565b919061099c611af0565b6109b06001600160a01b0383161515611a68565b6109bd6064351515611aaa565b426084351115610d8d57600954604051602081019160018060601b0319803360601b168452808660601b1660348401528760601b166048830152606435605c83015242607c830152609c820152609c8152610a1781611b2f565b51902092600654906064358260643502048214606435151715610c72576040516323b872dd60e01b6020820152610a7a90610a6b81610a5d606435303360248501611bf2565b03601f198101835282611b4a565b6001600160a01b038816611c6b565b84600052600260205260406000209285845560043560018501556002840160018060a01b03199033828254161790556003850160018060a01b03871682825416179055600485013382825416179055600585019060018060a01b03891690825416179055610af2612710846064350204606435611b6d565b6006850155612710606435840204600785015560088401805461ffff191690556084356009850155610b2660a43542611b7a565b600a8501554260118501556001600160401b038211610d7757601284015490600182811c92168015610d6d575b6020831014610d575781601f849311610d04575b50600090601f8311600114610c9357600092610c88575b50508160011b916000199060031b1c19161760128301555b610b9f84611b87565b336000526004602052610bb6846040600020611bbd565b60018060a01b0383166000526005602052610bd5846040600020611bbd565b600954946000198614610c725760068593600080516020611fdb83398151915293610c3893600160209a01600955610c1284840154600a54611b7a565b600a55612710826064350204610c47575b50500154604051918291600435963384611bf2565b0390a360018055604051908152f35b600754610c6b9261271060643590910204916001600160a01b039182169116611c2f565b8880610c23565b634e487b7160e01b600052601160045260246000fd5b013590508780610b7e565b909250601285016000526020600020906000935b601f1984168510610cec576001945083601f19811610610cd2575b505050811b016012830155610b96565b0135600019600384901b60f8161c19169055878080610cc2565b81810135835560209485019460019093019201610ca7565b909150601285016000526020600020601f840160051c810160208510610d50575b90849392915b601f830160051c82018110610d41575050610b67565b60008155859450600101610d2b565b5080610d25565b634e487b7160e01b600052602260045260246000fd5b91607f1691610b53565b634e487b7160e01b600052604160045260246000fd5b60405162461bcd60e51b815260206004820152601b60248201527a52656c656173652074696d65206d7573742062652066757475726560281b6044820152606490fd5b3461019d57600036600319011261019d576020600954604051908152f35b3461019d57600036600319011261019d576020600654604051908152f35b3461019d57602036600319011261019d5760043560035481101561019d576003600052600080516020611f7b8339815191520154604051908152602090f35b3461019d5760208060031936011261019d57600435610e68611af0565b8060005260028252604060002090610e8281835414611da8565b6002820180549093906001600160a01b039081163303610f86576008840194855495610eb460ff88166106df816118f5565b600160ff8860081c16610ec6816118f5565b14610f34575b60027ffc31a7ddbe933aa6e67f3c98c183fbc87addd2b602fcfb10238d2f85cf02661795969760ff1916179055610f238260056006890198610f118a54600a54611b6d565b600a5501541683835416885491611c2f565b54169354604051908152a360018055005b60ff600b87015460081c16610ecc576064846040519062461bcd60e51b825280600483015260248201527f42656e6566696369617279206d75737420616772656520746f20726566756e646044820152fd5b60405162461bcd60e51b815260048101839052600d60248201526c2737ba103232b837b9b4ba37b960991b6044820152606490fd5b3461019d57600036600319011261019d576060600954600a54600b549060405192835260208301526040820152f35b3461019d57600036600319011261019d576008546040516001600160a01b039091168152602090f35b3461019d5760c036600319011261019d5761102c611858565b611034611884565b6001600160401b03916064359160a43584811161019d576110599036906004016118c8565b919093611064611af0565b6110786001600160a01b0385161515611a68565b8015926110858415611aaa565b600954604051602081019160018060601b0319803360601b168452808960601b1660348401528660601b16604883015284605c83015242607c830152609c820152609c81526110d381611b2f565b5190209560065494838681020486141715610c72576040516323b872dd60e01b602082015261111e9061110f81610a5d87303360248501611bf2565b6001600160a01b038616611c6b565b86600052600260205260406000209787895560043560018a01556002890160018060a01b031990338282541617905560038a0160018060a01b0389168282541617905560048a01338282541617905560058a019060018060a01b038716908254161790556111926127108786020485611b6d565b60068a01556127108487020460078a015560088901805461ffff1916610100179055600060098a01556111c760843542611b7a565b600a8a01554260118a01558211610d7757601288015490600182811c921680156113ca575b6020831014610d575781601f849311611377575b50600090601f8311600114611306576000926112fb575b50508160011b916000199060031b1c19161760128701555b61123885611b87565b33600052600460205261124f856040600020611bbd565b60018060a01b038416600052600560205261126e856040600020611bbd565b6009546000198114610c72576020968694600080516020611fdb83398151915294610c38946001600695016009556112ab85850154600a54611b7a565b600a55612710838202046112d0575b5050500154604051918291600435963384611bf2565b6007546112f393612710920291909104916001600160a01b039182169116611c2f565b8880806112ba565b013590508880611217565b909250601289016000526020600020906000935b601f198416851061135f576001945083601f19811610611345575b505050811b01601287015561122f565b0135600019600384901b60f8161c19169055888080611335565b8181013583556020948501946001909301920161131a565b909150601289016000526020600020601f840160051c8101602085106113c3575b90849392915b601f830160051c820181106113b4575050611200565b6000815585945060010161139e565b5080611398565b91607f16916111ec565b3461019d57604036600319011261019d576113ed61186e565b6001600160a01b031660009081526005602052604090208054602435919082101561019d5760209161141e9161189a565b90546040519160031b1c8152f35b3461019d57604036600319011261019d5761144561186e565b6001600160a01b031660009081526004602052604090208054602435919082101561019d5760209161141e9161189a565b3461019d57600036600319011261019d576020604051600080516020611f9b8339815191528152f35b3461019d57600036600319011261019d576007546040516001600160a01b039091168152602090f35b3461019d57602036600319011261019d576004356114e4611af0565b80600052600260205260406000206114fe82825414611da8565b600881019061151460ff8354166106df816118f5565b60028101546001600160a01b039033908216036115b15750600b818160ff93016001815461154486821615611e20565b8519161790555b33857fa3ce32cffbc00bca646fc9e789b5dc28203c674cdd7f4727940a5d83a709c3ec600080a30154169081611596575b506115875760018055005b61159090611e5f565b806106f8565b546001915060081c60ff166115aa816118f5565b148261157c565b60038201541633146000146115e957600b818160ff930161010081546115dc868260081c1615611e20565b61ff00191617905561154b565b60405162461bcd60e51b815260206004820152601a6024820152794e6f74206120706172747920746f207468697320657363726f7760301b6044820152606490fd5b3461019d57604036600319011261019d57611644611858565b336001600160a01b0382160361166057610690906004356119f3565b60405163334bd91960e11b8152600490fd5b3461019d57604036600319011261019d57610690600435611691611858565b908060005260006020526116ac60016040600020015461194f565b611975565b3461019d57602036600319011261019d5760043560005260006020526020600160406000200154604051908152f35b3461019d57602036600319011261019d573360009081527fee57cd81e84075558e8fcc182a1f4393f91fc97f963a136e66b7f949a62f319f6020526040902054600080516020611fbb8339815191529060ff16156106335760043560005260026020526040600020600260ff600883015460081c1661175e816118f5565b0361177357601001805460ff19166001179055005b60405162461bcd60e51b81526020600482015260116024820152704e6f74206f7261636c6520657363726f7760781b6044820152606490fd5b3461019d57602036600319011261019d576004356117c8611915565b603281116117d557600655005b60405162461bcd60e51b81526020600482015260086024820152674d617820302e352560c01b6044820152606490fd5b3461019d57602036600319011261019d576004359063ffffffff60e01b821680920361019d57602091637965db0b60e01b8114908115611847575b5015158152f35b6301ffc9a760e01b14905083611840565b602435906001600160a01b038216820361019d57565b600435906001600160a01b038216820361019d57565b604435906001600160a01b038216820361019d57565b80548210156118b25760005260206000200190600090565b634e487b7160e01b600052603260045260246000fd5b9181601f8401121561019d578235916001600160401b03831161019d576020838186019501011161019d57565b600411156118ff57565b634e487b7160e01b600052602160045260246000fd5b3360009081527fad3228b676f7d3cd4284a5443f17f1962b36e491b30a40b2405849e597ba5fb5602052604081205460ff16156106335750565b80600052600060205260406000203360005260205260ff60406000205416156106335750565b9060009180835282602052604083209160018060a01b03169182845260205260ff604084205416156000146119ee57808352826020526040832082845260205260408320600160ff198254161790557f2f8788117e7eff1d82e926ec794901d17c78024a50270940304540a733656f0d339380a4600190565b505090565b9060009180835282602052604083209160018060a01b03169182845260205260ff6040842054166000146119ee5780835282602052604083208284526020526040832060ff1981541690557ff6391f5c32d9c69d2a47ea670b442974b53935d1edc7fd64eb21e047a839171b339380a4600190565b15611a6f57565b60405162461bcd60e51b8152602060048201526013602482015272496e76616c69642062656e656669636961727960681b6044820152606490fd5b15611ab157565b60405162461bcd60e51b8152602060048201526017602482015276416d6f756e74206d75737420626520706f73697469766560481b6044820152606490fd5b600260015414611b01576002600155565b604051633ee5aeb560e01b8152600490fd5b61018081019081106001600160401b03821117610d7757604052565b60c081019081106001600160401b03821117610d7757604052565b601f909101601f19168101906001600160401b03821190821017610d7757604052565b91908203918211610c7257565b91908201809211610c7257565b600354600160401b811015610d775760018101806003558110156118b2576003600052600080516020611f7b8339815191520155565b8054600160401b811015610d7757611bda9160018201815561189a565b819291549060031b91821b91600019901b1916179055565b6001600160a01b03918216815291166020820152604081019190915260600190565b6001600160a01b039091168152602081019190915260400190565b611c64611c699392611c5660405194859263a9059cbb60e01b602085015260248401611c14565b03601f198101845283611b4a565b611c6b565b565b60018060a01b031690600080826020829451910182865af13d15611d39573d906001600160401b038211611d255790611cc69160405191611cb66020601f19601f8401160184611b4a565b82523d84602084013e5b84611d45565b908151918215159283611cf6575b505050611cde5750565b60249060405190635274afe760e01b82526004820152fd5b819293509060209181010312611d21576020015190811591821503611d1e5750388080611cd4565b80fd5b5080fd5b634e487b7160e01b83526041600452602483fd5b611cc690606090611cc0565b90611d6c5750805115611d5a57805190602001fd5b604051630a12f52160e11b8152600490fd5b81511580611d9f575b611d7d575090565b604051639996b31560e01b81526001600160a01b039091166004820152602490fd5b50803b15611d75565b15611daf57565b60405162461bcd60e51b815260206004820152601060248201526f115cd8dc9bddc81b9bdd08199bdd5b9960821b6044820152606490fd5b15611dee57565b60405162461bcd60e51b815260206004820152600a6024820152694e6f742061637469766560b01b6044820152606490fd5b15611e2757565b60405162461bcd60e51b815260206004820152601060248201526f105b1c9958591e48185c1c1c9bdd995960821b6044820152606490fd5b80600052600260205260406000209060088201600160ff198254161790557f3a9c1cd29cd3be251a72ce3c367c27dc1cb697ac4589965b76a83f9a25ca071060206006840193611eb28554600a54611b6d565b600a55611ec28554600b54611b7a565b600b5560058101546003909101805486546001600160a01b0393611eea928516908516611c2f565b54169354604051908152a3565b60ff600882015460081c16611f0b816118f5565b8015611f6f57611f1a816118f5565b60018114611f6457611f2b816118f5565b60028114611f595780611f3f6003926118f5565b14611f4a5750600090565b600c600d820154910154111590565b506010015460ff1690565b50600b015460ff1690565b50600901544210159056fec2575a0e9e593c00f959f8c92f12db2869c3395a3b0502d05e2516446f71f85bbb08418a67729a078f87bbc8d02a770929bb68f5bfdf134ae2ead6ed38e2f4ae97667070c54ef182b0f5858b034beac1b6f3089aa2d3188bb1e8929f4fa9b92906db393dd3e0c6aa2ca35a4c044fc3220b73f599438edf1b64fb660f53550e30a2646970667358221220f46ebdc619d508118de3722154deb4c11e83296f2497cc8fa6813929160c226d64736f6c634300081400332f8788117e7eff1d82e926ec794901d17c78024a50270940304540a733656f0d",
  "devdoc": {
    "details": "Supports time-based, oracle-based, and multi-sig release conditions  USE CASES: - Cross-border trade finance (release on delivery confirmation) - Milestone-based payments (release on approval) - Dispute-protected transactions (automatic release after period)",
    "errors": {
      "AccessControlBadConfirmation()": [
        {
          "details": "The caller of a function is not the expected one. NOTE: Don't confuse with {AccessControlUnauthorizedAccount}."
        }
      ],
      "AccessControlUnauthorizedAccount(address,bytes32)": [
        {
          "details": "The `account` is missing a role."
        }
      ],
      "AddressEmptyCode(address)": [
        {
          "details": "There's no code at `target` (it is not a contract)."
        }
      ],
      "AddressInsufficientBalance(address)": [
        {
          "details": "The ETH balance of the account is not enough to perform the operation."
        }
      ],
      "FailedInnerCall()": [
        {
          "details": "A call to an address target failed. The target may have reverted."
        }
      ],
      "ReentrancyGuardReentrantCall()": [
        {
          "details": "Unauthorized reentrant call."
        }
      ],
      "SafeERC20FailedOperation(address)": [
        {
          "details": "An operation with an ERC20 token failed."
        }
      ]
    },
    "events": {
      "RoleAdminChanged(bytes32,bytes32,bytes32)": {
        "details": "Emitted when `newAdminRole` is set as ``role``'s admin role, replacing `previousAdminRole` `DEFAULT_ADMIN_ROLE` is the starting admin for all roles, despite {RoleAdminChanged} not being emitted signaling this."
      },
      "RoleGranted(bytes32,address,address)": {
        "details": "Emitted when `account` is granted `role`. `sender` is the account that originated the contract call, an admin role bearer except when using {AccessControl-_setupRole}."
      },
      "RoleRevoked(bytes32,address,address)": {
        "details": "Emitted when `account` is revoked `role`. `sender` is the account that originated the contract call:   - if using `revokeRole`, it is the admin role bearer   - if using `renounceRole`, it is the role bearer (i.e. `account`)"
      }
    },
    "kind": "dev",
    "methods": {
      "getRoleAdmin(bytes32)": {
        "details": "Returns the admin role that controls `role`. See {grantRole} and {revokeRole}. To change a role's admin, use {_setRoleAdmin}."
      },
      "grantRole(bytes32,address)": {
        "details": "Grants `role` to `account`. If `account` had not been already granted `role`, emits a {RoleGranted} event. Requirements: - the caller must have ``role``'s admin role. May emit a {RoleGranted} event."
      },
      "hasRole(bytes32,address)": {
        "details": "Returns `true` if `account` has been granted `role`."
      },
      "renounceRole(bytes32,address)": {
        "details": "Revokes `role` from the calling account. Roles are often managed via {grantRole} and {revokeRole}: this function's purpose is to provide a mechanism for accounts to lose their privileges if they are compromised (such as when a trusted device is misplaced). If the calling account had been revoked `role`, emits a {RoleRevoked} event. Requirements: - the caller must be `callerConfirmation`. May emit a {RoleRevoked} event."
      },
      "revokeRole(bytes32,address)": {
        "details": "Revokes `role` from `account`. If `account` had been granted `role`, emits a {RoleRevoked} event. Requirements: - the caller must have ``role``'s admin role. May emit a {RoleRevoked} event."
      },
      "supportsInterface(bytes4)": {
        "details": "See {IERC165-supportsInterface}."
      }
    },
    "title": "SmartEscrow",
    "version": 1
  },
  "userdoc": {
    "kind": "user",
    "methods": {
      "approveRelease(bytes32)": {
        "notice": "Approve escrow release (for approval-based escrows)"
      },
      "createApprovalEscrow(bytes32,address,address,uint256,uint256,string)": {
        "notice": "Create an approval-based escrow"
      },
      "createTimeBasedEscrow(bytes32,address,address,uint256,uint256,uint256,string)": {
        "notice": "Create a new time-based escrow"
      },
      "raiseDispute(bytes32,string)": {
        "notice": "Raise a dispute on an escrow"
      },
      "releaseEscrow(bytes32)": {
        "notice": "Release escrow to beneficiary"
      },
      "requestRefund(bytes32)": {
        "notice": "Request refund (depositor only, before release)"
      },
      "resolveDispute(bytes32,address,uint256)": {
        "notice": "Resolve a dispute (arbiter only)"
      },
      "setOracleConditionMet(bytes32)": {
        "notice": "Oracle callback to mark condition as met"
      }
    },
    "notice": "Programmable escrow with automatic release conditions",
    "version": 1
  },
  "storageLayout": {
    "storage": [
      {
        "astId": 26,
        "contract": "contracts/SmartEscrow.sol:SmartEscrow",
        "label": "_roles",
        "offset": 0,
        "slot": "0",
        "type": "t_mapping(t_bytes32,t_struct(RoleData)21_storage)"
      },
      {
        "astId": 2019,
        "contract": "contracts/SmartEscrow.sol:SmartEscrow",
        "label": "_status",
        "offset": 0,
        "slot": "1",
        "type": "t_uint256"
      },
      {
        "astId": 7868,
        "contract": "contracts/SmartEscrow.sol:SmartEscrow",
        "label": "escrows",
        "offset": 0,
        "slot": "2",
        "type": "t_mapping(t_bytes32,t_struct(Escrow)7836_storage)"
      },
      {
        "astId": 7871,
        "contract": "contracts/SmartEscrow.sol:SmartEscrow",
        "label": "escrowIds",
        "offset": 0,
        "slot": "3",
        "type": "t_array(t_bytes32)dyn_storage"
      },
      {
        "astId": 7876,
        "contract": "contracts/SmartEscrow.sol:SmartEscrow",
        "label": "userEscrowsAsDepositor",
        "offset": 0,
        "slot": "4",
        "type": "t_mapping(t_address,t_array(t_bytes32)dyn_storage)"
      },
      {
        "astId": 7881,
        "contract": "contracts/SmartEscrow.sol:SmartEscrow",
        "label": "userEscrowsAsBeneficiary",
        "offset": 0,
        "slot": "5",
        "type": "t_mapping(t_address,t_array(t_bytes32)dyn_storage)"
      },
      {
        "astId": 7884,
        "contract": "contracts/SmartEscrow.sol:SmartEscrow",
        "label": "escrowFeeBps",
        "offset": 0,
        "slot": "6",
        "type": "t_uint256"
      },
      {
        "astId": 7886,
        "contract": "contracts/SmartEscrow.sol:SmartEscrow",
        "label": "feeRecipient",
        "offset": 0,
        "slot": "7",
        "type": "t_address"
      },
      {
        "astId": 7888,
        "contract": "contracts/SmartEscrow.sol:SmartEscrow",
        "label": "payFlowCore",
        "offset": 0,
        "slot": "8",
        "type": "t_address"
      },
      {
        "astId": 7890,
        "contract": "contracts/SmartEscrow.sol:SmartEscrow",
        "label": "totalEscrowsCreated",
        "offset": 0,
        "slot": "9",
        "type": "t_uint256"
      },
      {
        "astId": 7892,
        "contract": "contracts/SmartEscrow.sol:SmartEscrow",
        "label": "totalValueLocked",
        "offset": 0,
        "slot": "10",
        "type": "t_uint256"
      },
      {
        "astId": 7894,
        "contract": "contracts/SmartEscrow.sol:SmartEscrow",
        "label": "totalReleased",
        "offset": 0,
        "slot": "11",
        "type": "t_uint256"
      }
    ],
    "types": {
      "t_address": {
        "encoding": "inplace",
        "label": "address",
        "numberOfBytes": "20"
      },
      "t_array(t_bytes32)dyn_storage": {
        "base": "t_bytes32",
        "encoding": "dynamic_array",
        "label": "bytes32[]",
        "numberOfBytes": "32"
      },
      "t_bool": {
        "encoding": "inplace",
        "label": "bool",
        "numberOfBytes": "1"
      },
      "t_bytes32": {
        "encoding": "inplace",
        "label": "bytes32",
        "numberOfBytes": "32"
      },
      "t_enum(EscrowStatus)7784": {
        "encoding": "inplace",
        "label": "enum SmartEscrow.EscrowStatus",
        "numberOfBytes": "1"
      },
      "t_enum(ReleaseCondition)7789": {
        "encoding": "inplace",
        "label": "enum SmartEscrow.ReleaseCondition",
        "numberOfBytes": "1"
      },
      "t_mapping(t_address,t_array(t_bytes32)dyn_storage)": {
        "encoding": "mapping",
        "key": "t_address",
        "label": "mapping(address => bytes32[])",
        "numberOfBytes": "32",
        "value": "t_array(t_bytes32)dyn_storage"
      },
      "t_mapping(t_address,t_bool)": {
        "encoding": "mapping",
        "key": "t_address",
        "label": "mapping(address => bool)",
        "numberOfBytes": "32",
        "value": "t_bool"
      },
      "t_mapping(t_bytes32,t_struct(Escrow)7836_storage)": {
        "encoding": "mapping",
        "key": "t_bytes32",
        "label": "mapping(bytes32 => struct SmartEscrow.Escrow)",
        "numberOfBytes": "32",
        "value": "t_struct(Escrow)7836_storage"
      },
      "t_mapping(t_bytes32,t_struct(RoleData)21_storage)": {
        "encoding": "mapping",
        "key": "t_bytes32",
        "label": "mapping(bytes32 => struct AccessControl.RoleData)",
        "numberOfBytes": "32",
        "value": "t_struct(RoleData)21_storage"
      },
      "t_string_storage": {
        "encoding": "bytes",
        "label": "string",
        "numberOfBytes": "32"
      },
      "t_struct(Escrow)7836_storage": {
        "encoding": "inplace",
        "label": "struct SmartEscrow.Escrow",
        "members": [
          {
            "astId": 7791,
            "contract": "contracts/SmartEscrow.sol:SmartEscrow",
            "label": "escrowId",
            "offset": 0,
            "slot": "0",
            "type": "t_bytes32"
          },
          {
            "astId": 7793,
            "contract": "contracts/SmartEscrow.sol:SmartEscrow",
            "label": "paymentId",
            "offset": 0,
            "slot": "1",
            "type": "t_bytes32"
          },
          {
            "astId": 7795,
            "contract": "contracts/SmartEscrow.sol:SmartEscrow",
            "label": "depositor",
            "offset": 0,
            "slot": "2",
            "type": "t_address"
          },
          {
            "astId": 7797,
            "contract": "contracts/SmartEscrow.sol:SmartEscrow",
            "label": "beneficiary",
            "offset": 0,
            "slot": "3",
            "type": "t_address"
          },
          {
            "astId": 7799,
            "contract": "contracts/SmartEscrow.sol:SmartEscrow",
            "label": "arbiter",
            "offset": 0,
            "slot": "4",
            "type": "t_address"
          },
          {
            "astId": 7801,
            "contract": "contracts/SmartEscrow.sol:SmartEscrow",
            "label": "token",
            "offset": 0,
            "slot": "5",
            "type": "t_address"
          },
          {
            "astId": 7803,
            "contract": "contracts/SmartEscrow.sol:SmartEscrow",
            "label": "amount",
            "offset": 0,
            "slot": "6",
            "type": "t_uint256"
          },
          {
            "astId": 7805,
            "contract": "contracts/SmartEscrow.sol:SmartEscrow",
            "label": "fee",
            "offset": 0,
            "slot": "7",
            "type": "t_uint256"
          },
          {
            "astId": 7808,
            "contract": "contracts/SmartEscrow.sol:SmartEscrow",
            "label": "status",
            "offset": 0,
            "slot": "8",
            "type": "t_enum(EscrowStatus)7784"
          },
          {
            "astId": 7811,
            "contract": "contracts/SmartEscrow.sol:SmartEscrow",
            "label": "conditionType",
            "offset": 1,
            "slot": "8",
            "type": "t_enum(ReleaseCondition)7789"
          },
          {
            "astId": 7813,
            "contract": "contracts/SmartEscrow.sol:SmartEscrow",
            "label": "releaseTime",
            "offset": 0,
            "slot": "9",
            "type": "t_uint256"
          },
          {
            "astId": 7815,
            "contract": "contracts/SmartEscrow.sol:SmartEscrow",
            "label": "disputeDeadline",
            "offset": 0,
            "slot": "10",
            "type": "t_uint256"
          },
          {
            "astId": 7817,
            "contract": "contracts/SmartEscrow.sol:SmartEscrow",
            "label": "depositorApproved",
            "offset": 0,
            "slot": "11",
            "type": "t_bool"
          },
          {
            "astId": 7819,
            "contract": "contracts/SmartEscrow.sol:SmartEscrow",
            "label": "beneficiaryApproved",
            "offset": 1,
            "slot": "11",
            "type": "t_bool"
          },
          {
            "astId": 7821,
            "contract": "contracts/SmartEscrow.sol:SmartEscrow",
            "label": "requiredSignatures",
            "offset": 0,
            "slot": "12",
            "type": "t_uint256"
          },
          {
            "astId": 7823,
            "contract": "contracts/SmartEscrow.sol:SmartEscrow",
            "label": "signatureCount",
            "offset": 0,
            "slot": "13",
            "type": "t_uint256"
          },
          {
            "astId": 7827,
            "contract": "contracts/SmartEscrow.sol:SmartEscrow",
            "label": "hasSigned",
            "offset": 0,
            "slot": "14",
            "type": "t_mapping(t_address,t_bool)"
          },
          {
            "astId": 7829,
            "contract": "contracts/SmartEscrow.sol:SmartEscrow",
            "label": "oracleConditionId",
            "offset": 0,
            "slot": "15",
            "type": "t_bytes32"
          },
          {
            "astId": 7831,
            "contract": "contracts/SmartEscrow.sol:SmartEscrow",
            "label": "oracleConditionMet",
            "offset": 0,
            "slot": "16",
            "type": "t_bool"
          },
          {
            "astId": 7833,
            "contract": "contracts/SmartEscrow.sol:SmartEscrow",
            "label": "createdAt",
            "offset": 0,
            "slot": "17",
            "type": "t_uint256"
          },
          {
            "astId": 7835,
            "contract": "contracts/SmartEscrow.sol:SmartEscrow",
            "label": "description",
            "offset": 0,
            "slot": "18",
            "type": "t_string_storage"
          }
        ],
        "numberOfBytes": "608"
      },
      "t_struct(RoleData)21_storage": {
        "encoding": "inplace",
        "label": "struct AccessControl.RoleData",
        "members": [
          {
            "astId": 18,
            "contract": "contracts/SmartEscrow.sol:SmartEscrow",
            "label": "hasRole",
            "offset": 0,
            "slot": "0",
            "type": "t_mapping(t_address,t_bool)"
          },
          {
            "astId": 20,
            "contract": "contracts/SmartEscrow.sol:SmartEscrow",
            "label": "adminRole",
            "offset": 0,
            "slot": "1",
            "type": "t_bytes32"
          }
        ],
        "numberOfBytes": "64"
      },
      "t_uint256": {
        "encoding": "inplace",
        "label": "uint256",
        "numberOfBytes": "32"
      }
    }
  }
}